{"contracts/MorphoStrategy.sol":{"MorphoStrategy":{"abi":[{"inputs":[{"internalType":"address","name":"_asset","type":"address"}],"stateMutability":"nonpayable","type":"constructor"},{"inputs":[],"name":"apy","outputs":[{"internalType":"uint256","name":"","type":"uint256"}],"stateMutability":"view","type":"function"},{"inputs":[],"name":"asset","outputs":[{"internalType":"address","name":"","type":"address"}],"stateMutability":"view","type":"function"},{"inputs":[],"name":"currentApy","outputs":[{"internalType":"uint256","name":"","type":"uint256"}],"stateMutability":"view","type":"function"},{"inputs":[{"internalType":"address","name":"","type":"address"},{"internalType":"uint256","name":"amount","type":"uint256"}],"name":"deposit","outputs":[{"internalType":"uint256","name":"","type":"uint256"}],"stateMutability":"nonpayable","type":"function"},{"inputs":[],"name":"harvest","outputs":[{"internalType":"uint256","name":"yield_","type":"uint256"}],"stateMutability":"nonpayable","type":"function"},{"inputs":[],"name":"healthFactor","outputs":[{"internalType":"uint256","name":"","type":"uint256"}],"stateMutability":"view","type":"function"},{"inputs":[],"name":"isHealthy","outputs":[{"internalType":"bool","name":"","type":"bool"}],"stateMutability":"view","type":"function"},{"inputs":[],"name":"lastUpdateBlock","outputs":[{"internalType":"uint256","name":"","type":"uint256"}],"stateMutability":"view","type":"function"},{"inputs":[],"name":"matchingRatio","outputs":[{"internalType":"uint256","name":"","type":"uint256"}],"stateMutability":"view","type":"function"},{"inputs":[],"name":"name","outputs":[{"internalType":"string","name":"","type":"string"}],"stateMutability":"view","type":"function"},{"inputs":[],"name":"protocol","outputs":[{"internalType":"string","name":"","type":"string"}],"stateMutability":"view","type":"function"},{"inputs":[{"internalType":"address","name":"_vault","type":"address"}],"name":"setVault","outputs":[],"stateMutability":"nonpayable","type":"function"},{"inputs":[],"name":"supplyRate","outputs":[{"internalType":"uint256","name":"","type":"uint256"}],"stateMutability":"view","type":"function"},{"inputs":[],"name":"totalAssets","outputs":[{"internalType":"uint256","name":"","type":"uint256"}],"stateMutability":"view","type":"function"},{"inputs":[],"name":"totalSupplied","outputs":[{"internalType":"uint256","name":"","type":"uint256"}],"stateMutability":"view","type":"function"},{"inputs":[{"internalType":"uint256","name":"_newApy","type":"uint256"}],"name":"updateApy","outputs":[],"stateMutability":"nonpayable","type":"function"},{"inputs":[{"internalType":"uint256","name":"_hf","type":"uint256"}],"name":"updateHealthFactor","outputs":[],"stateMutability":"nonpayable","type":"function"},{"inputs":[{"internalType":"uint256","name":"_newRate","type":"uint256"}],"name":"updateSupplyRate","outputs":[],"stateMutability":"nonpayable","type":"function"},{"inputs":[],"name":"vault","outputs":[{"internalType":"address","name":"","type":"address"}],"stateMutability":"view","type":"function"},{"inputs":[{"internalType":"address","name":"","type":"address"},{"internalType":"uint256","name":"amount","type":"uint256"}],"name":"withdraw","outputs":[{"internalType":"uint256","name":"","type":"uint256"}],"stateMutability":"nonpayable","type":"function"}],"evm":{"bytecode":{"linkReferences":{},"object":"60806040523461039057610b586020813803918261001c81610395565b93849283398101031261039057516001600160a01b03811690819003610390576100466040610395565b9060128252714d6f7270686f20426c756520537570706c7960701b60208301526100706040610395565b60068152654d6f7270686f60d01b602082015282519091906001600160401b03811161029b57600054600181811c91168015610386575b602082101461027b57601f8111610322575b506020601f82116001146102bc57819293946000926102b1575b50508160011b916000199060031b1c1916176000555b81516001600160401b03811161029b57600154600181811c91168015610291575b602082101461027b57601f8111610216575b50602092601f82116001146101b157928192936000926101a6575b50508160011b916000199060031b1c1916176001555b600380546001600160a01b031990811692909217905560028054909116331790556722b1c8c1227a000060065567013c3107490280006008819055600555670bcbce7f1b15000060095560405161079d90816103bb8239f35b015190503880610137565b601f198216936001600052806000209160005b8681106101fe57508360019596106101e5575b505050811b0160015561014d565b015160001960f88460031b161c191690553880806101d7565b919260206001819286850151815501940192016101c4565b60016000527fb10e2d527612073b26eecdfd717e6a320cf44b4afac2b0732d9fcbe2b7fa0cf6601f830160051c81019160208410610271575b601f0160051c01905b818110610265575061011c565b60008155600101610258565b909150819061024f565b634e487b7160e01b600052602260045260246000fd5b90607f169061010a565b634e487b7160e01b600052604160045260246000fd5b0151905038806100d3565b601f1982169060008052806000209160005b81811061030a575095836001959697106102f1575b505050811b016000556100e9565b015160001960f88460031b161c191690553880806102e3565b9192602060018192868b0151815501940192016102ce565b600080527f290decd9548b62a8d60345a988386fc84ba6bc95484008f6362f93160ef3e563601f830160051c8101916020841061037c575b601f0160051c01905b81811061037057506100b9565b60008155600101610363565b909150819061035a565b90607f16906100a7565b600080fd5b6040519190601f01601f191682016001600160401b0381118382101761029b5760405256fe608080604052600436101561001357600080fd5b60003560e01c90816301e1d114146106715750806306fdde03146105b75780630c1917631461059957806322841f011461057b57806338d52e0f146105525780633bcfc4b8146102025780634641257d1461049e57806347e7ef2414610444578063630fd0ac146104265780636817031b146103c95780638770ccc71461039b5780638ce744261461027a578063a218141b1461025c578063aac3522a1461023e578063ad2961a314610220578063b996de6714610202578063e4020804146101d9578063f3fef3a314610142578063fbfa77cf146101195763ff16ef39146100fb57600080fd5b3461011457602036600319011261011457600435600555005b600080fd5b34610114576000366003190112610114576002546040516001600160a01b039091168152602090f35b346101145760403660031901126101145761015b6106d5565b5060243561017460018060a01b036002541633146106eb565b600a54908181116101a55761018b81602093610724565b600a5561019a81600454610724565b600455604051908152f35b60405162461bcd60e51b815260206004820152600c60248201526b125b9cdd59999a58da595b9d60a21b6044820152606490fd5b346101145760003660031901126101145760206714d1120d7b1600006006541015604051908152f35b34610114576000366003190112610114576020600554604051908152f35b34610114576000366003190112610114576020600854604051908152f35b34610114576000366003190112610114576020600954604051908152f35b34610114576000366003190112610114576020600754604051908152f35b34610114576000366003190112610114576000604051816001548060011c90600181168015610391575b60208310811461037d57828552908115610361575060011461030d575b50819003601f01601f1916810167ffffffffffffffff8111828210176102f9576102f592506040526040519182918261068c565b0390f35b634e487b7160e01b83526041600452602483fd5b600184529050827fb10e2d527612073b26eecdfd717e6a320cf44b4afac2b0732d9fcbe2b7fa0cf65b82821061034b575060209150820101836102c1565b6001816020925483858801015201910190610336565b90506020925060ff191682840152151560051b820101836102c1565b634e487b7160e01b86526022600452602486fd5b91607f16916102a4565b34610114576020366003190112610114576103c160018060a01b036002541633146106eb565b600435600655005b34610114576020366003190112610114576103e26106d5565b600254906001600160a01b038216801590811561041c575b5015610114576001600160a01b03166001600160a01b03199190911617600255005b90503314836103fa565b34610114576000366003190112610114576020600a54604051908152f35b346101145760403660031901126101145761045d6106d5565b50602060243561047860018060a01b036002541633146106eb565b6104848160045461075a565b60045561049381600a5461075a565b600a55604051908152f35b34610114576000366003190112610114576104c460018060a01b036002541633146106eb565b602060006104d460075443610724565b80151580610547575b6104ef575b5043600755604051908152f35b6a12a201671c8c4641080000610513600a549261050e60085485610747565b610747565b049081610521575b506104e2565b8192509061052e9161075a565b600a5561053d8160045461075a565b600455828061051b565b50600a5415156104dd565b34610114576000366003190112610114576003546040516001600160a01b039091168152602090f35b34610114576000366003190112610114576020600654604051908152f35b34610114576020366003190112610114576004356008819055600555005b346101145760003660031901126101145760006040518182548060011c90600181168015610667575b60208310811461037d5782855290811561036157506001146106305750819003601f01601f1916810167ffffffffffffffff8111828210176102f9576102f592506040526040519182918261068c565b90508280526020832083905b828210610651575060209150820101836102c1565b600181602092548385880101520191019061063c565b91607f16916105e0565b34610114576000366003190112610114576020906004548152f35b91909160208152825180602083015260005b8181106106bf575060409293506000838284010152601f8019910116010190565b806020809287010151604082860101520161069e565b600435906001600160a01b038216820361011457565b156106f257565b60405162461bcd60e51b815260206004820152600a60248201526913db9b1e481d985d5b1d60b21b6044820152606490fd5b9190820391821161073157565b634e487b7160e01b600052601160045260246000fd5b8181029291811591840414171561073157565b919082018092116107315756fea2646970667358221220d2122b1be851d8587b80aca87f4170ded2b1e1095520fbe9e682e554321c275664736f6c634300081c0033","opcodes":"PUSH1 0x80 PUSH1 0x40 MSTORE CALLVALUE PUSH2 0x390 JUMPI PUSH2 0xB58 PUSH1 0x20 DUP2 CODESIZE SUB SWAP2 DUP3 PUSH2 0x1C DUP2 PUSH2 0x395 JUMP JUMPDEST SWAP4 DUP5 SWAP3 DUP4 CODECOPY DUP2 ADD SUB SLT PUSH2 0x390 JUMPI MLOAD PUSH1 0x1 PUSH1 0x1 PUSH1 0xA0 SHL SUB DUP2 AND SWAP1 DUP2 SWAP1 SUB PUSH2 0x390 JUMPI PUSH2 0x46 PUSH1 0x40 PUSH2 0x395 JUMP JUMPDEST SWAP1 PUSH1 0x12 DUP3 MSTORE PUSH18 0x4D6F7270686F20426C756520537570706C79 PUSH1 0x70 SHL PUSH1 0x20 DUP4 ADD MSTORE PUSH2 0x70 PUSH1 0x40 PUSH2 0x395 JUMP JUMPDEST PUSH1 0x6 DUP2 MSTORE PUSH6 0x4D6F7270686F PUSH1 0xD0 SHL PUSH1 0x20 DUP3 ADD MSTORE DUP3 MLOAD SWAP1 SWAP2 SWAP1 PUSH1 0x1 PUSH1 0x1 PUSH1 0x40 SHL SUB DUP2 GT PUSH2 0x29B JUMPI PUSH1 0x0 SLOAD PUSH1 0x1 DUP2 DUP2 SHR SWAP2 AND DUP1 ISZERO PUSH2 0x386 JUMPI JUMPDEST PUSH1 0x20 DUP3 LT EQ PUSH2 0x27B JUMPI PUSH1 0x1F DUP2 GT PUSH2 0x322 JUMPI JUMPDEST POP PUSH1 0x20 PUSH1 0x1F DUP3 GT PUSH1 0x1 EQ PUSH2 0x2BC JUMPI DUP2 SWAP3 SWAP4 SWAP5 PUSH1 0x0 SWAP3 PUSH2 0x2B1 JUMPI JUMPDEST POP POP DUP2 PUSH1 0x1 SHL SWAP2 PUSH1 0x0 NOT SWAP1 PUSH1 0x3 SHL SHR NOT AND OR PUSH1 0x0 SSTORE JUMPDEST DUP2 MLOAD PUSH1 0x1 PUSH1 0x1 PUSH1 0x40 SHL SUB DUP2 GT PUSH2 0x29B JUMPI PUSH1 0x1 SLOAD PUSH1 0x1 DUP2 DUP2 SHR SWAP2 AND DUP1 ISZERO PUSH2 0x291 JUMPI JUMPDEST PUSH1 0x20 DUP3 LT EQ PUSH2 0x27B JUMPI PUSH1 0x1F DUP2 GT PUSH2 0x216 JUMPI JUMPDEST POP PUSH1 0x20 SWAP3 PUSH1 0x1F DUP3 GT PUSH1 0x1 EQ PUSH2 0x1B1 JUMPI SWAP3 DUP2 SWAP3 SWAP4 PUSH1 0x0 SWAP3 PUSH2 0x1A6 JUMPI JUMPDEST POP POP DUP2 PUSH1 0x1 SHL SWAP2 PUSH1 0x0 NOT SWAP1 PUSH1 0x3 SHL SHR NOT AND OR PUSH1 0x1 SSTORE JUMPDEST PUSH1 0x3 DUP1 SLOAD PUSH1 0x1 PUSH1 0x1 PUSH1 0xA0 SHL SUB NOT SWAP1 DUP2 AND SWAP3 SWAP1 SWAP3 OR SWAP1 SSTORE PUSH1 0x2 DUP1 SLOAD SWAP1 SWAP2 AND CALLER OR SWAP1 SSTORE PUSH8 0x22B1C8C1227A0000 PUSH1 0x6 SSTORE PUSH8 0x13C310749028000 PUSH1 0x8 DUP2 SWAP1 SSTORE PUSH1 0x5 SSTORE PUSH8 0xBCBCE7F1B150000 PUSH1 0x9 SSTORE PUSH1 0x40 MLOAD PUSH2 0x79D SWAP1 DUP2 PUSH2 0x3BB DUP3 CODECOPY RETURN JUMPDEST ADD MLOAD SWAP1 POP CODESIZE DUP1 PUSH2 0x137 JUMP JUMPDEST PUSH1 0x1F NOT DUP3 AND SWAP4 PUSH1 0x1 PUSH1 0x0 MSTORE DUP1 PUSH1 0x0 KECCAK256 SWAP2 PUSH1 0x0 JUMPDEST DUP7 DUP2 LT PUSH2 0x1FE JUMPI POP DUP4 PUSH1 0x1 SWAP6 SWAP7 LT PUSH2 0x1E5 JUMPI JUMPDEST POP POP POP DUP2 SHL ADD PUSH1 0x1 SSTORE PUSH2 0x14D JUMP JUMPDEST ADD MLOAD PUSH1 0x0 NOT PUSH1 0xF8 DUP5 PUSH1 0x3 SHL AND SHR NOT AND SWAP1 SSTORE CODESIZE DUP1 DUP1 PUSH2 0x1D7 JUMP JUMPDEST SWAP2 SWAP3 PUSH1 0x20 PUSH1 0x1 DUP2 SWAP3 DUP7 DUP6 ADD MLOAD DUP2 SSTORE ADD SWAP5 ADD SWAP3 ADD PUSH2 0x1C4 JUMP JUMPDEST PUSH1 0x1 PUSH1 0x0 MSTORE PUSH32 0xB10E2D527612073B26EECDFD717E6A320CF44B4AFAC2B0732D9FCBE2B7FA0CF6 PUSH1 0x1F DUP4 ADD PUSH1 0x5 SHR DUP2 ADD SWAP2 PUSH1 0x20 DUP5 LT PUSH2 0x271 JUMPI JUMPDEST PUSH1 0x1F ADD PUSH1 0x5 SHR ADD SWAP1 JUMPDEST DUP2 DUP2 LT PUSH2 0x265 JUMPI POP PUSH2 0x11C JUMP JUMPDEST PUSH1 0x0 DUP2 SSTORE PUSH1 0x1 ADD PUSH2 0x258 JUMP JUMPDEST SWAP1 SWAP2 POP DUP2 SWAP1 PUSH2 0x24F JUMP JUMPDEST PUSH4 0x4E487B71 PUSH1 0xE0 SHL PUSH1 0x0 MSTORE PUSH1 0x22 PUSH1 0x4 MSTORE PUSH1 0x24 PUSH1 0x0 REVERT JUMPDEST SWAP1 PUSH1 0x7F AND SWAP1 PUSH2 0x10A JUMP JUMPDEST PUSH4 0x4E487B71 PUSH1 0xE0 SHL PUSH1 0x0 MSTORE PUSH1 0x41 PUSH1 0x4 MSTORE PUSH1 0x24 PUSH1 0x0 REVERT JUMPDEST ADD MLOAD SWAP1 POP CODESIZE DUP1 PUSH2 0xD3 JUMP JUMPDEST PUSH1 0x1F NOT DUP3 AND SWAP1 PUSH1 0x0 DUP1 MSTORE DUP1 PUSH1 0x0 KECCAK256 SWAP2 PUSH1 0x0 JUMPDEST DUP2 DUP2 LT PUSH2 0x30A JUMPI POP SWAP6 DUP4 PUSH1 0x1 SWAP6 SWAP7 SWAP8 LT PUSH2 0x2F1 JUMPI JUMPDEST POP POP POP DUP2 SHL ADD PUSH1 0x0 SSTORE PUSH2 0xE9 JUMP JUMPDEST ADD MLOAD PUSH1 0x0 NOT PUSH1 0xF8 DUP5 PUSH1 0x3 SHL AND SHR NOT AND SWAP1 SSTORE CODESIZE DUP1 DUP1 PUSH2 0x2E3 JUMP JUMPDEST SWAP2 SWAP3 PUSH1 0x20 PUSH1 0x1 DUP2 SWAP3 DUP7 DUP12 ADD MLOAD DUP2 SSTORE ADD SWAP5 ADD SWAP3 ADD PUSH2 0x2CE JUMP JUMPDEST PUSH1 0x0 DUP1 MSTORE PUSH32 0x290DECD9548B62A8D60345A988386FC84BA6BC95484008F6362F93160EF3E563 PUSH1 0x1F DUP4 ADD PUSH1 0x5 SHR DUP2 ADD SWAP2 PUSH1 0x20 DUP5 LT PUSH2 0x37C JUMPI JUMPDEST PUSH1 0x1F ADD PUSH1 0x5 SHR ADD SWAP1 JUMPDEST DUP2 DUP2 LT PUSH2 0x370 JUMPI POP PUSH2 0xB9 JUMP JUMPDEST PUSH1 0x0 DUP2 SSTORE PUSH1 0x1 ADD PUSH2 0x363 JUMP JUMPDEST SWAP1 SWAP2 POP DUP2 SWAP1 PUSH2 0x35A JUMP JUMPDEST SWAP1 PUSH1 0x7F AND SWAP1 PUSH2 0xA7 JUMP JUMPDEST PUSH1 0x0 DUP1 REVERT JUMPDEST PUSH1 0x40 MLOAD SWAP2 SWAP1 PUSH1 0x1F ADD PUSH1 0x1F NOT AND DUP3 ADD PUSH1 0x1 PUSH1 0x1 PUSH1 0x40 SHL SUB DUP2 GT DUP4 DUP3 LT OR PUSH2 0x29B JUMPI PUSH1 0x40 MSTORE JUMP INVALID PUSH1 0x80 DUP1 PUSH1 0x40 MSTORE PUSH1 0x4 CALLDATASIZE LT ISZERO PUSH2 0x13 JUMPI PUSH1 0x0 DUP1 REVERT JUMPDEST PUSH1 0x0 CALLDATALOAD PUSH1 0xE0 SHR SWAP1 DUP2 PUSH4 0x1E1D114 EQ PUSH2 0x671 JUMPI POP DUP1 PUSH4 0x6FDDE03 EQ PUSH2 0x5B7 JUMPI DUP1 PUSH4 0xC191763 EQ PUSH2 0x599 JUMPI DUP1 PUSH4 0x22841F01 EQ PUSH2 0x57B JUMPI DUP1 PUSH4 0x38D52E0F EQ PUSH2 0x552 JUMPI DUP1 PUSH4 0x3BCFC4B8 EQ PUSH2 0x202 JUMPI DUP1 PUSH4 0x4641257D EQ PUSH2 0x49E JUMPI DUP1 PUSH4 0x47E7EF24 EQ PUSH2 0x444 JUMPI DUP1 PUSH4 0x630FD0AC EQ PUSH2 0x426 JUMPI DUP1 PUSH4 0x6817031B EQ PUSH2 0x3C9 JUMPI DUP1 PUSH4 0x8770CCC7 EQ PUSH2 0x39B JUMPI DUP1 PUSH4 0x8CE74426 EQ PUSH2 0x27A JUMPI DUP1 PUSH4 0xA218141B EQ PUSH2 0x25C JUMPI DUP1 PUSH4 0xAAC3522A EQ PUSH2 0x23E JUMPI DUP1 PUSH4 0xAD2961A3 EQ PUSH2 0x220 JUMPI DUP1 PUSH4 0xB996DE67 EQ PUSH2 0x202 JUMPI DUP1 PUSH4 0xE4020804 EQ PUSH2 0x1D9 JUMPI DUP1 PUSH4 0xF3FEF3A3 EQ PUSH2 0x142 JUMPI DUP1 PUSH4 0xFBFA77CF EQ PUSH2 0x119 JUMPI PUSH4 0xFF16EF39 EQ PUSH2 0xFB JUMPI PUSH1 0x0 DUP1 REVERT JUMPDEST CALLVALUE PUSH2 0x114 JUMPI PUSH1 0x20 CALLDATASIZE PUSH1 0x3 NOT ADD SLT PUSH2 0x114 JUMPI PUSH1 0x4 CALLDATALOAD PUSH1 0x5 SSTORE STOP JUMPDEST PUSH1 0x0 DUP1 REVERT JUMPDEST CALLVALUE PUSH2 0x114 JUMPI PUSH1 0x0 CALLDATASIZE PUSH1 0x3 NOT ADD SLT PUSH2 0x114 JUMPI PUSH1 0x2 SLOAD PUSH1 0x40 MLOAD PUSH1 0x1 PUSH1 0x1 PUSH1 0xA0 SHL SUB SWAP1 SWAP2 AND DUP2 MSTORE PUSH1 0x20 SWAP1 RETURN JUMPDEST CALLVALUE PUSH2 0x114 JUMPI PUSH1 0x40 CALLDATASIZE PUSH1 0x3 NOT ADD SLT PUSH2 0x114 JUMPI PUSH2 0x15B PUSH2 0x6D5 JUMP JUMPDEST POP PUSH1 0x24 CALLDATALOAD PUSH2 0x174 PUSH1 0x1 DUP1 PUSH1 0xA0 SHL SUB PUSH1 0x2 SLOAD AND CALLER EQ PUSH2 0x6EB JUMP JUMPDEST PUSH1 0xA SLOAD SWAP1 DUP2 DUP2 GT PUSH2 0x1A5 JUMPI PUSH2 0x18B DUP2 PUSH1 0x20 SWAP4 PUSH2 0x724 JUMP JUMPDEST PUSH1 0xA SSTORE PUSH2 0x19A DUP2 PUSH1 0x4 SLOAD PUSH2 0x724 JUMP JUMPDEST PUSH1 0x4 SSTORE PUSH1 0x40 MLOAD SWAP1 DUP2 MSTORE RETURN JUMPDEST PUSH1 0x40 MLOAD PUSH3 0x461BCD PUSH1 0xE5 SHL DUP2 MSTORE PUSH1 0x20 PUSH1 0x4 DUP3 ADD MSTORE PUSH1 0xC PUSH1 0x24 DUP3 ADD MSTORE PUSH12 0x125B9CDD59999A58DA595B9D PUSH1 0xA2 SHL PUSH1 0x44 DUP3 ADD MSTORE PUSH1 0x64 SWAP1 REVERT JUMPDEST CALLVALUE PUSH2 0x114 JUMPI PUSH1 0x0 CALLDATASIZE PUSH1 0x3 NOT ADD SLT PUSH2 0x114 JUMPI PUSH1 0x20 PUSH8 0x14D1120D7B160000 PUSH1 0x6 SLOAD LT ISZERO PUSH1 0x40 MLOAD SWAP1 DUP2 MSTORE RETURN JUMPDEST CALLVALUE PUSH2 0x114 JUMPI PUSH1 0x0 CALLDATASIZE PUSH1 0x3 NOT ADD SLT PUSH2 0x114 JUMPI PUSH1 0x20 PUSH1 0x5 SLOAD PUSH1 0x40 MLOAD SWAP1 DUP2 MSTORE RETURN JUMPDEST CALLVALUE PUSH2 0x114 JUMPI PUSH1 0x0 CALLDATASIZE PUSH1 0x3 NOT ADD SLT PUSH2 0x114 JUMPI PUSH1 0x20 PUSH1 0x8 SLOAD PUSH1 0x40 MLOAD SWAP1 DUP2 MSTORE RETURN JUMPDEST CALLVALUE PUSH2 0x114 JUMPI PUSH1 0x0 CALLDATASIZE PUSH1 0x3 NOT ADD SLT PUSH2 0x114 JUMPI PUSH1 0x20 PUSH1 0x9 SLOAD PUSH1 0x40 MLOAD SWAP1 DUP2 MSTORE RETURN JUMPDEST CALLVALUE PUSH2 0x114 JUMPI PUSH1 0x0 CALLDATASIZE PUSH1 0x3 NOT ADD SLT PUSH2 0x114 JUMPI PUSH1 0x20 PUSH1 0x7 SLOAD PUSH1 0x40 MLOAD SWAP1 DUP2 MSTORE RETURN JUMPDEST CALLVALUE PUSH2 0x114 JUMPI PUSH1 0x0 CALLDATASIZE PUSH1 0x3 NOT ADD SLT PUSH2 0x114 JUMPI PUSH1 0x0 PUSH1 0x40 MLOAD DUP2 PUSH1 0x1 SLOAD DUP1 PUSH1 0x1 SHR SWAP1 PUSH1 0x1 DUP2 AND DUP1 ISZERO PUSH2 0x391 JUMPI JUMPDEST PUSH1 0x20 DUP4 LT DUP2 EQ PUSH2 0x37D JUMPI DUP3 DUP6 MSTORE SWAP1 DUP2 ISZERO PUSH2 0x361 JUMPI POP PUSH1 0x1 EQ PUSH2 0x30D JUMPI JUMPDEST POP DUP2 SWAP1 SUB PUSH1 0x1F ADD PUSH1 0x1F NOT AND DUP2 ADD PUSH8 0xFFFFFFFFFFFFFFFF DUP2 GT DUP3 DUP3 LT OR PUSH2 0x2F9 JUMPI PUSH2 0x2F5 SWAP3 POP PUSH1 0x40 MSTORE PUSH1 0x40 MLOAD SWAP2 DUP3 SWAP2 DUP3 PUSH2 0x68C JUMP JUMPDEST SUB SWAP1 RETURN JUMPDEST PUSH4 0x4E487B71 PUSH1 0xE0 SHL DUP4 MSTORE PUSH1 0x41 PUSH1 0x4 MSTORE PUSH1 0x24 DUP4 REVERT JUMPDEST PUSH1 0x1 DUP5 MSTORE SWAP1 POP DUP3 PUSH32 0xB10E2D527612073B26EECDFD717E6A320CF44B4AFAC2B0732D9FCBE2B7FA0CF6 JUMPDEST DUP3 DUP3 LT PUSH2 0x34B JUMPI POP PUSH1 0x20 SWAP2 POP DUP3 ADD ADD DUP4 PUSH2 0x2C1 JUMP JUMPDEST PUSH1 0x1 DUP2 PUSH1 0x20 SWAP3 SLOAD DUP4 DUP6 DUP9 ADD ADD MSTORE ADD SWAP2 ADD SWAP1 PUSH2 0x336 JUMP JUMPDEST SWAP1 POP PUSH1 0x20 SWAP3 POP PUSH1 0xFF NOT AND DUP3 DUP5 ADD MSTORE ISZERO ISZERO PUSH1 0x5 SHL DUP3 ADD ADD DUP4 PUSH2 0x2C1 JUMP JUMPDEST PUSH4 0x4E487B71 PUSH1 0xE0 SHL DUP7 MSTORE PUSH1 0x22 PUSH1 0x4 MSTORE PUSH1 0x24 DUP7 REVERT JUMPDEST SWAP2 PUSH1 0x7F AND SWAP2 PUSH2 0x2A4 JUMP JUMPDEST CALLVALUE PUSH2 0x114 JUMPI PUSH1 0x20 CALLDATASIZE PUSH1 0x3 NOT ADD SLT PUSH2 0x114 JUMPI PUSH2 0x3C1 PUSH1 0x1 DUP1 PUSH1 0xA0 SHL SUB PUSH1 0x2 SLOAD AND CALLER EQ PUSH2 0x6EB JUMP JUMPDEST PUSH1 0x4 CALLDATALOAD PUSH1 0x6 SSTORE STOP JUMPDEST CALLVALUE PUSH2 0x114 JUMPI PUSH1 0x20 CALLDATASIZE PUSH1 0x3 NOT ADD SLT PUSH2 0x114 JUMPI PUSH2 0x3E2 PUSH2 0x6D5 JUMP JUMPDEST PUSH1 0x2 SLOAD SWAP1 PUSH1 0x1 PUSH1 0x1 PUSH1 0xA0 SHL SUB DUP3 AND DUP1 ISZERO SWAP1 DUP2 ISZERO PUSH2 0x41C JUMPI JUMPDEST POP ISZERO PUSH2 0x114 JUMPI PUSH1 0x1 PUSH1 0x1 PUSH1 0xA0 SHL SUB AND PUSH1 0x1 PUSH1 0x1 PUSH1 0xA0 SHL SUB NOT SWAP2 SWAP1 SWAP2 AND OR PUSH1 0x2 SSTORE STOP JUMPDEST SWAP1 POP CALLER EQ DUP4 PUSH2 0x3FA JUMP JUMPDEST CALLVALUE PUSH2 0x114 JUMPI PUSH1 0x0 CALLDATASIZE PUSH1 0x3 NOT ADD SLT PUSH2 0x114 JUMPI PUSH1 0x20 PUSH1 0xA SLOAD PUSH1 0x40 MLOAD SWAP1 DUP2 MSTORE RETURN JUMPDEST CALLVALUE PUSH2 0x114 JUMPI PUSH1 0x40 CALLDATASIZE PUSH1 0x3 NOT ADD SLT PUSH2 0x114 JUMPI PUSH2 0x45D PUSH2 0x6D5 JUMP JUMPDEST POP PUSH1 0x20 PUSH1 0x24 CALLDATALOAD PUSH2 0x478 PUSH1 0x1 DUP1 PUSH1 0xA0 SHL SUB PUSH1 0x2 SLOAD AND CALLER EQ PUSH2 0x6EB JUMP JUMPDEST PUSH2 0x484 DUP2 PUSH1 0x4 SLOAD PUSH2 0x75A JUMP JUMPDEST PUSH1 0x4 SSTORE PUSH2 0x493 DUP2 PUSH1 0xA SLOAD PUSH2 0x75A JUMP JUMPDEST PUSH1 0xA SSTORE PUSH1 0x40 MLOAD SWAP1 DUP2 MSTORE RETURN JUMPDEST CALLVALUE PUSH2 0x114 JUMPI PUSH1 0x0 CALLDATASIZE PUSH1 0x3 NOT ADD SLT PUSH2 0x114 JUMPI PUSH2 0x4C4 PUSH1 0x1 DUP1 PUSH1 0xA0 SHL SUB PUSH1 0x2 SLOAD AND CALLER EQ PUSH2 0x6EB JUMP JUMPDEST PUSH1 0x20 PUSH1 0x0 PUSH2 0x4D4 PUSH1 0x7 SLOAD NUMBER PUSH2 0x724 JUMP JUMPDEST DUP1 ISZERO ISZERO DUP1 PUSH2 0x547 JUMPI JUMPDEST PUSH2 0x4EF JUMPI JUMPDEST POP NUMBER PUSH1 0x7 SSTORE PUSH1 0x40 MLOAD SWAP1 DUP2 MSTORE RETURN JUMPDEST PUSH11 0x12A201671C8C4641080000 PUSH2 0x513 PUSH1 0xA SLOAD SWAP3 PUSH2 0x50E PUSH1 0x8 SLOAD DUP6 PUSH2 0x747 JUMP JUMPDEST PUSH2 0x747 JUMP JUMPDEST DIV SWAP1 DUP2 PUSH2 0x521 JUMPI JUMPDEST POP PUSH2 0x4E2 JUMP JUMPDEST DUP2 SWAP3 POP SWAP1 PUSH2 0x52E SWAP2 PUSH2 0x75A JUMP JUMPDEST PUSH1 0xA SSTORE PUSH2 0x53D DUP2 PUSH1 0x4 SLOAD PUSH2 0x75A JUMP JUMPDEST PUSH1 0x4 SSTORE DUP3 DUP1 PUSH2 0x51B JUMP JUMPDEST POP PUSH1 0xA SLOAD ISZERO ISZERO PUSH2 0x4DD JUMP JUMPDEST CALLVALUE PUSH2 0x114 JUMPI PUSH1 0x0 CALLDATASIZE PUSH1 0x3 NOT ADD SLT PUSH2 0x114 JUMPI PUSH1 0x3 SLOAD PUSH1 0x40 MLOAD PUSH1 0x1 PUSH1 0x1 PUSH1 0xA0 SHL SUB SWAP1 SWAP2 AND DUP2 MSTORE PUSH1 0x20 SWAP1 RETURN JUMPDEST CALLVALUE PUSH2 0x114 JUMPI PUSH1 0x0 CALLDATASIZE PUSH1 0x3 NOT ADD SLT PUSH2 0x114 JUMPI PUSH1 0x20 PUSH1 0x6 SLOAD PUSH1 0x40 MLOAD SWAP1 DUP2 MSTORE RETURN JUMPDEST CALLVALUE PUSH2 0x114 JUMPI PUSH1 0x20 CALLDATASIZE PUSH1 0x3 NOT ADD SLT PUSH2 0x114 JUMPI PUSH1 0x4 CALLDATALOAD PUSH1 0x8 DUP2 SWAP1 SSTORE PUSH1 0x5 SSTORE STOP JUMPDEST CALLVALUE PUSH2 0x114 JUMPI PUSH1 0x0 CALLDATASIZE PUSH1 0x3 NOT ADD SLT PUSH2 0x114 JUMPI PUSH1 0x0 PUSH1 0x40 MLOAD DUP2 DUP3 SLOAD DUP1 PUSH1 0x1 SHR SWAP1 PUSH1 0x1 DUP2 AND DUP1 ISZERO PUSH2 0x667 JUMPI JUMPDEST PUSH1 0x20 DUP4 LT DUP2 EQ PUSH2 0x37D JUMPI DUP3 DUP6 MSTORE SWAP1 DUP2 ISZERO PUSH2 0x361 JUMPI POP PUSH1 0x1 EQ PUSH2 0x630 JUMPI POP DUP2 SWAP1 SUB PUSH1 0x1F ADD PUSH1 0x1F NOT AND DUP2 ADD PUSH8 0xFFFFFFFFFFFFFFFF DUP2 GT DUP3 DUP3 LT OR PUSH2 0x2F9 JUMPI PUSH2 0x2F5 SWAP3 POP PUSH1 0x40 MSTORE PUSH1 0x40 MLOAD SWAP2 DUP3 SWAP2 DUP3 PUSH2 0x68C JUMP JUMPDEST SWAP1 POP DUP3 DUP1 MSTORE PUSH1 0x20 DUP4 KECCAK256 DUP4 SWAP1 JUMPDEST DUP3 DUP3 LT PUSH2 0x651 JUMPI POP PUSH1 0x20 SWAP2 POP DUP3 ADD ADD DUP4 PUSH2 0x2C1 JUMP JUMPDEST PUSH1 0x1 DUP2 PUSH1 0x20 SWAP3 SLOAD DUP4 DUP6 DUP9 ADD ADD MSTORE ADD SWAP2 ADD SWAP1 PUSH2 0x63C JUMP JUMPDEST SWAP2 PUSH1 0x7F AND SWAP2 PUSH2 0x5E0 JUMP JUMPDEST CALLVALUE PUSH2 0x114 JUMPI PUSH1 0x0 CALLDATASIZE PUSH1 0x3 NOT ADD SLT PUSH2 0x114 JUMPI PUSH1 0x20 SWAP1 PUSH1 0x4 SLOAD DUP2 MSTORE RETURN JUMPDEST SWAP2 SWAP1 SWAP2 PUSH1 0x20 DUP2 MSTORE DUP3 MLOAD DUP1 PUSH1 0x20 DUP4 ADD MSTORE PUSH1 0x0 JUMPDEST DUP2 DUP2 LT PUSH2 0x6BF JUMPI POP PUSH1 0x40 SWAP3 SWAP4 POP PUSH1 0x0 DUP4 DUP3 DUP5 ADD ADD MSTORE PUSH1 0x1F DUP1 NOT SWAP2 ADD AND ADD ADD SWAP1 JUMP JUMPDEST DUP1 PUSH1 0x20 DUP1 SWAP3 DUP8 ADD ADD MLOAD PUSH1 0x40 DUP3 DUP7 ADD ADD MSTORE ADD PUSH2 0x69E JUMP JUMPDEST PUSH1 0x4 CALLDATALOAD SWAP1 PUSH1 0x1 PUSH1 0x1 PUSH1 0xA0 SHL SUB DUP3 AND DUP3 SUB PUSH2 0x114 JUMPI JUMP JUMPDEST ISZERO PUSH2 0x6F2 JUMPI JUMP JUMPDEST PUSH1 0x40 MLOAD PUSH3 0x461BCD PUSH1 0xE5 SHL DUP2 MSTORE PUSH1 0x20 PUSH1 0x4 DUP3 ADD MSTORE PUSH1 0xA PUSH1 0x24 DUP3 ADD MSTORE PUSH10 0x13DB9B1E481D985D5B1D PUSH1 0xB2 SHL PUSH1 0x44 DUP3 ADD MSTORE PUSH1 0x64 SWAP1 REVERT JUMPDEST SWAP2 SWAP1 DUP3 SUB SWAP2 DUP3 GT PUSH2 0x731 JUMPI JUMP JUMPDEST PUSH4 0x4E487B71 PUSH1 0xE0 SHL PUSH1 0x0 MSTORE PUSH1 0x11 PUSH1 0x4 MSTORE PUSH1 0x24 PUSH1 0x0 REVERT JUMPDEST DUP2 DUP2 MUL SWAP3 SWAP2 DUP2 ISZERO SWAP2 DUP5 DIV EQ OR ISZERO PUSH2 0x731 JUMPI JUMP JUMPDEST SWAP2 SWAP1 DUP3 ADD DUP1 SWAP3 GT PUSH2 0x731 JUMPI JUMP INVALID LOG2 PUSH5 0x6970667358 0x22 SLT KECCAK256 0xD2 SLT 0x2B SHL 0xE8 MLOAD 0xD8 PC PUSH28 0x80ACA87F4170DED2B1E1095520FBE9E682E554321C275664736F6C63 NUMBER STOP ADDMOD SHR STOP CALLER "},"methodIdentifiers":{"apy()":"3bcfc4b8","asset()":"38d52e0f","currentApy()":"b996de67","deposit(address,uint256)":"47e7ef24","harvest()":"4641257d","healthFactor()":"22841f01","isHealthy()":"e4020804","lastUpdateBlock()":"a218141b","matchingRatio()":"aac3522a","name()":"06fdde03","protocol()":"8ce74426","setVault(address)":"6817031b","supplyRate()":"ad2961a3","totalAssets()":"01e1d114","totalSupplied()":"630fd0ac","updateApy(uint256)":"ff16ef39","updateHealthFactor(uint256)":"8770ccc7","updateSupplyRate(uint256)":"0c191763","vault()":"fbfa77cf","withdraw(address,uint256)":"f3fef3a3"}}}}}