{"contracts/YieldGuardFactory.sol":{"YieldGuardFactory":{"abi":[{"inputs":[],"stateMutability":"nonpayable","type":"constructor"},{"anonymous":false,"inputs":[{"indexed":true,"internalType":"address","name":"vault","type":"address"},{"indexed":false,"internalType":"string","name":"name","type":"string"},{"indexed":false,"internalType":"address","name":"asset","type":"address"},{"indexed":false,"internalType":"address","name":"aaveStrategy","type":"address"},{"indexed":false,"internalType":"address","name":"morphoStrategy","type":"address"},{"indexed":false,"internalType":"uint256","name":"timestamp","type":"uint256"}],"name":"VaultDeployed","type":"event"},{"inputs":[{"internalType":"string","name":"_name","type":"string"},{"internalType":"address","name":"_asset","type":"address"},{"internalType":"uint256","name":"_performanceFee","type":"uint256"}],"name":"deployVault","outputs":[{"internalType":"address","name":"","type":"address"}],"stateMutability":"nonpayable","type":"function"},{"inputs":[],"name":"getVaultCount","outputs":[{"internalType":"uint256","name":"","type":"uint256"}],"stateMutability":"view","type":"function"},{"inputs":[],"name":"getVaults","outputs":[{"internalType":"address[]","name":"","type":"address[]"}],"stateMutability":"view","type":"function"},{"inputs":[{"internalType":"address","name":"","type":"address"}],"name":"isVaultFromFactory","outputs":[{"internalType":"bool","name":"","type":"bool"}],"stateMutability":"view","type":"function"},{"inputs":[],"name":"owner","outputs":[{"internalType":"address","name":"","type":"address"}],"stateMutability":"view","type":"function"},{"inputs":[],"name":"vaultCount","outputs":[{"internalType":"uint256","name":"","type":"uint256"}],"stateMutability":"view","type":"function"},{"inputs":[{"internalType":"uint256","name":"","type":"uint256"}],"name":"vaults","outputs":[{"internalType":"address","name":"","type":"address"}],"stateMutability":"view","type":"function"}],"evm":{"bytecode":{"linkReferences":{},"object":"60808060405234602757600080546001600160a01b03191633179055613f62908161002d8239f35b600080fdfe608080604052600436101561001357600080fd5b600090813560e01c908163147b868e14610225575080632f6071c7146101df57806344d00f821461011757806374d4e491146100f95780638c64ea4a146100b55780638da5cb5b1461008e5763a7c6a1001461006e57600080fd5b3461008b578060031936011261008b576020600154604051908152f35b80fd5b503461008b578060031936011261008b57546040516001600160a01b039091168152602090f35b503461008b57602036600319011261008b576004359060025482101561008b5760206100e083610688565b905460405160039290921b1c6001600160a01b03168152f35b503461008b578060031936011261008b576020600154604051908152f35b503461008b578060031936011261008b5760405180602060025491828152018091600285527f405787fa12a823e0f2b7631cc41b3ba8828b3321ca811111fa75cd3aa3bb5ace90855b8181106101c05750505082610176910383610650565b604051928392602084019060208552518091526040840192915b81811061019e575050500390f35b82516001600160a01b0316845285945060209384019390920191600101610190565b82546001600160a01b0316845260209093019260019283019201610160565b503461008b57602036600319011261008b576004356001600160a01b038116908190036102215760408260ff9260209452600384522054166040519015158152f35b5080fd5b823461008b57606036600319011261008b5760043567ffffffffffffffff811161022157366023820112156102215780600401359067ffffffffffffffff821161063c5761027d601f8301601f191660200185610650565b81845236602483830101116105f75781839260246020930183870137840101526024356001600160a01b03811690819003610221576040516120f98082019082821067ffffffffffffffff8311176105fb579082916106fb8339606081526102e860608201876106b9565b908460208201526040604435910152039083f091821561063057604051610be18082019082821067ffffffffffffffff83111761061c5760209183916127f4833985815203019082f092831561060f57604051610b588082019082821067ffffffffffffffff8311176105fb5760209183916133d5833986815203019083f093841561058e576001600160a01b0391821694911690813b156105f757604051636817031b60e01b815260048101869052838160248183875af180156105ec576105d8575b506001600160a01b031691823b1561008b57604051636817031b60e01b815260048101869052818160248183885af1801561058e579082916105c3575b5050843b1561008b5760405163223e547960e01b8152600481018390528181602481838a5af1801561058e579082916105ae575b5050843b1561008b5760405163223e547960e01b8152600481018490528181602481838a5af1801561058e57908291610599575b5050843b1561008b5760405163f2fde38b60e01b81523360048201528181602481838a5af1801561058e57908291610579575b505060025468010000000000000000811015610565578060016104aa9201600255610688565b8154600391821b88811b6001600160a01b0390911b199091161790915585825260205260408120805460ff191660019081179091555490600019821461055157509484937f251794e28ac8bd0808109c2f23fb1637ebdde918c6ee5d8d77d7973f4bb4a97a936105319360016020990160015560405194859460a0865260a08601906106b9565b9289850152604084015260608301524260808301520390a2604051908152f35b634e487b7160e01b81526011600452602490fd5b634e487b7160e01b82526041600452602482fd5b8161058391610650565b61008b578087610484565b6040513d84823e3d90fd5b816105a391610650565b61008b578087610451565b816105b891610650565b61008b57808761041d565b816105cd91610650565b61008b5780876103e9565b836105e591949294610650565b91866103ac565b6040513d86823e3d90fd5b8280fd5b634e487b7160e01b85526041600452602485fd5b50604051903d90823e3d90fd5b634e487b7160e01b84526041600452602484fd5b604051903d90823e3d90fd5b634e487b7160e01b83526041600452602483fd5b90601f8019910116810190811067ffffffffffffffff82111761067257604052565b634e487b7160e01b600052604160045260246000fd5b6002548110156106a357600260005260206000200190600090565b634e487b7160e01b600052603260045260246000fd5b919082519283825260005b8481106106e5575050826000602080949584010152601f8019910116010190565b806020809284010151828286010152016106c456fe608060405234610253576120f9803803806100198161026d565b9283398101906060818303126102535780516001600160401b03811161025357810182601f82011215610253578051906001600160401b03821161023d5761006a601f8301601f191660200161026d565b93828552602083830101116102535760005b82811061025857505060206000918401015260208101519060018060a01b0382168092036102535760400151600080546001600160a01b0319163317905582519091906001600160401b03811161023d57600154600181811c91168015610233575b602082101461021d57601f81116101b8575b506020601f82116001146101515781929394600092610146575b50508160011b916000199060031b1c1916176001555b600280546001600160a01b031916919091179055600655604051611e6690816102938239f35b01519050388061010a565b601f198216906001600052806000209160005b8181106101a057509583600195969710610187575b505050811b01600155610120565b015160001960f88460031b161c19169055388080610179565b9192602060018192868b015181550194019201610164565b60016000527fb10e2d527612073b26eecdfd717e6a320cf44b4afac2b0732d9fcbe2b7fa0cf6601f830160051c81019160208410610213575b601f0160051c01905b81811061020757506100f0565b600081556001016101fa565b90915081906101f1565b634e487b7160e01b600052602260045260246000fd5b90607f16906100de565b634e487b7160e01b600052604160045260246000fd5b600080fd5b8060208092840101518282880101520161007c565b6040519190601f01601f191682016001600160401b0381118382101761023d5760405256fe6080604052600436101561001257600080fd5b60003560e01c80630598da511461185c5780630ace9ca01461171a578063175188e81461159357806322068b4414611575578063223e54791461144d57806322841f011461143257806327e235e3146113f85780632e1a7d4d14610f255780632e8ebaae14610ee657806338d52e0f14610ebd5780633a98ef3914610e9f578063476343ee14610db6578063486b9f8814610d7c5780634ef2a64f14610d42578063587f5ed714610d245780635915e15d14610a955780636e973f361461087557806370a0823114610852578063872697291461083757806387788782146108195780638da5cb5b146107f05780638ed955b9146107cd578063b3f865f7146104a6578063b49a60bb146103da578063b6b55f2514610262578063d574ea3d14610220578063d73792a914610203578063f2fde38b1461017e5763f88c6b831461015b57600080fd5b34610179576000366003190112610179576020600454604051908152f35b600080fd5b3461017957602036600319011261017957610197611a0d565b600054906101af336001600160a01b03841614611a76565b6001600160a01b03169081156101cf576001600160a01b03191617600055005b60405162461bcd60e51b815260206004820152600c60248201526b5a65726f206164647265737360a01b6044820152606490fd5b346101795760003660031901126101795760206040516127108152f35b346101795760203660031901126101795760043560095481101561017957610249602091611a45565b905460405160039290921b1c6001600160a01b03168152f35b346101795760203660031901126101795760043580156103a6576002546040516323b872dd60e01b8152336004820152306024820152604481018390529190602090839060649082906000906001600160a01b03165af191821561039a576020926102d59160009161036d575b50611c28565b600354806103515750805b336000526007835260406000206102f8838254611c66565b905561030682600354611c66565b60035561031581600454611c66565b60045560405190815281838201527f73a19dd210f1a7f902193214c0ee91dd35ee5b4d920cba8d519eca65a7b488ca60403392a2604051908152f35b61035e6103679183611bdd565b60045490611bf0565b906102e0565b61038d9150843d8611610393575b6103858183611a23565b810190611c10565b846102cf565b503d61037b565b6040513d6000823e3d90fd5b60405162461bcd60e51b815260206004820152600c60248201526b16995c9bc819195c1bdcda5d60a21b6044820152606490fd5b34610179576000366003190112610179576040518060206009549283815201809260096000527f6e1540171b6c0c960b71a7020d9f60077f6af931a8bbf590da0223dacf75c7af9060005b818110610487575050508161043b910382611a23565b6040519182916020830190602084525180915260408301919060005b818110610465575050500390f35b82516001600160a01b0316845285945060209384019390920191600101610457565b82546001600160a01b0316845260209093019260019283019201610425565b34610179576060366003190112610179576104bf611a0d565b6024356001600160a01b0381169182820361017957604435906104ed60018060a01b03600054163314611a76565b6104f5611cf5565b506001600160a01b03166000818152600a602052604090205490929060ff16806107b5575b61052390611aae565b838314610780576040516278744560e21b8152602081600481875afa90811561039a5760009161074e575b5082116107105760025460405163f3fef3a360e01b81526001600160a01b03909116600482015260248101929092526020826044816000875af191821561039a576000926106d8575b5060025460405163a9059cbb60e01b81526001600160a01b039283166004820152602481018490529160209183916044918391600091165af1801561039a576105e7916000916106b95750611c28565b6002546040516311f9fbc960e21b81526001600160a01b039091166004820152602481018290526020816044816000885af1801561039a57610686575b506020907f1427d1942829759938581ce754fd0f7f116bfb7a4b77f80f0cb32cd62c2138c792600052600b82526040600020610661828254611aed565b905583600052600b8252604060002061067b828254611c66565b9055604051908152a2005b906020823d6020116106b1575b816106a060209383611a23565b810103126101795790506020610624565b3d9150610693565b6106d2915060203d602011610393576103858183611a23565b856102cf565b90916020823d602011610708575b816106f360209383611a23565b81010312610705575051906020610597565b80fd5b3d91506106e6565b60405162461bcd60e51b8152602060048201526016602482015275496e73756666696369656e7420696e20736f7572636560501b6044820152606490fd5b90506020813d602011610778575b8161076960209383611a23565b8101031261017957518561054e565b3d915061075c565b60405162461bcd60e51b815260206004820152600d60248201526c53616d6520737472617465677960981b6044820152606490fd5b506000848152600a602052604090205460ff1661051a565b346101795760003660031901126101795760206107e8611cf5565b604051908152f35b34610179576000366003190112610179576000546040516001600160a01b039091168152602090f35b34610179576000366003190112610179576020600654604051908152f35b346101795760003660031901126101795760206107e8611cb1565b346101795760203660031901126101795760206107e8610870611a0d565b611c73565b34610179576020366003190112610179576001600160a01b03610896611a0d565b1680600052600a6020526108b160ff60406000205416611aae565b6040516322841f0160e01b8152602081600481855afa801561039a57600090610a5b575b670de0b6b3a764000091501015610a26576040516278744560e21b8152602081600481855afa90811561039a576000916109f4575b5080156109c35760025460405163f3fef3a360e01b81526001600160a01b03909116600482015260248101919091526020816044816000865af190811561039a57600091610990575b5060207fdd42ff4f19dcdbfff4cefe836b953fce452bce2e1d4b6af171036824ed3d67d89183600052600b8252604060002061067b828254611aed565b906020823d6020116109bb575b816109aa60209383611a23565b810103126107055750516020610953565b3d915061099d565b60405162461bcd60e51b81526020600482015260096024820152684e6f2061737365747360b81b6044820152606490fd5b906020823d602011610a1e575b81610a0e60209383611a23565b810103126107055750518261090a565b3d9150610a01565b60405162461bcd60e51b815260206004820152600d60248201526c4846207374696c6c207361666560981b6044820152606490fd5b506020813d602011610a8d575b81610a7560209383611a23565b8101031261017957670de0b6b3a764000090516108d5565b3d9150610a68565b3461017957604036600319011261017957610aae611a0d565b602435610ac660018060a01b03600054163314611a76565b610ace611cf5565b5060018060a01b0382169182600052600a602052610af360ff60406000205416611aae565b6002546040516370a0823160e01b815230600482015290602090829060249082906001600160a01b03165afa90811561039a57600091610cf2575b508211610cad57602082610b949285600052600b83526040600020610b54838254611c66565b905560025460405163a9059cbb60e01b81526001600160a01b03928316600482015260248101939093529193849290911690829060009082906044820190565b03925af190811561039a57600091610c8e575b5015610c49576002546040516311f9fbc960e21b81526001600160a01b039091166004820152602481018290526020816044816000875af1801561039a57610c18575b5060207f1427d1942829759938581ce754fd0f7f116bfb7a4b77f80f0cb32cd62c2138c791604051908152a2005b6020813d602011610c41575b81610c3160209383611a23565b8101031261017957506020610bea565b3d9150610c24565b60405162461bcd60e51b815260206004820152601b60248201527f5472616e7366657220746f207374726174656779206661696c656400000000006044820152606490fd5b610ca7915060203d602011610393576103858183611a23565b83610ba7565b60405162461bcd60e51b815260206004820152601860248201527f496e73756666696369656e742069646c652061737365747300000000000000006044820152606490fd5b90506020813d602011610d1c575b81610d0d60209383611a23565b81010312610179575184610b2e565b3d9150610d00565b34610179576000366003190112610179576020600554604051908152f35b34610179576020366003190112610179576001600160a01b03610d63611a0d565b16600052600b6020526020604060002054604051908152f35b34610179576020366003190112610179576001600160a01b03610d9d611a0d565b1660005260086020526020604060002054604051908152f35b3461017957600036600319011261017957600054610e2a906020906001600160a01b0316610de5338214611a76565b6005805460009182905560025460405163a9059cbb60e01b81526001600160a01b03948516600482015260248101929092529094859390911691839182906044820190565b03925af190811561039a57600091610e80575b5015610e4557005b60405162461bcd60e51b8152602060048201526013602482015272119959481d1c985b9cd9995c8819985a5b1959606a1b6044820152606490fd5b610e99915060203d602011610393576103858183611a23565b81610e3d565b34610179576000366003190112610179576020600354604051908152f35b34610179576000366003190112610179576002546040516001600160a01b039091168152602090f35b34610179576020366003190112610179576001600160a01b03610f07611a0d565b16600052600a602052602060ff604060002054166040519015158152f35b3461017957602036600319011261017957600435801515806113e0575b156113a557610f5f610f5660045483611bdd565b60035490611bf0565b908115611372576002546040516370a0823160e01b815230600482015290602090829060249082906001600160a01b03165afa90811561039a57600091611340575b5082811061108c575b50903360005260076020526040600020610fc5838254611aed565b9055610fd382600354611aed565b600355610fe281600454611aed565b600490815560025460405163a9059cbb60e01b8152339281019290925260248201839052909290602090849060449082906000906001600160a01b03165af192831561039a5760209361103c916000916110755750611c28565b60405190828252838201527f92ccf450a286a957af52509bc1c9939d1a6a481783e142e41e2499f0bb66ebc660403392a2604051908152f35b6106d29150853d8711610393576103858183611a23565b6110969083611aed565b6000905b600954821015611338576110ad82611a45565b60018060a01b0391549060031b1c16600052600a60205260ff604060002054161561132f57600460206110df84611a45565b90546040516278744560e21b81529384929091839160031b1c6001600160a01b03165afa90811561039a576000916112fe575b5080156112f45761117e9190808210156112ec57506020815b61113485611a45565b905460025460405163f3fef3a360e01b81526001600160a01b03918216600482015260248101949094529295869360039390931b9190911c90911690829060009082906044820190565b03925af191821561039a576000926112b9575b5061119b83611a45565b60018060a01b0391549060031b1c16600052600b60205260406000206111c2838254611aed565b9055808210156111e1576001916111d891611aed565b915b019061109a565b505050905b6002546040516370a0823160e01b815230600482015290602090829060249082906001600160a01b03165afa801561039a578291600091611284575b501061122f579082610faa565b60405162461bcd60e51b815260206004820152602760248201527f496e73756666696369656e74206c6971756964697479206166746572207769746044820152661a191c985dd85b60ca1b6064820152608490fd5b9150506020813d6020116112b1575b816112a060209383611a23565b810103126101795781905184611222565b3d9150611293565b90916020823d82116112e4575b816112d360209383611a23565b810103126107055750519085611191565b3d91506112c6565b60209061112b565b50906001906111da565b906020823d8211611327575b8161131760209383611a23565b8101031261070557505185611112565b3d915061130a565b906001906111da565b5050906111e6565b906020823d60201161136a575b8161135a60209383611a23565b8101031261070557505183610fa1565b3d915061134d565b60405162461bcd60e51b815260206004820152600b60248201526a5a65726f2061737365747360a81b6044820152606490fd5b60405162461bcd60e51b8152602060048201526013602482015272496e73756666696369656e742073686172657360681b6044820152606490fd5b50336000526007602052806040600020541015610f42565b34610179576020366003190112610179576001600160a01b03611419611a0d565b1660005260076020526020604060002054604051908152f35b346101795760003660031901126101795760206107e8611afa565b3461017957602036600319011261017957611466611a0d565b61147b60018060a01b03600054163314611a76565b6001600160a01b0381166000818152600a602052604090205490919060ff166115405781600052600a6020526040600020600160ff19825416179055600954906801000000000000000082101561152a576114df8260016115039401600955611a45565b81546001600160a01b0393841660039290921b91821b9390911b1916919091179055565b7f3f008fd510eae7a9e7bee13513d7b83bef8003d488b5a3d0b0da4de71d6846f1600080a2005b634e487b7160e01b600052604160045260246000fd5b60405162461bcd60e51b815260206004820152600d60248201526c105b1c9958591e481859191959609a1b6044820152606490fd5b34610179576000366003190112610179576020600954604051908152f35b34610179576020366003190112610179576115ac611a0d565b6115c160018060a01b03600054163314611a76565b6001600160a01b03166000818152600a602052604090205460ff16156116e9576000818152600a60205260408120805460ff191690555b60095490818110156116e2578261160e82611a45565b905460039190911b1c6001600160a01b03161461162f5760019150016115f8565b60001982019182116116cc576114df61164a61166293611a45565b905460039190911b1c6001600160a01b031691611a45565b60095480156116b6576000190161167881611a45565b81549060018060a01b039060031b1b191690556009555b7f09a1db4b80c32706328728508c941a6b954f31eb5affd32f236c1fd405f8fea4600080a2005b634e487b7160e01b600052603160045260246000fd5b634e487b7160e01b600052601160045260246000fd5b505061168f565b60405162461bcd60e51b8152602060048201526009602482015268139bdd08199bdd5b9960ba1b6044820152606490fd5b34610179576000366003190112610179576040516000600154908160011c91600181168015611852575b60208410811461183e57838552849291811561181f57506001146117be575b61176f92500382611a23565b60405190602082528181519182602083015260005b8381106117a65750508160006040809484010152601f80199101168101030190f35b60208282018101516040878401015285935001611784565b509060016000527fb10e2d527612073b26eecdfd717e6a320cf44b4afac2b0732d9fcbe2b7fa0cf6906000915b81831061180357505090602061176f92820101611763565b60209193508060019154838588010152019101909183926117eb565b6020925061176f94915060ff191682840152151560051b820101611763565b634e487b7160e01b83526022600452602483fd5b92607f1692611744565b3461017957604036600319011261017957611875611a0d565b6024359061188e60018060a01b03600054163314611a76565b611896611cf5565b5060018060a01b03169081600052600a6020526118ba60ff60406000205416611aae565b6040516278744560e21b8152602081600481865afa90811561039a576000916119db575b5081116119965760025460405163f3fef3a360e01b81526001600160a01b03909116600482015260248101919091526020816044816000865af190811561039a57600091611963575b60007f1427d1942829759938581ce754fd0f7f116bfb7a4b77f80f0cb32cd62c2138c7602084868452600b82526040842061067b828254611aed565b906020823d60201161198e575b8161197d60209383611a23565b810103126107055750516020611927565b3d9150611970565b60405162461bcd60e51b815260206004820152601860248201527f496e73756666696369656e7420696e20737472617465677900000000000000006044820152606490fd5b90506020813d602011611a05575b816119f660209383611a23565b810103126101795751836118de565b3d91506119e9565b600435906001600160a01b038216820361017957565b90601f8019910116810190811067ffffffffffffffff82111761152a57604052565b600954811015611a6057600960005260206000200190600090565b634e487b7160e01b600052603260045260246000fd5b15611a7d57565b60405162461bcd60e51b81526020600482015260096024820152682737ba1037bbb732b960b91b6044820152606490fd5b15611ab557565b60405162461bcd60e51b815260206004820152601060248201526f496e76616c696420737472617465677960801b6044820152606490fd5b919082039182116116cc57565b6009548015611bd6576000199060005b818110611b1657505090565b611b1f81611a45565b60018060a01b0391549060031b1c16600052600a60205260ff60406000205416611b4c575b600101611b0a565b60046020611b5983611a45565b90546040516322841f0160e01b81529384929091839160031b1c6001600160a01b03165afa90811561039a57600091611ba5575b50838110611b9c575b50611b44565b92506001611b96565b906020823d8211611bce575b81611bbe60209383611a23565b8101031261070557505138611b8d565b3d9150611bb1565b5060001990565b818102929181159184041417156116cc57565b8115611bfa570490565b634e487b7160e01b600052601260045260246000fd5b90816020910312610179575180151581036101795790565b15611c2f57565b60405162461bcd60e51b815260206004820152600f60248201526e151c985b9cd9995c8819985a5b1959608a1b6044820152606490fd5b919082018092116116cc57565b6003548015611caa57611ca79160018060a01b03166000526007602052611ca260406000205460045490611bdd565b611bf0565b90565b5050600090565b6003548015611ce85760045490670de0b6b3a7640000820291808304670de0b6b3a764000014901517156116cc57611ca791611bf0565b50670de0b6b3a764000090565b60009060005b600954811015611dd857611d0e81611a45565b60018060a01b0391549060031b1c16600052600a60205260ff60406000205416611d3b575b600101611cfb565b6000926020611d4983611a45565b9054604051634641257d60e01b815296879260049284929160031b1c6001600160a01b03165af193841561039a57600094611da3575b5090611d99611d9085600194611c66565b94600454611c66565b6004559050611d33565b90936020823d8211611dd0575b81611dbd60209383611a23565b8101031261070557505192611d99611d7f565b3d9150611db0565b5081611de057565b7ffa07446fad45314351eb89109a154880278451332bb87f1824d435fe58da59396040612710611e1260065486611bdd565b04611e1f81600554611c66565b6005558151908582526020820152a156fea264697066735822122041a5d3eaf5149d4d6880fc689c244831ab847e9066b9c45e60f422e4c90cda0164736f6c634300081c003360806040523461039857610be16020813803918261001c8161039d565b93849283398101031261039857516001600160a01b0381169081900361039857610046604061039d565b90600e82526d4161766520563320537570706c7960901b602083015261006c604061039d565b60078152664161766520563360c81b602082015282519091906001600160401b0381116102a357600054600181811c9116801561038e575b602082101461028357601f811161032a575b506020601f82116001146102c457819293946000926102b9575b50508160011b916000199060031b1c1916176000555b81516001600160401b0381116102a357600154600181811c91168015610299575b602082101461028357601f811161021e575b50602092601f82116001146101b957928192936000926101ae575b50508160011b916000199060031b1c1916176001555b600380546001600160a01b031990811692909217905560028054909116331790556722b1c8c1227a000060065566dc44abe81300006008819055600555670b1a2bc2ec5000006009556709b6e64a8ec60000600a5560405161081e90816103c38239f35b015190503880610134565b601f198216936001600052806000209160005b86811061020657508360019596106101ed575b505050811b0160015561014a565b015160001960f88460031b161c191690553880806101df565b919260206001819286850151815501940192016101cc565b60016000527fb10e2d527612073b26eecdfd717e6a320cf44b4afac2b0732d9fcbe2b7fa0cf6601f830160051c81019160208410610279575b601f0160051c01905b81811061026d5750610119565b60008155600101610260565b9091508190610257565b634e487b7160e01b600052602260045260246000fd5b90607f1690610107565b634e487b7160e01b600052604160045260246000fd5b0151905038806100d0565b601f1982169060008052806000209160005b818110610312575095836001959697106102f9575b505050811b016000556100e6565b015160001960f88460031b161c191690553880806102eb565b9192602060018192868b0151815501940192016102d6565b600080527f290decd9548b62a8d60345a988386fc84ba6bc95484008f6362f93160ef3e563601f830160051c81019160208410610384575b601f0160051c01905b81811061037857506100b6565b6000815560010161036b565b9091508190610362565b90607f16906100a4565b600080fd5b6040519190601f01601f191682016001600160401b038111838210176102a35760405256fe608080604052600436101561001357600080fd5b60003560e01c90816301e1d114146106d25750806306fdde03146106185780630c191763146105fa57806322841f01146105dc57806323a4deb5146105b657806338d52e0f1461058d5780633bcfc4b81461023d5780634031234c1461056f5780634641257d146104bb57806347e7ef24146104615780636817031b146104045780636fb49d73146103e65780638770ccc7146103b85780638ce7442614610297578063a218141b14610279578063ad2961a31461025b578063b996de671461023d578063e402080414610214578063e9a37738146101f6578063f3fef3a314610158578063fbfa77cf1461012f5763ff16ef391461011157600080fd5b3461012a57602036600319011261012a57600435600555005b600080fd5b3461012a57600036600319011261012a576002546040516001600160a01b039091168152602090f35b3461012a57604036600319011261012a57610171610736565b5060243561018a60018060a01b03600254163314610795565b600b54908181116101bb576101a1816020936107ce565b600b556101b0816004546107ce565b600455604051908152f35b60405162461bcd60e51b815260206004820152601360248201527224b739bab33334b1b4b2b73a1030aa37b5b2b760691b6044820152606490fd5b3461012a57600036600319011261012a576020600b54604051908152f35b3461012a57600036600319011261012a5760206714d1120d7b1600006006541015604051908152f35b3461012a57600036600319011261012a576020600554604051908152f35b3461012a57600036600319011261012a576020600854604051908152f35b3461012a57600036600319011261012a576020600754604051908152f35b3461012a57600036600319011261012a576000604051816001548060011c906001811680156103ae575b60208310811461039a5782855290811561037e575060011461032a575b50819003601f01601f1916810167ffffffffffffffff811182821017610316576103129250604052604051918291826106ed565b0390f35b634e487b7160e01b83526041600452602483fd5b600184529050827fb10e2d527612073b26eecdfd717e6a320cf44b4afac2b0732d9fcbe2b7fa0cf65b828210610368575060209150820101836102de565b6001816020925483858801015201910190610353565b90506020925060ff191682840152151560051b820101836102de565b634e487b7160e01b86526022600452602486fd5b91607f16916102c1565b3461012a57602036600319011261012a576103de60018060a01b03600254163314610795565b600435600655005b3461012a57600036600319011261012a576020600a54604051908152f35b3461012a57602036600319011261012a5761041d610736565b600254906001600160a01b0382168015908115610457575b501561012a576001600160a01b03166001600160a01b03199190911617600255005b9050331483610435565b3461012a57604036600319011261012a5761047a610736565b50602060243561049560018060a01b03600254163314610795565b6104a1816004546107db565b6004556104b081600b546107db565b600b55604051908152f35b3461012a57600036600319011261012a576104e160018060a01b03600254163314610795565b602060006104f1600754436107ce565b80151580610564575b61050c575b5043600755604051908152f35b6a12a201671c8c4641080000610530600b549261052b6008548561074c565b61074c565b04908161053e575b506104ff565b8192509061054b916107db565b600b5561055a816004546107db565b6004558280610538565b50600b5415156104fa565b3461012a57600036600319011261012a576020600954604051908152f35b3461012a57600036600319011261012a576003546040516001600160a01b039091168152602090f35b3461012a57602036600319011261012a5760206105d4600435610775565b604051908152f35b3461012a57600036600319011261012a576020600654604051908152f35b3461012a57602036600319011261012a576004356008819055600555005b3461012a57600036600319011261012a5760006040518182548060011c906001811680156106c8575b60208310811461039a5782855290811561037e57506001146106915750819003601f01601f1916810167ffffffffffffffff811182821017610316576103129250604052604051918291826106ed565b90508280526020832083905b8282106106b2575060209150820101836102de565b600181602092548385880101520191019061069d565b91607f1691610641565b3461012a57600036600319011261012a576020906004548152f35b91909160208152825180602083015260005b818110610720575060409293506000838284010152601f8019910116010190565b80602080928701015160408286010152016106ff565b600435906001600160a01b038216820361012a57565b8181029291811591840414171561075f57565b634e487b7160e01b600052601160045260246000fd5b801561078e5761078a600b546009549061074c565b0490565b5060001990565b1561079c57565b60405162461bcd60e51b815260206004820152600a60248201526913db9b1e481d985d5b1d60b21b6044820152606490fd5b9190820391821161075f57565b9190820180921161075f5756fea2646970667358221220a5f2980e968b43f2365ebc6c72d7d768c9d10b05bc080a629c8619ff2dc0930c64736f6c634300081c003360806040523461039057610b586020813803918261001c81610395565b93849283398101031261039057516001600160a01b03811690819003610390576100466040610395565b9060128252714d6f7270686f20426c756520537570706c7960701b60208301526100706040610395565b60068152654d6f7270686f60d01b602082015282519091906001600160401b03811161029b57600054600181811c91168015610386575b602082101461027b57601f8111610322575b506020601f82116001146102bc57819293946000926102b1575b50508160011b916000199060031b1c1916176000555b81516001600160401b03811161029b57600154600181811c91168015610291575b602082101461027b57601f8111610216575b50602092601f82116001146101b157928192936000926101a6575b50508160011b916000199060031b1c1916176001555b600380546001600160a01b031990811692909217905560028054909116331790556722b1c8c1227a000060065567013c3107490280006008819055600555670bcbce7f1b15000060095560405161079d90816103bb8239f35b015190503880610137565b601f198216936001600052806000209160005b8681106101fe57508360019596106101e5575b505050811b0160015561014d565b015160001960f88460031b161c191690553880806101d7565b919260206001819286850151815501940192016101c4565b60016000527fb10e2d527612073b26eecdfd717e6a320cf44b4afac2b0732d9fcbe2b7fa0cf6601f830160051c81019160208410610271575b601f0160051c01905b818110610265575061011c565b60008155600101610258565b909150819061024f565b634e487b7160e01b600052602260045260246000fd5b90607f169061010a565b634e487b7160e01b600052604160045260246000fd5b0151905038806100d3565b601f1982169060008052806000209160005b81811061030a575095836001959697106102f1575b505050811b016000556100e9565b015160001960f88460031b161c191690553880806102e3565b9192602060018192868b0151815501940192016102ce565b600080527f290decd9548b62a8d60345a988386fc84ba6bc95484008f6362f93160ef3e563601f830160051c8101916020841061037c575b601f0160051c01905b81811061037057506100b9565b60008155600101610363565b909150819061035a565b90607f16906100a7565b600080fd5b6040519190601f01601f191682016001600160401b0381118382101761029b5760405256fe608080604052600436101561001357600080fd5b60003560e01c90816301e1d114146106715750806306fdde03146105b75780630c1917631461059957806322841f011461057b57806338d52e0f146105525780633bcfc4b8146102025780634641257d1461049e57806347e7ef2414610444578063630fd0ac146104265780636817031b146103c95780638770ccc71461039b5780638ce744261461027a578063a218141b1461025c578063aac3522a1461023e578063ad2961a314610220578063b996de6714610202578063e4020804146101d9578063f3fef3a314610142578063fbfa77cf146101195763ff16ef39146100fb57600080fd5b3461011457602036600319011261011457600435600555005b600080fd5b34610114576000366003190112610114576002546040516001600160a01b039091168152602090f35b346101145760403660031901126101145761015b6106d5565b5060243561017460018060a01b036002541633146106eb565b600a54908181116101a55761018b81602093610724565b600a5561019a81600454610724565b600455604051908152f35b60405162461bcd60e51b815260206004820152600c60248201526b125b9cdd59999a58da595b9d60a21b6044820152606490fd5b346101145760003660031901126101145760206714d1120d7b1600006006541015604051908152f35b34610114576000366003190112610114576020600554604051908152f35b34610114576000366003190112610114576020600854604051908152f35b34610114576000366003190112610114576020600954604051908152f35b34610114576000366003190112610114576020600754604051908152f35b34610114576000366003190112610114576000604051816001548060011c90600181168015610391575b60208310811461037d57828552908115610361575060011461030d575b50819003601f01601f1916810167ffffffffffffffff8111828210176102f9576102f592506040526040519182918261068c565b0390f35b634e487b7160e01b83526041600452602483fd5b600184529050827fb10e2d527612073b26eecdfd717e6a320cf44b4afac2b0732d9fcbe2b7fa0cf65b82821061034b575060209150820101836102c1565b6001816020925483858801015201910190610336565b90506020925060ff191682840152151560051b820101836102c1565b634e487b7160e01b86526022600452602486fd5b91607f16916102a4565b34610114576020366003190112610114576103c160018060a01b036002541633146106eb565b600435600655005b34610114576020366003190112610114576103e26106d5565b600254906001600160a01b038216801590811561041c575b5015610114576001600160a01b03166001600160a01b03199190911617600255005b90503314836103fa565b34610114576000366003190112610114576020600a54604051908152f35b346101145760403660031901126101145761045d6106d5565b50602060243561047860018060a01b036002541633146106eb565b6104848160045461075a565b60045561049381600a5461075a565b600a55604051908152f35b34610114576000366003190112610114576104c460018060a01b036002541633146106eb565b602060006104d460075443610724565b80151580610547575b6104ef575b5043600755604051908152f35b6a12a201671c8c4641080000610513600a549261050e60085485610747565b610747565b049081610521575b506104e2565b8192509061052e9161075a565b600a5561053d8160045461075a565b600455828061051b565b50600a5415156104dd565b34610114576000366003190112610114576003546040516001600160a01b039091168152602090f35b34610114576000366003190112610114576020600654604051908152f35b34610114576020366003190112610114576004356008819055600555005b346101145760003660031901126101145760006040518182548060011c90600181168015610667575b60208310811461037d5782855290811561036157506001146106305750819003601f01601f1916810167ffffffffffffffff8111828210176102f9576102f592506040526040519182918261068c565b90508280526020832083905b828210610651575060209150820101836102c1565b600181602092548385880101520191019061063c565b91607f16916105e0565b34610114576000366003190112610114576020906004548152f35b91909160208152825180602083015260005b8181106106bf575060409293506000838284010152601f8019910116010190565b806020809287010151604082860101520161069e565b600435906001600160a01b038216820361011457565b156106f257565b60405162461bcd60e51b815260206004820152600a60248201526913db9b1e481d985d5b1d60b21b6044820152606490fd5b9190820391821161073157565b634e487b7160e01b600052601160045260246000fd5b8181029291811591840414171561073157565b919082018092116107315756fea2646970667358221220d2122b1be851d8587b80aca87f4170ded2b1e1095520fbe9e682e554321c275664736f6c634300081c0033a2646970667358221220b7394edc966816933f3eb337b7a0df784be006d5fbabdc1f0dd9560bddec709564736f6c634300081c0033","opcodes":"PUSH1 0x80 DUP1 PUSH1 0x40 MSTORE CALLVALUE PUSH1 0x27 JUMPI PUSH1 0x0 DUP1 SLOAD PUSH1 0x1 PUSH1 0x1 PUSH1 0xA0 SHL SUB NOT AND CALLER OR SWAP1 SSTORE PUSH2 0x3F62 SWAP1 DUP2 PUSH2 0x2D DUP3 CODECOPY RETURN JUMPDEST PUSH1 0x0 DUP1 REVERT INVALID PUSH1 0x80 DUP1 PUSH1 0x40 MSTORE PUSH1 0x4 CALLDATASIZE LT ISZERO PUSH2 0x13 JUMPI PUSH1 0x0 DUP1 REVERT JUMPDEST PUSH1 0x0 SWAP1 DUP2 CALLDATALOAD PUSH1 0xE0 SHR SWAP1 DUP2 PUSH4 0x147B868E EQ PUSH2 0x225 JUMPI POP DUP1 PUSH4 0x2F6071C7 EQ PUSH2 0x1DF JUMPI DUP1 PUSH4 0x44D00F82 EQ PUSH2 0x117 JUMPI DUP1 PUSH4 0x74D4E491 EQ PUSH2 0xF9 JUMPI DUP1 PUSH4 0x8C64EA4A EQ PUSH2 0xB5 JUMPI DUP1 PUSH4 0x8DA5CB5B EQ PUSH2 0x8E JUMPI PUSH4 0xA7C6A100 EQ PUSH2 0x6E JUMPI PUSH1 0x0 DUP1 REVERT JUMPDEST CALLVALUE PUSH2 0x8B JUMPI DUP1 PUSH1 0x3 NOT CALLDATASIZE ADD SLT PUSH2 0x8B JUMPI PUSH1 0x20 PUSH1 0x1 SLOAD PUSH1 0x40 MLOAD SWAP1 DUP2 MSTORE RETURN JUMPDEST DUP1 REVERT JUMPDEST POP CALLVALUE PUSH2 0x8B JUMPI DUP1 PUSH1 0x3 NOT CALLDATASIZE ADD SLT PUSH2 0x8B JUMPI SLOAD PUSH1 0x40 MLOAD PUSH1 0x1 PUSH1 0x1 PUSH1 0xA0 SHL SUB SWAP1 SWAP2 AND DUP2 MSTORE PUSH1 0x20 SWAP1 RETURN JUMPDEST POP CALLVALUE PUSH2 0x8B JUMPI PUSH1 0x20 CALLDATASIZE PUSH1 0x3 NOT ADD SLT PUSH2 0x8B JUMPI PUSH1 0x4 CALLDATALOAD SWAP1 PUSH1 0x2 SLOAD DUP3 LT ISZERO PUSH2 0x8B JUMPI PUSH1 0x20 PUSH2 0xE0 DUP4 PUSH2 0x688 JUMP JUMPDEST SWAP1 SLOAD PUSH1 0x40 MLOAD PUSH1 0x3 SWAP3 SWAP1 SWAP3 SHL SHR PUSH1 0x1 PUSH1 0x1 PUSH1 0xA0 SHL SUB AND DUP2 MSTORE RETURN JUMPDEST POP CALLVALUE PUSH2 0x8B JUMPI DUP1 PUSH1 0x3 NOT CALLDATASIZE ADD SLT PUSH2 0x8B JUMPI PUSH1 0x20 PUSH1 0x1 SLOAD PUSH1 0x40 MLOAD SWAP1 DUP2 MSTORE RETURN JUMPDEST POP CALLVALUE PUSH2 0x8B JUMPI DUP1 PUSH1 0x3 NOT CALLDATASIZE ADD SLT PUSH2 0x8B JUMPI PUSH1 0x40 MLOAD DUP1 PUSH1 0x20 PUSH1 0x2 SLOAD SWAP2 DUP3 DUP2 MSTORE ADD DUP1 SWAP2 PUSH1 0x2 DUP6 MSTORE PUSH32 0x405787FA12A823E0F2B7631CC41B3BA8828B3321CA811111FA75CD3AA3BB5ACE SWAP1 DUP6 JUMPDEST DUP2 DUP2 LT PUSH2 0x1C0 JUMPI POP POP POP DUP3 PUSH2 0x176 SWAP2 SUB DUP4 PUSH2 0x650 JUMP JUMPDEST PUSH1 0x40 MLOAD SWAP3 DUP4 SWAP3 PUSH1 0x20 DUP5 ADD SWAP1 PUSH1 0x20 DUP6 MSTORE MLOAD DUP1 SWAP2 MSTORE PUSH1 0x40 DUP5 ADD SWAP3 SWAP2 JUMPDEST DUP2 DUP2 LT PUSH2 0x19E JUMPI POP POP POP SUB SWAP1 RETURN JUMPDEST DUP3 MLOAD PUSH1 0x1 PUSH1 0x1 PUSH1 0xA0 SHL SUB AND DUP5 MSTORE DUP6 SWAP5 POP PUSH1 0x20 SWAP4 DUP5 ADD SWAP4 SWAP1 SWAP3 ADD SWAP2 PUSH1 0x1 ADD PUSH2 0x190 JUMP JUMPDEST DUP3 SLOAD PUSH1 0x1 PUSH1 0x1 PUSH1 0xA0 SHL SUB AND DUP5 MSTORE PUSH1 0x20 SWAP1 SWAP4 ADD SWAP3 PUSH1 0x1 SWAP3 DUP4 ADD SWAP3 ADD PUSH2 0x160 JUMP JUMPDEST POP CALLVALUE PUSH2 0x8B JUMPI PUSH1 0x20 CALLDATASIZE PUSH1 0x3 NOT ADD SLT PUSH2 0x8B JUMPI PUSH1 0x4 CALLDATALOAD PUSH1 0x1 PUSH1 0x1 PUSH1 0xA0 SHL SUB DUP2 AND SWAP1 DUP2 SWAP1 SUB PUSH2 0x221 JUMPI PUSH1 0x40 DUP3 PUSH1 0xFF SWAP3 PUSH1 0x20 SWAP5 MSTORE PUSH1 0x3 DUP5 MSTORE KECCAK256 SLOAD AND PUSH1 0x40 MLOAD SWAP1 ISZERO ISZERO DUP2 MSTORE RETURN JUMPDEST POP DUP1 REVERT JUMPDEST DUP3 CALLVALUE PUSH2 0x8B JUMPI PUSH1 0x60 CALLDATASIZE PUSH1 0x3 NOT ADD SLT PUSH2 0x8B JUMPI PUSH1 0x4 CALLDATALOAD PUSH8 0xFFFFFFFFFFFFFFFF DUP2 GT PUSH2 0x221 JUMPI CALLDATASIZE PUSH1 0x23 DUP3 ADD SLT ISZERO PUSH2 0x221 JUMPI DUP1 PUSH1 0x4 ADD CALLDATALOAD SWAP1 PUSH8 0xFFFFFFFFFFFFFFFF DUP3 GT PUSH2 0x63C JUMPI PUSH2 0x27D PUSH1 0x1F DUP4 ADD PUSH1 0x1F NOT AND PUSH1 0x20 ADD DUP6 PUSH2 0x650 JUMP JUMPDEST DUP2 DUP5 MSTORE CALLDATASIZE PUSH1 0x24 DUP4 DUP4 ADD ADD GT PUSH2 0x5F7 JUMPI DUP2 DUP4 SWAP3 PUSH1 0x24 PUSH1 0x20 SWAP4 ADD DUP4 DUP8 ADD CALLDATACOPY DUP5 ADD ADD MSTORE PUSH1 0x24 CALLDATALOAD PUSH1 0x1 PUSH1 0x1 PUSH1 0xA0 SHL SUB DUP2 AND SWAP1 DUP2 SWAP1 SUB PUSH2 0x221 JUMPI PUSH1 0x40 MLOAD PUSH2 0x20F9 DUP1 DUP3 ADD SWAP1 DUP3 DUP3 LT PUSH8 0xFFFFFFFFFFFFFFFF DUP4 GT OR PUSH2 0x5FB JUMPI SWAP1 DUP3 SWAP2 PUSH2 0x6FB DUP4 CODECOPY PUSH1 0x60 DUP2 MSTORE PUSH2 0x2E8 PUSH1 0x60 DUP3 ADD DUP8 PUSH2 0x6B9 JUMP JUMPDEST SWAP1 DUP5 PUSH1 0x20 DUP3 ADD MSTORE PUSH1 0x40 PUSH1 0x44 CALLDATALOAD SWAP2 ADD MSTORE SUB SWAP1 DUP4 CREATE SWAP2 DUP3 ISZERO PUSH2 0x630 JUMPI PUSH1 0x40 MLOAD PUSH2 0xBE1 DUP1 DUP3 ADD SWAP1 DUP3 DUP3 LT PUSH8 0xFFFFFFFFFFFFFFFF DUP4 GT OR PUSH2 0x61C JUMPI PUSH1 0x20 SWAP2 DUP4 SWAP2 PUSH2 0x27F4 DUP4 CODECOPY DUP6 DUP2 MSTORE SUB ADD SWAP1 DUP3 CREATE SWAP3 DUP4 ISZERO PUSH2 0x60F JUMPI PUSH1 0x40 MLOAD PUSH2 0xB58 DUP1 DUP3 ADD SWAP1 DUP3 DUP3 LT PUSH8 0xFFFFFFFFFFFFFFFF DUP4 GT OR PUSH2 0x5FB JUMPI PUSH1 0x20 SWAP2 DUP4 SWAP2 PUSH2 0x33D5 DUP4 CODECOPY DUP7 DUP2 MSTORE SUB ADD SWAP1 DUP4 CREATE SWAP4 DUP5 ISZERO PUSH2 0x58E JUMPI PUSH1 0x1 PUSH1 0x1 PUSH1 0xA0 SHL SUB SWAP2 DUP3 AND SWAP5 SWAP2 AND SWAP1 DUP2 EXTCODESIZE ISZERO PUSH2 0x5F7 JUMPI PUSH1 0x40 MLOAD PUSH4 0x6817031B PUSH1 0xE0 SHL DUP2 MSTORE PUSH1 0x4 DUP2 ADD DUP7 SWAP1 MSTORE DUP4 DUP2 PUSH1 0x24 DUP2 DUP4 DUP8 GAS CALL DUP1 ISZERO PUSH2 0x5EC JUMPI PUSH2 0x5D8 JUMPI JUMPDEST POP PUSH1 0x1 PUSH1 0x1 PUSH1 0xA0 SHL SUB AND SWAP2 DUP3 EXTCODESIZE ISZERO PUSH2 0x8B JUMPI PUSH1 0x40 MLOAD PUSH4 0x6817031B PUSH1 0xE0 SHL DUP2 MSTORE PUSH1 0x4 DUP2 ADD DUP7 SWAP1 MSTORE DUP2 DUP2 PUSH1 0x24 DUP2 DUP4 DUP9 GAS CALL DUP1 ISZERO PUSH2 0x58E JUMPI SWAP1 DUP3 SWAP2 PUSH2 0x5C3 JUMPI JUMPDEST POP POP DUP5 EXTCODESIZE ISZERO PUSH2 0x8B JUMPI PUSH1 0x40 MLOAD PUSH4 0x223E5479 PUSH1 0xE0 SHL DUP2 MSTORE PUSH1 0x4 DUP2 ADD DUP4 SWAP1 MSTORE DUP2 DUP2 PUSH1 0x24 DUP2 DUP4 DUP11 GAS CALL DUP1 ISZERO PUSH2 0x58E JUMPI SWAP1 DUP3 SWAP2 PUSH2 0x5AE JUMPI JUMPDEST POP POP DUP5 EXTCODESIZE ISZERO PUSH2 0x8B JUMPI PUSH1 0x40 MLOAD PUSH4 0x223E5479 PUSH1 0xE0 SHL DUP2 MSTORE PUSH1 0x4 DUP2 ADD DUP5 SWAP1 MSTORE DUP2 DUP2 PUSH1 0x24 DUP2 DUP4 DUP11 GAS CALL DUP1 ISZERO PUSH2 0x58E JUMPI SWAP1 DUP3 SWAP2 PUSH2 0x599 JUMPI JUMPDEST POP POP DUP5 EXTCODESIZE ISZERO PUSH2 0x8B JUMPI PUSH1 0x40 MLOAD PUSH4 0xF2FDE38B PUSH1 0xE0 SHL DUP2 MSTORE CALLER PUSH1 0x4 DUP3 ADD MSTORE DUP2 DUP2 PUSH1 0x24 DUP2 DUP4 DUP11 GAS CALL DUP1 ISZERO PUSH2 0x58E JUMPI SWAP1 DUP3 SWAP2 PUSH2 0x579 JUMPI JUMPDEST POP POP PUSH1 0x2 SLOAD PUSH9 0x10000000000000000 DUP2 LT ISZERO PUSH2 0x565 JUMPI DUP1 PUSH1 0x1 PUSH2 0x4AA SWAP3 ADD PUSH1 0x2 SSTORE PUSH2 0x688 JUMP JUMPDEST DUP2 SLOAD PUSH1 0x3 SWAP2 DUP3 SHL DUP9 DUP2 SHL PUSH1 0x1 PUSH1 0x1 PUSH1 0xA0 SHL SUB SWAP1 SWAP2 SHL NOT SWAP1 SWAP2 AND OR SWAP1 SWAP2 SSTORE DUP6 DUP3 MSTORE PUSH1 0x20 MSTORE PUSH1 0x40 DUP2 KECCAK256 DUP1 SLOAD PUSH1 0xFF NOT AND PUSH1 0x1 SWAP1 DUP2 OR SWAP1 SWAP2 SSTORE SLOAD SWAP1 PUSH1 0x0 NOT DUP3 EQ PUSH2 0x551 JUMPI POP SWAP5 DUP5 SWAP4 PUSH32 0x251794E28AC8BD0808109C2F23FB1637EBDDE918C6EE5D8D77D7973F4BB4A97A SWAP4 PUSH2 0x531 SWAP4 PUSH1 0x1 PUSH1 0x20 SWAP10 ADD PUSH1 0x1 SSTORE PUSH1 0x40 MLOAD SWAP5 DUP6 SWAP5 PUSH1 0xA0 DUP7 MSTORE PUSH1 0xA0 DUP7 ADD SWAP1 PUSH2 0x6B9 JUMP JUMPDEST SWAP3 DUP10 DUP6 ADD MSTORE PUSH1 0x40 DUP5 ADD MSTORE PUSH1 0x60 DUP4 ADD MSTORE TIMESTAMP PUSH1 0x80 DUP4 ADD MSTORE SUB SWAP1 LOG2 PUSH1 0x40 MLOAD SWAP1 DUP2 MSTORE RETURN JUMPDEST PUSH4 0x4E487B71 PUSH1 0xE0 SHL DUP2 MSTORE PUSH1 0x11 PUSH1 0x4 MSTORE PUSH1 0x24 SWAP1 REVERT JUMPDEST PUSH4 0x4E487B71 PUSH1 0xE0 SHL DUP3 MSTORE PUSH1 0x41 PUSH1 0x4 MSTORE PUSH1 0x24 DUP3 REVERT JUMPDEST DUP2 PUSH2 0x583 SWAP2 PUSH2 0x650 JUMP JUMPDEST PUSH2 0x8B JUMPI DUP1 DUP8 PUSH2 0x484 JUMP JUMPDEST PUSH1 0x40 MLOAD RETURNDATASIZE DUP5 DUP3 RETURNDATACOPY RETURNDATASIZE SWAP1 REVERT JUMPDEST DUP2 PUSH2 0x5A3 SWAP2 PUSH2 0x650 JUMP JUMPDEST PUSH2 0x8B JUMPI DUP1 DUP8 PUSH2 0x451 JUMP JUMPDEST DUP2 PUSH2 0x5B8 SWAP2 PUSH2 0x650 JUMP JUMPDEST PUSH2 0x8B JUMPI DUP1 DUP8 PUSH2 0x41D JUMP JUMPDEST DUP2 PUSH2 0x5CD SWAP2 PUSH2 0x650 JUMP JUMPDEST PUSH2 0x8B JUMPI DUP1 DUP8 PUSH2 0x3E9 JUMP JUMPDEST DUP4 PUSH2 0x5E5 SWAP2 SWAP5 SWAP3 SWAP5 PUSH2 0x650 JUMP JUMPDEST SWAP2 DUP7 PUSH2 0x3AC JUMP JUMPDEST PUSH1 0x40 MLOAD RETURNDATASIZE DUP7 DUP3 RETURNDATACOPY RETURNDATASIZE SWAP1 REVERT JUMPDEST DUP3 DUP1 REVERT JUMPDEST PUSH4 0x4E487B71 PUSH1 0xE0 SHL DUP6 MSTORE PUSH1 0x41 PUSH1 0x4 MSTORE PUSH1 0x24 DUP6 REVERT JUMPDEST POP PUSH1 0x40 MLOAD SWAP1 RETURNDATASIZE SWAP1 DUP3 RETURNDATACOPY RETURNDATASIZE SWAP1 REVERT JUMPDEST PUSH4 0x4E487B71 PUSH1 0xE0 SHL DUP5 MSTORE PUSH1 0x41 PUSH1 0x4 MSTORE PUSH1 0x24 DUP5 REVERT JUMPDEST PUSH1 0x40 MLOAD SWAP1 RETURNDATASIZE SWAP1 DUP3 RETURNDATACOPY RETURNDATASIZE SWAP1 REVERT JUMPDEST PUSH4 0x4E487B71 PUSH1 0xE0 SHL DUP4 MSTORE PUSH1 0x41 PUSH1 0x4 MSTORE PUSH1 0x24 DUP4 REVERT JUMPDEST SWAP1 PUSH1 0x1F DUP1 NOT SWAP2 ADD AND DUP2 ADD SWAP1 DUP2 LT PUSH8 0xFFFFFFFFFFFFFFFF DUP3 GT OR PUSH2 0x672 JUMPI PUSH1 0x40 MSTORE JUMP JUMPDEST PUSH4 0x4E487B71 PUSH1 0xE0 SHL PUSH1 0x0 MSTORE PUSH1 0x41 PUSH1 0x4 MSTORE PUSH1 0x24 PUSH1 0x0 REVERT JUMPDEST PUSH1 0x2 SLOAD DUP2 LT ISZERO PUSH2 0x6A3 JUMPI PUSH1 0x2 PUSH1 0x0 MSTORE PUSH1 0x20 PUSH1 0x0 KECCAK256 ADD SWAP1 PUSH1 0x0 SWAP1 JUMP JUMPDEST PUSH4 0x4E487B71 PUSH1 0xE0 SHL PUSH1 0x0 MSTORE PUSH1 0x32 PUSH1 0x4 MSTORE PUSH1 0x24 PUSH1 0x0 REVERT JUMPDEST SWAP2 SWAP1 DUP3 MLOAD SWAP3 DUP4 DUP3 MSTORE PUSH1 0x0 JUMPDEST DUP5 DUP2 LT PUSH2 0x6E5 JUMPI POP POP DUP3 PUSH1 0x0 PUSH1 0x20 DUP1 SWAP5 SWAP6 DUP5 ADD ADD MSTORE PUSH1 0x1F DUP1 NOT SWAP2 ADD AND ADD ADD SWAP1 JUMP JUMPDEST DUP1 PUSH1 0x20 DUP1 SWAP3 DUP5 ADD ADD MLOAD DUP3 DUP3 DUP7 ADD ADD MSTORE ADD PUSH2 0x6C4 JUMP INVALID PUSH1 0x80 PUSH1 0x40 MSTORE CALLVALUE PUSH2 0x253 JUMPI PUSH2 0x20F9 DUP1 CODESIZE SUB DUP1 PUSH2 0x19 DUP2 PUSH2 0x26D JUMP JUMPDEST SWAP3 DUP4 CODECOPY DUP2 ADD SWAP1 PUSH1 0x60 DUP2 DUP4 SUB SLT PUSH2 0x253 JUMPI DUP1 MLOAD PUSH1 0x1 PUSH1 0x1 PUSH1 0x40 SHL SUB DUP2 GT PUSH2 0x253 JUMPI DUP2 ADD DUP3 PUSH1 0x1F DUP3 ADD SLT ISZERO PUSH2 0x253 JUMPI DUP1 MLOAD SWAP1 PUSH1 0x1 PUSH1 0x1 PUSH1 0x40 SHL SUB DUP3 GT PUSH2 0x23D JUMPI PUSH2 0x6A PUSH1 0x1F DUP4 ADD PUSH1 0x1F NOT AND PUSH1 0x20 ADD PUSH2 0x26D JUMP JUMPDEST SWAP4 DUP3 DUP6 MSTORE PUSH1 0x20 DUP4 DUP4 ADD ADD GT PUSH2 0x253 JUMPI PUSH1 0x0 JUMPDEST DUP3 DUP2 LT PUSH2 0x258 JUMPI POP POP PUSH1 0x20 PUSH1 0x0 SWAP2 DUP5 ADD ADD MSTORE PUSH1 0x20 DUP2 ADD MLOAD SWAP1 PUSH1 0x1 DUP1 PUSH1 0xA0 SHL SUB DUP3 AND DUP1 SWAP3 SUB PUSH2 0x253 JUMPI PUSH1 0x40 ADD MLOAD PUSH1 0x0 DUP1 SLOAD PUSH1 0x1 PUSH1 0x1 PUSH1 0xA0 SHL SUB NOT AND CALLER OR SWAP1 SSTORE DUP3 MLOAD SWAP1 SWAP2 SWAP1 PUSH1 0x1 PUSH1 0x1 PUSH1 0x40 SHL SUB DUP2 GT PUSH2 0x23D JUMPI PUSH1 0x1 SLOAD PUSH1 0x1 DUP2 DUP2 SHR SWAP2 AND DUP1 ISZERO PUSH2 0x233 JUMPI JUMPDEST PUSH1 0x20 DUP3 LT EQ PUSH2 0x21D JUMPI PUSH1 0x1F DUP2 GT PUSH2 0x1B8 JUMPI JUMPDEST POP PUSH1 0x20 PUSH1 0x1F DUP3 GT PUSH1 0x1 EQ PUSH2 0x151 JUMPI DUP2 SWAP3 SWAP4 SWAP5 PUSH1 0x0 SWAP3 PUSH2 0x146 JUMPI JUMPDEST POP POP DUP2 PUSH1 0x1 SHL SWAP2 PUSH1 0x0 NOT SWAP1 PUSH1 0x3 SHL SHR NOT AND OR PUSH1 0x1 SSTORE JUMPDEST PUSH1 0x2 DUP1 SLOAD PUSH1 0x1 PUSH1 0x1 PUSH1 0xA0 SHL SUB NOT AND SWAP2 SWAP1 SWAP2 OR SWAP1 SSTORE PUSH1 0x6 SSTORE PUSH1 0x40 MLOAD PUSH2 0x1E66 SWAP1 DUP2 PUSH2 0x293 DUP3 CODECOPY RETURN JUMPDEST ADD MLOAD SWAP1 POP CODESIZE DUP1 PUSH2 0x10A JUMP JUMPDEST PUSH1 0x1F NOT DUP3 AND SWAP1 PUSH1 0x1 PUSH1 0x0 MSTORE DUP1 PUSH1 0x0 KECCAK256 SWAP2 PUSH1 0x0 JUMPDEST DUP2 DUP2 LT PUSH2 0x1A0 JUMPI POP SWAP6 DUP4 PUSH1 0x1 SWAP6 SWAP7 SWAP8 LT PUSH2 0x187 JUMPI JUMPDEST POP POP POP DUP2 SHL ADD PUSH1 0x1 SSTORE PUSH2 0x120 JUMP JUMPDEST ADD MLOAD PUSH1 0x0 NOT PUSH1 0xF8 DUP5 PUSH1 0x3 SHL AND SHR NOT AND SWAP1 SSTORE CODESIZE DUP1 DUP1 PUSH2 0x179 JUMP JUMPDEST SWAP2 SWAP3 PUSH1 0x20 PUSH1 0x1 DUP2 SWAP3 DUP7 DUP12 ADD MLOAD DUP2 SSTORE ADD SWAP5 ADD SWAP3 ADD PUSH2 0x164 JUMP JUMPDEST PUSH1 0x1 PUSH1 0x0 MSTORE PUSH32 0xB10E2D527612073B26EECDFD717E6A320CF44B4AFAC2B0732D9FCBE2B7FA0CF6 PUSH1 0x1F DUP4 ADD PUSH1 0x5 SHR DUP2 ADD SWAP2 PUSH1 0x20 DUP5 LT PUSH2 0x213 JUMPI JUMPDEST PUSH1 0x1F ADD PUSH1 0x5 SHR ADD SWAP1 JUMPDEST DUP2 DUP2 LT PUSH2 0x207 JUMPI POP PUSH2 0xF0 JUMP JUMPDEST PUSH1 0x0 DUP2 SSTORE PUSH1 0x1 ADD PUSH2 0x1FA JUMP JUMPDEST SWAP1 SWAP2 POP DUP2 SWAP1 PUSH2 0x1F1 JUMP JUMPDEST PUSH4 0x4E487B71 PUSH1 0xE0 SHL PUSH1 0x0 MSTORE PUSH1 0x22 PUSH1 0x4 MSTORE PUSH1 0x24 PUSH1 0x0 REVERT JUMPDEST SWAP1 PUSH1 0x7F AND SWAP1 PUSH2 0xDE JUMP JUMPDEST PUSH4 0x4E487B71 PUSH1 0xE0 SHL PUSH1 0x0 MSTORE PUSH1 0x41 PUSH1 0x4 MSTORE PUSH1 0x24 PUSH1 0x0 REVERT JUMPDEST PUSH1 0x0 DUP1 REVERT JUMPDEST DUP1 PUSH1 0x20 DUP1 SWAP3 DUP5 ADD ADD MLOAD DUP3 DUP3 DUP9 ADD ADD MSTORE ADD PUSH2 0x7C JUMP JUMPDEST PUSH1 0x40 MLOAD SWAP2 SWAP1 PUSH1 0x1F ADD PUSH1 0x1F NOT AND DUP3 ADD PUSH1 0x1 PUSH1 0x1 PUSH1 0x40 SHL SUB DUP2 GT DUP4 DUP3 LT OR PUSH2 0x23D JUMPI PUSH1 0x40 MSTORE JUMP INVALID PUSH1 0x80 PUSH1 0x40 MSTORE PUSH1 0x4 CALLDATASIZE LT ISZERO PUSH2 0x12 JUMPI PUSH1 0x0 DUP1 REVERT JUMPDEST PUSH1 0x0 CALLDATALOAD PUSH1 0xE0 SHR DUP1 PUSH4 0x598DA51 EQ PUSH2 0x185C JUMPI DUP1 PUSH4 0xACE9CA0 EQ PUSH2 0x171A JUMPI DUP1 PUSH4 0x175188E8 EQ PUSH2 0x1593 JUMPI DUP1 PUSH4 0x22068B44 EQ PUSH2 0x1575 JUMPI DUP1 PUSH4 0x223E5479 EQ PUSH2 0x144D JUMPI DUP1 PUSH4 0x22841F01 EQ PUSH2 0x1432 JUMPI DUP1 PUSH4 0x27E235E3 EQ PUSH2 0x13F8 JUMPI DUP1 PUSH4 0x2E1A7D4D EQ PUSH2 0xF25 JUMPI DUP1 PUSH4 0x2E8EBAAE EQ PUSH2 0xEE6 JUMPI DUP1 PUSH4 0x38D52E0F EQ PUSH2 0xEBD JUMPI DUP1 PUSH4 0x3A98EF39 EQ PUSH2 0xE9F JUMPI DUP1 PUSH4 0x476343EE EQ PUSH2 0xDB6 JUMPI DUP1 PUSH4 0x486B9F88 EQ PUSH2 0xD7C JUMPI DUP1 PUSH4 0x4EF2A64F EQ PUSH2 0xD42 JUMPI DUP1 PUSH4 0x587F5ED7 EQ PUSH2 0xD24 JUMPI DUP1 PUSH4 0x5915E15D EQ PUSH2 0xA95 JUMPI DUP1 PUSH4 0x6E973F36 EQ PUSH2 0x875 JUMPI DUP1 PUSH4 0x70A08231 EQ PUSH2 0x852 JUMPI DUP1 PUSH4 0x87269729 EQ PUSH2 0x837 JUMPI DUP1 PUSH4 0x87788782 EQ PUSH2 0x819 JUMPI DUP1 PUSH4 0x8DA5CB5B EQ PUSH2 0x7F0 JUMPI DUP1 PUSH4 0x8ED955B9 EQ PUSH2 0x7CD JUMPI DUP1 PUSH4 0xB3F865F7 EQ PUSH2 0x4A6 JUMPI DUP1 PUSH4 0xB49A60BB EQ PUSH2 0x3DA JUMPI DUP1 PUSH4 0xB6B55F25 EQ PUSH2 0x262 JUMPI DUP1 PUSH4 0xD574EA3D EQ PUSH2 0x220 JUMPI DUP1 PUSH4 0xD73792A9 EQ PUSH2 0x203 JUMPI DUP1 PUSH4 0xF2FDE38B EQ PUSH2 0x17E JUMPI PUSH4 0xF88C6B83 EQ PUSH2 0x15B JUMPI PUSH1 0x0 DUP1 REVERT JUMPDEST CALLVALUE PUSH2 0x179 JUMPI PUSH1 0x0 CALLDATASIZE PUSH1 0x3 NOT ADD SLT PUSH2 0x179 JUMPI PUSH1 0x20 PUSH1 0x4 SLOAD PUSH1 0x40 MLOAD SWAP1 DUP2 MSTORE RETURN JUMPDEST PUSH1 0x0 DUP1 REVERT JUMPDEST CALLVALUE PUSH2 0x179 JUMPI PUSH1 0x20 CALLDATASIZE PUSH1 0x3 NOT ADD SLT PUSH2 0x179 JUMPI PUSH2 0x197 PUSH2 0x1A0D JUMP JUMPDEST PUSH1 0x0 SLOAD SWAP1 PUSH2 0x1AF CALLER PUSH1 0x1 PUSH1 0x1 PUSH1 0xA0 SHL SUB DUP5 AND EQ PUSH2 0x1A76 JUMP JUMPDEST PUSH1 0x1 PUSH1 0x1 PUSH1 0xA0 SHL SUB AND SWAP1 DUP2 ISZERO PUSH2 0x1CF JUMPI PUSH1 0x1 PUSH1 0x1 PUSH1 0xA0 SHL SUB NOT AND OR PUSH1 0x0 SSTORE STOP JUMPDEST PUSH1 0x40 MLOAD PUSH3 0x461BCD PUSH1 0xE5 SHL DUP2 MSTORE PUSH1 0x20 PUSH1 0x4 DUP3 ADD MSTORE PUSH1 0xC PUSH1 0x24 DUP3 ADD MSTORE PUSH12 0x5A65726F2061646472657373 PUSH1 0xA0 SHL PUSH1 0x44 DUP3 ADD MSTORE PUSH1 0x64 SWAP1 REVERT JUMPDEST CALLVALUE PUSH2 0x179 JUMPI PUSH1 0x0 CALLDATASIZE PUSH1 0x3 NOT ADD SLT PUSH2 0x179 JUMPI PUSH1 0x20 PUSH1 0x40 MLOAD PUSH2 0x2710 DUP2 MSTORE RETURN JUMPDEST CALLVALUE PUSH2 0x179 JUMPI PUSH1 0x20 CALLDATASIZE PUSH1 0x3 NOT ADD SLT PUSH2 0x179 JUMPI PUSH1 0x4 CALLDATALOAD PUSH1 0x9 SLOAD DUP2 LT ISZERO PUSH2 0x179 JUMPI PUSH2 0x249 PUSH1 0x20 SWAP2 PUSH2 0x1A45 JUMP JUMPDEST SWAP1 SLOAD PUSH1 0x40 MLOAD PUSH1 0x3 SWAP3 SWAP1 SWAP3 SHL SHR PUSH1 0x1 PUSH1 0x1 PUSH1 0xA0 SHL SUB AND DUP2 MSTORE RETURN JUMPDEST CALLVALUE PUSH2 0x179 JUMPI PUSH1 0x20 CALLDATASIZE PUSH1 0x3 NOT ADD SLT PUSH2 0x179 JUMPI PUSH1 0x4 CALLDATALOAD DUP1 ISZERO PUSH2 0x3A6 JUMPI PUSH1 0x2 SLOAD PUSH1 0x40 MLOAD PUSH4 0x23B872DD PUSH1 0xE0 SHL DUP2 MSTORE CALLER PUSH1 0x4 DUP3 ADD MSTORE ADDRESS PUSH1 0x24 DUP3 ADD MSTORE PUSH1 0x44 DUP2 ADD DUP4 SWAP1 MSTORE SWAP2 SWAP1 PUSH1 0x20 SWAP1 DUP4 SWAP1 PUSH1 0x64 SWAP1 DUP3 SWAP1 PUSH1 0x0 SWAP1 PUSH1 0x1 PUSH1 0x1 PUSH1 0xA0 SHL SUB AND GAS CALL SWAP2 DUP3 ISZERO PUSH2 0x39A JUMPI PUSH1 0x20 SWAP3 PUSH2 0x2D5 SWAP2 PUSH1 0x0 SWAP2 PUSH2 0x36D JUMPI JUMPDEST POP PUSH2 0x1C28 JUMP JUMPDEST PUSH1 0x3 SLOAD DUP1 PUSH2 0x351 JUMPI POP DUP1 JUMPDEST CALLER PUSH1 0x0 MSTORE PUSH1 0x7 DUP4 MSTORE PUSH1 0x40 PUSH1 0x0 KECCAK256 PUSH2 0x2F8 DUP4 DUP3 SLOAD PUSH2 0x1C66 JUMP JUMPDEST SWAP1 SSTORE PUSH2 0x306 DUP3 PUSH1 0x3 SLOAD PUSH2 0x1C66 JUMP JUMPDEST PUSH1 0x3 SSTORE PUSH2 0x315 DUP2 PUSH1 0x4 SLOAD PUSH2 0x1C66 JUMP JUMPDEST PUSH1 0x4 SSTORE PUSH1 0x40 MLOAD SWAP1 DUP2 MSTORE DUP2 DUP4 DUP3 ADD MSTORE PUSH32 0x73A19DD210F1A7F902193214C0EE91DD35EE5B4D920CBA8D519ECA65A7B488CA PUSH1 0x40 CALLER SWAP3 LOG2 PUSH1 0x40 MLOAD SWAP1 DUP2 MSTORE RETURN JUMPDEST PUSH2 0x35E PUSH2 0x367 SWAP2 DUP4 PUSH2 0x1BDD JUMP JUMPDEST PUSH1 0x4 SLOAD SWAP1 PUSH2 0x1BF0 JUMP JUMPDEST SWAP1 PUSH2 0x2E0 JUMP JUMPDEST PUSH2 0x38D SWAP2 POP DUP5 RETURNDATASIZE DUP7 GT PUSH2 0x393 JUMPI JUMPDEST PUSH2 0x385 DUP2 DUP4 PUSH2 0x1A23 JUMP JUMPDEST DUP2 ADD SWAP1 PUSH2 0x1C10 JUMP JUMPDEST DUP5 PUSH2 0x2CF JUMP JUMPDEST POP RETURNDATASIZE PUSH2 0x37B JUMP JUMPDEST PUSH1 0x40 MLOAD RETURNDATASIZE PUSH1 0x0 DUP3 RETURNDATACOPY RETURNDATASIZE SWAP1 REVERT JUMPDEST PUSH1 0x40 MLOAD PUSH3 0x461BCD PUSH1 0xE5 SHL DUP2 MSTORE PUSH1 0x20 PUSH1 0x4 DUP3 ADD MSTORE PUSH1 0xC PUSH1 0x24 DUP3 ADD MSTORE PUSH12 0x16995C9BC819195C1BDCDA5D PUSH1 0xA2 SHL PUSH1 0x44 DUP3 ADD MSTORE PUSH1 0x64 SWAP1 REVERT JUMPDEST CALLVALUE PUSH2 0x179 JUMPI PUSH1 0x0 CALLDATASIZE PUSH1 0x3 NOT ADD SLT PUSH2 0x179 JUMPI PUSH1 0x40 MLOAD DUP1 PUSH1 0x20 PUSH1 0x9 SLOAD SWAP3 DUP4 DUP2 MSTORE ADD DUP1 SWAP3 PUSH1 0x9 PUSH1 0x0 MSTORE PUSH32 0x6E1540171B6C0C960B71A7020D9F60077F6AF931A8BBF590DA0223DACF75C7AF SWAP1 PUSH1 0x0 JUMPDEST DUP2 DUP2 LT PUSH2 0x487 JUMPI POP POP POP DUP2 PUSH2 0x43B SWAP2 SUB DUP3 PUSH2 0x1A23 JUMP JUMPDEST PUSH1 0x40 MLOAD SWAP2 DUP3 SWAP2 PUSH1 0x20 DUP4 ADD SWAP1 PUSH1 0x20 DUP5 MSTORE MLOAD DUP1 SWAP2 MSTORE PUSH1 0x40 DUP4 ADD SWAP2 SWAP1 PUSH1 0x0 JUMPDEST DUP2 DUP2 LT PUSH2 0x465 JUMPI POP POP POP SUB SWAP1 RETURN JUMPDEST DUP3 MLOAD PUSH1 0x1 PUSH1 0x1 PUSH1 0xA0 SHL SUB AND DUP5 MSTORE DUP6 SWAP5 POP PUSH1 0x20 SWAP4 DUP5 ADD SWAP4 SWAP1 SWAP3 ADD SWAP2 PUSH1 0x1 ADD PUSH2 0x457 JUMP JUMPDEST DUP3 SLOAD PUSH1 0x1 PUSH1 0x1 PUSH1 0xA0 SHL SUB AND DUP5 MSTORE PUSH1 0x20 SWAP1 SWAP4 ADD SWAP3 PUSH1 0x1 SWAP3 DUP4 ADD SWAP3 ADD PUSH2 0x425 JUMP JUMPDEST CALLVALUE PUSH2 0x179 JUMPI PUSH1 0x60 CALLDATASIZE PUSH1 0x3 NOT ADD SLT PUSH2 0x179 JUMPI PUSH2 0x4BF PUSH2 0x1A0D JUMP JUMPDEST PUSH1 0x24 CALLDATALOAD PUSH1 0x1 PUSH1 0x1 PUSH1 0xA0 SHL SUB DUP2 AND SWAP2 DUP3 DUP3 SUB PUSH2 0x179 JUMPI PUSH1 0x44 CALLDATALOAD SWAP1 PUSH2 0x4ED PUSH1 0x1 DUP1 PUSH1 0xA0 SHL SUB PUSH1 0x0 SLOAD AND CALLER EQ PUSH2 0x1A76 JUMP JUMPDEST PUSH2 0x4F5 PUSH2 0x1CF5 JUMP JUMPDEST POP PUSH1 0x1 PUSH1 0x1 PUSH1 0xA0 SHL SUB AND PUSH1 0x0 DUP2 DUP2 MSTORE PUSH1 0xA PUSH1 0x20 MSTORE PUSH1 0x40 SWAP1 KECCAK256 SLOAD SWAP1 SWAP3 SWAP1 PUSH1 0xFF AND DUP1 PUSH2 0x7B5 JUMPI JUMPDEST PUSH2 0x523 SWAP1 PUSH2 0x1AAE JUMP JUMPDEST DUP4 DUP4 EQ PUSH2 0x780 JUMPI PUSH1 0x40 MLOAD PUSH3 0x787445 PUSH1 0xE2 SHL DUP2 MSTORE PUSH1 0x20 DUP2 PUSH1 0x4 DUP2 DUP8 GAS STATICCALL SWAP1 DUP2 ISZERO PUSH2 0x39A JUMPI PUSH1 0x0 SWAP2 PUSH2 0x74E JUMPI JUMPDEST POP DUP3 GT PUSH2 0x710 JUMPI PUSH1 0x2 SLOAD PUSH1 0x40 MLOAD PUSH4 0xF3FEF3A3 PUSH1 0xE0 SHL DUP2 MSTORE PUSH1 0x1 PUSH1 0x1 PUSH1 0xA0 SHL SUB SWAP1 SWAP2 AND PUSH1 0x4 DUP3 ADD MSTORE PUSH1 0x24 DUP2 ADD SWAP3 SWAP1 SWAP3 MSTORE PUSH1 0x20 DUP3 PUSH1 0x44 DUP2 PUSH1 0x0 DUP8 GAS CALL SWAP2 DUP3 ISZERO PUSH2 0x39A JUMPI PUSH1 0x0 SWAP3 PUSH2 0x6D8 JUMPI JUMPDEST POP PUSH1 0x2 SLOAD PUSH1 0x40 MLOAD PUSH4 0xA9059CBB PUSH1 0xE0 SHL DUP2 MSTORE PUSH1 0x1 PUSH1 0x1 PUSH1 0xA0 SHL SUB SWAP3 DUP4 AND PUSH1 0x4 DUP3 ADD MSTORE PUSH1 0x24 DUP2 ADD DUP5 SWAP1 MSTORE SWAP2 PUSH1 0x20 SWAP2 DUP4 SWAP2 PUSH1 0x44 SWAP2 DUP4 SWAP2 PUSH1 0x0 SWAP2 AND GAS CALL DUP1 ISZERO PUSH2 0x39A JUMPI PUSH2 0x5E7 SWAP2 PUSH1 0x0 SWAP2 PUSH2 0x6B9 JUMPI POP PUSH2 0x1C28 JUMP JUMPDEST PUSH1 0x2 SLOAD PUSH1 0x40 MLOAD PUSH4 0x11F9FBC9 PUSH1 0xE2 SHL DUP2 MSTORE PUSH1 0x1 PUSH1 0x1 PUSH1 0xA0 SHL SUB SWAP1 SWAP2 AND PUSH1 0x4 DUP3 ADD MSTORE PUSH1 0x24 DUP2 ADD DUP3 SWAP1 MSTORE PUSH1 0x20 DUP2 PUSH1 0x44 DUP2 PUSH1 0x0 DUP9 GAS CALL DUP1 ISZERO PUSH2 0x39A JUMPI PUSH2 0x686 JUMPI JUMPDEST POP PUSH1 0x20 SWAP1 PUSH32 0x1427D1942829759938581CE754FD0F7F116BFB7A4B77F80F0CB32CD62C2138C7 SWAP3 PUSH1 0x0 MSTORE PUSH1 0xB DUP3 MSTORE PUSH1 0x40 PUSH1 0x0 KECCAK256 PUSH2 0x661 DUP3 DUP3 SLOAD PUSH2 0x1AED JUMP JUMPDEST SWAP1 SSTORE DUP4 PUSH1 0x0 MSTORE PUSH1 0xB DUP3 MSTORE PUSH1 0x40 PUSH1 0x0 KECCAK256 PUSH2 0x67B DUP3 DUP3 SLOAD PUSH2 0x1C66 JUMP JUMPDEST SWAP1 SSTORE PUSH1 0x40 MLOAD SWAP1 DUP2 MSTORE LOG2 STOP JUMPDEST SWAP1 PUSH1 0x20 DUP3 RETURNDATASIZE PUSH1 0x20 GT PUSH2 0x6B1 JUMPI JUMPDEST DUP2 PUSH2 0x6A0 PUSH1 0x20 SWAP4 DUP4 PUSH2 0x1A23 JUMP JUMPDEST DUP2 ADD SUB SLT PUSH2 0x179 JUMPI SWAP1 POP PUSH1 0x20 PUSH2 0x624 JUMP JUMPDEST RETURNDATASIZE SWAP2 POP PUSH2 0x693 JUMP JUMPDEST PUSH2 0x6D2 SWAP2 POP PUSH1 0x20 RETURNDATASIZE PUSH1 0x20 GT PUSH2 0x393 JUMPI PUSH2 0x385 DUP2 DUP4 PUSH2 0x1A23 JUMP JUMPDEST DUP6 PUSH2 0x2CF JUMP JUMPDEST SWAP1 SWAP2 PUSH1 0x20 DUP3 RETURNDATASIZE PUSH1 0x20 GT PUSH2 0x708 JUMPI JUMPDEST DUP2 PUSH2 0x6F3 PUSH1 0x20 SWAP4 DUP4 PUSH2 0x1A23 JUMP JUMPDEST DUP2 ADD SUB SLT PUSH2 0x705 JUMPI POP MLOAD SWAP1 PUSH1 0x20 PUSH2 0x597 JUMP JUMPDEST DUP1 REVERT JUMPDEST RETURNDATASIZE SWAP2 POP PUSH2 0x6E6 JUMP JUMPDEST PUSH1 0x40 MLOAD PUSH3 0x461BCD PUSH1 0xE5 SHL DUP2 MSTORE PUSH1 0x20 PUSH1 0x4 DUP3 ADD MSTORE PUSH1 0x16 PUSH1 0x24 DUP3 ADD MSTORE PUSH22 0x496E73756666696369656E7420696E20736F75726365 PUSH1 0x50 SHL PUSH1 0x44 DUP3 ADD MSTORE PUSH1 0x64 SWAP1 REVERT JUMPDEST SWAP1 POP PUSH1 0x20 DUP2 RETURNDATASIZE PUSH1 0x20 GT PUSH2 0x778 JUMPI JUMPDEST DUP2 PUSH2 0x769 PUSH1 0x20 SWAP4 DUP4 PUSH2 0x1A23 JUMP JUMPDEST DUP2 ADD SUB SLT PUSH2 0x179 JUMPI MLOAD DUP6 PUSH2 0x54E JUMP JUMPDEST RETURNDATASIZE SWAP2 POP PUSH2 0x75C JUMP JUMPDEST PUSH1 0x40 MLOAD PUSH3 0x461BCD PUSH1 0xE5 SHL DUP2 MSTORE PUSH1 0x20 PUSH1 0x4 DUP3 ADD MSTORE PUSH1 0xD PUSH1 0x24 DUP3 ADD MSTORE PUSH13 0x53616D65207374726174656779 PUSH1 0x98 SHL PUSH1 0x44 DUP3 ADD MSTORE PUSH1 0x64 SWAP1 REVERT JUMPDEST POP PUSH1 0x0 DUP5 DUP2 MSTORE PUSH1 0xA PUSH1 0x20 MSTORE PUSH1 0x40 SWAP1 KECCAK256 SLOAD PUSH1 0xFF AND PUSH2 0x51A JUMP JUMPDEST CALLVALUE PUSH2 0x179 JUMPI PUSH1 0x0 CALLDATASIZE PUSH1 0x3 NOT ADD SLT PUSH2 0x179 JUMPI PUSH1 0x20 PUSH2 0x7E8 PUSH2 0x1CF5 JUMP JUMPDEST PUSH1 0x40 MLOAD SWAP1 DUP2 MSTORE RETURN JUMPDEST CALLVALUE PUSH2 0x179 JUMPI PUSH1 0x0 CALLDATASIZE PUSH1 0x3 NOT ADD SLT PUSH2 0x179 JUMPI PUSH1 0x0 SLOAD PUSH1 0x40 MLOAD PUSH1 0x1 PUSH1 0x1 PUSH1 0xA0 SHL SUB SWAP1 SWAP2 AND DUP2 MSTORE PUSH1 0x20 SWAP1 RETURN JUMPDEST CALLVALUE PUSH2 0x179 JUMPI PUSH1 0x0 CALLDATASIZE PUSH1 0x3 NOT ADD SLT PUSH2 0x179 JUMPI PUSH1 0x20 PUSH1 0x6 SLOAD PUSH1 0x40 MLOAD SWAP1 DUP2 MSTORE RETURN JUMPDEST CALLVALUE PUSH2 0x179 JUMPI PUSH1 0x0 CALLDATASIZE PUSH1 0x3 NOT ADD SLT PUSH2 0x179 JUMPI PUSH1 0x20 PUSH2 0x7E8 PUSH2 0x1CB1 JUMP JUMPDEST CALLVALUE PUSH2 0x179 JUMPI PUSH1 0x20 CALLDATASIZE PUSH1 0x3 NOT ADD SLT PUSH2 0x179 JUMPI PUSH1 0x20 PUSH2 0x7E8 PUSH2 0x870 PUSH2 0x1A0D JUMP JUMPDEST PUSH2 0x1C73 JUMP JUMPDEST CALLVALUE PUSH2 0x179 JUMPI PUSH1 0x20 CALLDATASIZE PUSH1 0x3 NOT ADD SLT PUSH2 0x179 JUMPI PUSH1 0x1 PUSH1 0x1 PUSH1 0xA0 SHL SUB PUSH2 0x896 PUSH2 0x1A0D JUMP JUMPDEST AND DUP1 PUSH1 0x0 MSTORE PUSH1 0xA PUSH1 0x20 MSTORE PUSH2 0x8B1 PUSH1 0xFF PUSH1 0x40 PUSH1 0x0 KECCAK256 SLOAD AND PUSH2 0x1AAE JUMP JUMPDEST PUSH1 0x40 MLOAD PUSH4 0x22841F01 PUSH1 0xE0 SHL DUP2 MSTORE PUSH1 0x20 DUP2 PUSH1 0x4 DUP2 DUP6 GAS STATICCALL DUP1 ISZERO PUSH2 0x39A JUMPI PUSH1 0x0 SWAP1 PUSH2 0xA5B JUMPI JUMPDEST PUSH8 0xDE0B6B3A7640000 SWAP2 POP LT ISZERO PUSH2 0xA26 JUMPI PUSH1 0x40 MLOAD PUSH3 0x787445 PUSH1 0xE2 SHL DUP2 MSTORE PUSH1 0x20 DUP2 PUSH1 0x4 DUP2 DUP6 GAS STATICCALL SWAP1 DUP2 ISZERO PUSH2 0x39A JUMPI PUSH1 0x0 SWAP2 PUSH2 0x9F4 JUMPI JUMPDEST POP DUP1 ISZERO PUSH2 0x9C3 JUMPI PUSH1 0x2 SLOAD PUSH1 0x40 MLOAD PUSH4 0xF3FEF3A3 PUSH1 0xE0 SHL DUP2 MSTORE PUSH1 0x1 PUSH1 0x1 PUSH1 0xA0 SHL SUB SWAP1 SWAP2 AND PUSH1 0x4 DUP3 ADD MSTORE PUSH1 0x24 DUP2 ADD SWAP2 SWAP1 SWAP2 MSTORE PUSH1 0x20 DUP2 PUSH1 0x44 DUP2 PUSH1 0x0 DUP7 GAS CALL SWAP1 DUP2 ISZERO PUSH2 0x39A JUMPI PUSH1 0x0 SWAP2 PUSH2 0x990 JUMPI JUMPDEST POP PUSH1 0x20 PUSH32 0xDD42FF4F19DCDBFFF4CEFE836B953FCE452BCE2E1D4B6AF171036824ED3D67D8 SWAP2 DUP4 PUSH1 0x0 MSTORE PUSH1 0xB DUP3 MSTORE PUSH1 0x40 PUSH1 0x0 KECCAK256 PUSH2 0x67B DUP3 DUP3 SLOAD PUSH2 0x1AED JUMP JUMPDEST SWAP1 PUSH1 0x20 DUP3 RETURNDATASIZE PUSH1 0x20 GT PUSH2 0x9BB JUMPI JUMPDEST DUP2 PUSH2 0x9AA PUSH1 0x20 SWAP4 DUP4 PUSH2 0x1A23 JUMP JUMPDEST DUP2 ADD SUB SLT PUSH2 0x705 JUMPI POP MLOAD PUSH1 0x20 PUSH2 0x953 JUMP JUMPDEST RETURNDATASIZE SWAP2 POP PUSH2 0x99D JUMP JUMPDEST PUSH1 0x40 MLOAD PUSH3 0x461BCD PUSH1 0xE5 SHL DUP2 MSTORE PUSH1 0x20 PUSH1 0x4 DUP3 ADD MSTORE PUSH1 0x9 PUSH1 0x24 DUP3 ADD MSTORE PUSH9 0x4E6F20617373657473 PUSH1 0xB8 SHL PUSH1 0x44 DUP3 ADD MSTORE PUSH1 0x64 SWAP1 REVERT JUMPDEST SWAP1 PUSH1 0x20 DUP3 RETURNDATASIZE PUSH1 0x20 GT PUSH2 0xA1E JUMPI JUMPDEST DUP2 PUSH2 0xA0E PUSH1 0x20 SWAP4 DUP4 PUSH2 0x1A23 JUMP JUMPDEST DUP2 ADD SUB SLT PUSH2 0x705 JUMPI POP MLOAD DUP3 PUSH2 0x90A JUMP JUMPDEST RETURNDATASIZE SWAP2 POP PUSH2 0xA01 JUMP JUMPDEST PUSH1 0x40 MLOAD PUSH3 0x461BCD PUSH1 0xE5 SHL DUP2 MSTORE PUSH1 0x20 PUSH1 0x4 DUP3 ADD MSTORE PUSH1 0xD PUSH1 0x24 DUP3 ADD MSTORE PUSH13 0x4846207374696C6C2073616665 PUSH1 0x98 SHL PUSH1 0x44 DUP3 ADD MSTORE PUSH1 0x64 SWAP1 REVERT JUMPDEST POP PUSH1 0x20 DUP2 RETURNDATASIZE PUSH1 0x20 GT PUSH2 0xA8D JUMPI JUMPDEST DUP2 PUSH2 0xA75 PUSH1 0x20 SWAP4 DUP4 PUSH2 0x1A23 JUMP JUMPDEST DUP2 ADD SUB SLT PUSH2 0x179 JUMPI PUSH8 0xDE0B6B3A7640000 SWAP1 MLOAD PUSH2 0x8D5 JUMP JUMPDEST RETURNDATASIZE SWAP2 POP PUSH2 0xA68 JUMP JUMPDEST CALLVALUE PUSH2 0x179 JUMPI PUSH1 0x40 CALLDATASIZE PUSH1 0x3 NOT ADD SLT PUSH2 0x179 JUMPI PUSH2 0xAAE PUSH2 0x1A0D JUMP JUMPDEST PUSH1 0x24 CALLDATALOAD PUSH2 0xAC6 PUSH1 0x1 DUP1 PUSH1 0xA0 SHL SUB PUSH1 0x0 SLOAD AND CALLER EQ PUSH2 0x1A76 JUMP JUMPDEST PUSH2 0xACE PUSH2 0x1CF5 JUMP JUMPDEST POP PUSH1 0x1 DUP1 PUSH1 0xA0 SHL SUB DUP3 AND SWAP2 DUP3 PUSH1 0x0 MSTORE PUSH1 0xA PUSH1 0x20 MSTORE PUSH2 0xAF3 PUSH1 0xFF PUSH1 0x40 PUSH1 0x0 KECCAK256 SLOAD AND PUSH2 0x1AAE JUMP JUMPDEST PUSH1 0x2 SLOAD PUSH1 0x40 MLOAD PUSH4 0x70A08231 PUSH1 0xE0 SHL DUP2 MSTORE ADDRESS PUSH1 0x4 DUP3 ADD MSTORE SWAP1 PUSH1 0x20 SWAP1 DUP3 SWAP1 PUSH1 0x24 SWAP1 DUP3 SWAP1 PUSH1 0x1 PUSH1 0x1 PUSH1 0xA0 SHL SUB AND GAS STATICCALL SWAP1 DUP2 ISZERO PUSH2 0x39A JUMPI PUSH1 0x0 SWAP2 PUSH2 0xCF2 JUMPI JUMPDEST POP DUP3 GT PUSH2 0xCAD JUMPI PUSH1 0x20 DUP3 PUSH2 0xB94 SWAP3 DUP6 PUSH1 0x0 MSTORE PUSH1 0xB DUP4 MSTORE PUSH1 0x40 PUSH1 0x0 KECCAK256 PUSH2 0xB54 DUP4 DUP3 SLOAD PUSH2 0x1C66 JUMP JUMPDEST SWAP1 SSTORE PUSH1 0x2 SLOAD PUSH1 0x40 MLOAD PUSH4 0xA9059CBB PUSH1 0xE0 SHL DUP2 MSTORE PUSH1 0x1 PUSH1 0x1 PUSH1 0xA0 SHL SUB SWAP3 DUP4 AND PUSH1 0x4 DUP3 ADD MSTORE PUSH1 0x24 DUP2 ADD SWAP4 SWAP1 SWAP4 MSTORE SWAP2 SWAP4 DUP5 SWAP3 SWAP1 SWAP2 AND SWAP1 DUP3 SWAP1 PUSH1 0x0 SWAP1 DUP3 SWAP1 PUSH1 0x44 DUP3 ADD SWAP1 JUMP JUMPDEST SUB SWAP3 GAS CALL SWAP1 DUP2 ISZERO PUSH2 0x39A JUMPI PUSH1 0x0 SWAP2 PUSH2 0xC8E JUMPI JUMPDEST POP ISZERO PUSH2 0xC49 JUMPI PUSH1 0x2 SLOAD PUSH1 0x40 MLOAD PUSH4 0x11F9FBC9 PUSH1 0xE2 SHL DUP2 MSTORE PUSH1 0x1 PUSH1 0x1 PUSH1 0xA0 SHL SUB SWAP1 SWAP2 AND PUSH1 0x4 DUP3 ADD MSTORE PUSH1 0x24 DUP2 ADD DUP3 SWAP1 MSTORE PUSH1 0x20 DUP2 PUSH1 0x44 DUP2 PUSH1 0x0 DUP8 GAS CALL DUP1 ISZERO PUSH2 0x39A JUMPI PUSH2 0xC18 JUMPI JUMPDEST POP PUSH1 0x20 PUSH32 0x1427D1942829759938581CE754FD0F7F116BFB7A4B77F80F0CB32CD62C2138C7 SWAP2 PUSH1 0x40 MLOAD SWAP1 DUP2 MSTORE LOG2 STOP JUMPDEST PUSH1 0x20 DUP2 RETURNDATASIZE PUSH1 0x20 GT PUSH2 0xC41 JUMPI JUMPDEST DUP2 PUSH2 0xC31 PUSH1 0x20 SWAP4 DUP4 PUSH2 0x1A23 JUMP JUMPDEST DUP2 ADD SUB SLT PUSH2 0x179 JUMPI POP PUSH1 0x20 PUSH2 0xBEA JUMP JUMPDEST RETURNDATASIZE SWAP2 POP PUSH2 0xC24 JUMP JUMPDEST PUSH1 0x40 MLOAD PUSH3 0x461BCD PUSH1 0xE5 SHL DUP2 MSTORE PUSH1 0x20 PUSH1 0x4 DUP3 ADD MSTORE PUSH1 0x1B PUSH1 0x24 DUP3 ADD MSTORE PUSH32 0x5472616E7366657220746F207374726174656779206661696C65640000000000 PUSH1 0x44 DUP3 ADD MSTORE PUSH1 0x64 SWAP1 REVERT JUMPDEST PUSH2 0xCA7 SWAP2 POP PUSH1 0x20 RETURNDATASIZE PUSH1 0x20 GT PUSH2 0x393 JUMPI PUSH2 0x385 DUP2 DUP4 PUSH2 0x1A23 JUMP JUMPDEST DUP4 PUSH2 0xBA7 JUMP JUMPDEST PUSH1 0x40 MLOAD PUSH3 0x461BCD PUSH1 0xE5 SHL DUP2 MSTORE PUSH1 0x20 PUSH1 0x4 DUP3 ADD MSTORE PUSH1 0x18 PUSH1 0x24 DUP3 ADD MSTORE PUSH32 0x496E73756666696369656E742069646C65206173736574730000000000000000 PUSH1 0x44 DUP3 ADD MSTORE PUSH1 0x64 SWAP1 REVERT JUMPDEST SWAP1 POP PUSH1 0x20 DUP2 RETURNDATASIZE PUSH1 0x20 GT PUSH2 0xD1C JUMPI JUMPDEST DUP2 PUSH2 0xD0D PUSH1 0x20 SWAP4 DUP4 PUSH2 0x1A23 JUMP JUMPDEST DUP2 ADD SUB SLT PUSH2 0x179 JUMPI MLOAD DUP5 PUSH2 0xB2E JUMP JUMPDEST RETURNDATASIZE SWAP2 POP PUSH2 0xD00 JUMP JUMPDEST CALLVALUE PUSH2 0x179 JUMPI PUSH1 0x0 CALLDATASIZE PUSH1 0x3 NOT ADD SLT PUSH2 0x179 JUMPI PUSH1 0x20 PUSH1 0x5 SLOAD PUSH1 0x40 MLOAD SWAP1 DUP2 MSTORE RETURN JUMPDEST CALLVALUE PUSH2 0x179 JUMPI PUSH1 0x20 CALLDATASIZE PUSH1 0x3 NOT ADD SLT PUSH2 0x179 JUMPI PUSH1 0x1 PUSH1 0x1 PUSH1 0xA0 SHL SUB PUSH2 0xD63 PUSH2 0x1A0D JUMP JUMPDEST AND PUSH1 0x0 MSTORE PUSH1 0xB PUSH1 0x20 MSTORE PUSH1 0x20 PUSH1 0x40 PUSH1 0x0 KECCAK256 SLOAD PUSH1 0x40 MLOAD SWAP1 DUP2 MSTORE RETURN JUMPDEST CALLVALUE PUSH2 0x179 JUMPI PUSH1 0x20 CALLDATASIZE PUSH1 0x3 NOT ADD SLT PUSH2 0x179 JUMPI PUSH1 0x1 PUSH1 0x1 PUSH1 0xA0 SHL SUB PUSH2 0xD9D PUSH2 0x1A0D JUMP JUMPDEST AND PUSH1 0x0 MSTORE PUSH1 0x8 PUSH1 0x20 MSTORE PUSH1 0x20 PUSH1 0x40 PUSH1 0x0 KECCAK256 SLOAD PUSH1 0x40 MLOAD SWAP1 DUP2 MSTORE RETURN JUMPDEST CALLVALUE PUSH2 0x179 JUMPI PUSH1 0x0 CALLDATASIZE PUSH1 0x3 NOT ADD SLT PUSH2 0x179 JUMPI PUSH1 0x0 SLOAD PUSH2 0xE2A SWAP1 PUSH1 0x20 SWAP1 PUSH1 0x1 PUSH1 0x1 PUSH1 0xA0 SHL SUB AND PUSH2 0xDE5 CALLER DUP3 EQ PUSH2 0x1A76 JUMP JUMPDEST PUSH1 0x5 DUP1 SLOAD PUSH1 0x0 SWAP2 DUP3 SWAP1 SSTORE PUSH1 0x2 SLOAD PUSH1 0x40 MLOAD PUSH4 0xA9059CBB PUSH1 0xE0 SHL DUP2 MSTORE PUSH1 0x1 PUSH1 0x1 PUSH1 0xA0 SHL SUB SWAP5 DUP6 AND PUSH1 0x4 DUP3 ADD MSTORE PUSH1 0x24 DUP2 ADD SWAP3 SWAP1 SWAP3 MSTORE SWAP1 SWAP5 DUP6 SWAP4 SWAP1 SWAP2 AND SWAP2 DUP4 SWAP2 DUP3 SWAP1 PUSH1 0x44 DUP3 ADD SWAP1 JUMP JUMPDEST SUB SWAP3 GAS CALL SWAP1 DUP2 ISZERO PUSH2 0x39A JUMPI PUSH1 0x0 SWAP2 PUSH2 0xE80 JUMPI JUMPDEST POP ISZERO PUSH2 0xE45 JUMPI STOP JUMPDEST PUSH1 0x40 MLOAD PUSH3 0x461BCD PUSH1 0xE5 SHL DUP2 MSTORE PUSH1 0x20 PUSH1 0x4 DUP3 ADD MSTORE PUSH1 0x13 PUSH1 0x24 DUP3 ADD MSTORE PUSH19 0x119959481D1C985B9CD9995C8819985A5B1959 PUSH1 0x6A SHL PUSH1 0x44 DUP3 ADD MSTORE PUSH1 0x64 SWAP1 REVERT JUMPDEST PUSH2 0xE99 SWAP2 POP PUSH1 0x20 RETURNDATASIZE PUSH1 0x20 GT PUSH2 0x393 JUMPI PUSH2 0x385 DUP2 DUP4 PUSH2 0x1A23 JUMP JUMPDEST DUP2 PUSH2 0xE3D JUMP JUMPDEST CALLVALUE PUSH2 0x179 JUMPI PUSH1 0x0 CALLDATASIZE PUSH1 0x3 NOT ADD SLT PUSH2 0x179 JUMPI PUSH1 0x20 PUSH1 0x3 SLOAD PUSH1 0x40 MLOAD SWAP1 DUP2 MSTORE RETURN JUMPDEST CALLVALUE PUSH2 0x179 JUMPI PUSH1 0x0 CALLDATASIZE PUSH1 0x3 NOT ADD SLT PUSH2 0x179 JUMPI PUSH1 0x2 SLOAD PUSH1 0x40 MLOAD PUSH1 0x1 PUSH1 0x1 PUSH1 0xA0 SHL SUB SWAP1 SWAP2 AND DUP2 MSTORE PUSH1 0x20 SWAP1 RETURN JUMPDEST CALLVALUE PUSH2 0x179 JUMPI PUSH1 0x20 CALLDATASIZE PUSH1 0x3 NOT ADD SLT PUSH2 0x179 JUMPI PUSH1 0x1 PUSH1 0x1 PUSH1 0xA0 SHL SUB PUSH2 0xF07 PUSH2 0x1A0D JUMP JUMPDEST AND PUSH1 0x0 MSTORE PUSH1 0xA PUSH1 0x20 MSTORE PUSH1 0x20 PUSH1 0xFF PUSH1 0x40 PUSH1 0x0 KECCAK256 SLOAD AND PUSH1 0x40 MLOAD SWAP1 ISZERO ISZERO DUP2 MSTORE RETURN JUMPDEST CALLVALUE PUSH2 0x179 JUMPI PUSH1 0x20 CALLDATASIZE PUSH1 0x3 NOT ADD SLT PUSH2 0x179 JUMPI PUSH1 0x4 CALLDATALOAD DUP1 ISZERO ISZERO DUP1 PUSH2 0x13E0 JUMPI JUMPDEST ISZERO PUSH2 0x13A5 JUMPI PUSH2 0xF5F PUSH2 0xF56 PUSH1 0x4 SLOAD DUP4 PUSH2 0x1BDD JUMP JUMPDEST PUSH1 0x3 SLOAD SWAP1 PUSH2 0x1BF0 JUMP JUMPDEST SWAP1 DUP2 ISZERO PUSH2 0x1372 JUMPI PUSH1 0x2 SLOAD PUSH1 0x40 MLOAD PUSH4 0x70A08231 PUSH1 0xE0 SHL DUP2 MSTORE ADDRESS PUSH1 0x4 DUP3 ADD MSTORE SWAP1 PUSH1 0x20 SWAP1 DUP3 SWAP1 PUSH1 0x24 SWAP1 DUP3 SWAP1 PUSH1 0x1 PUSH1 0x1 PUSH1 0xA0 SHL SUB AND GAS STATICCALL SWAP1 DUP2 ISZERO PUSH2 0x39A JUMPI PUSH1 0x0 SWAP2 PUSH2 0x1340 JUMPI JUMPDEST POP DUP3 DUP2 LT PUSH2 0x108C JUMPI JUMPDEST POP SWAP1 CALLER PUSH1 0x0 MSTORE PUSH1 0x7 PUSH1 0x20 MSTORE PUSH1 0x40 PUSH1 0x0 KECCAK256 PUSH2 0xFC5 DUP4 DUP3 SLOAD PUSH2 0x1AED JUMP JUMPDEST SWAP1 SSTORE PUSH2 0xFD3 DUP3 PUSH1 0x3 SLOAD PUSH2 0x1AED JUMP JUMPDEST PUSH1 0x3 SSTORE PUSH2 0xFE2 DUP2 PUSH1 0x4 SLOAD PUSH2 0x1AED JUMP JUMPDEST PUSH1 0x4 SWAP1 DUP2 SSTORE PUSH1 0x2 SLOAD PUSH1 0x40 MLOAD PUSH4 0xA9059CBB PUSH1 0xE0 SHL DUP2 MSTORE CALLER SWAP3 DUP2 ADD SWAP3 SWAP1 SWAP3 MSTORE PUSH1 0x24 DUP3 ADD DUP4 SWAP1 MSTORE SWAP1 SWAP3 SWAP1 PUSH1 0x20 SWAP1 DUP5 SWAP1 PUSH1 0x44 SWAP1 DUP3 SWAP1 PUSH1 0x0 SWAP1 PUSH1 0x1 PUSH1 0x1 PUSH1 0xA0 SHL SUB AND GAS CALL SWAP3 DUP4 ISZERO PUSH2 0x39A JUMPI PUSH1 0x20 SWAP4 PUSH2 0x103C SWAP2 PUSH1 0x0 SWAP2 PUSH2 0x1075 JUMPI POP PUSH2 0x1C28 JUMP JUMPDEST PUSH1 0x40 MLOAD SWAP1 DUP3 DUP3 MSTORE DUP4 DUP3 ADD MSTORE PUSH32 0x92CCF450A286A957AF52509BC1C9939D1A6A481783E142E41E2499F0BB66EBC6 PUSH1 0x40 CALLER SWAP3 LOG2 PUSH1 0x40 MLOAD SWAP1 DUP2 MSTORE RETURN JUMPDEST PUSH2 0x6D2 SWAP2 POP DUP6 RETURNDATASIZE DUP8 GT PUSH2 0x393 JUMPI PUSH2 0x385 DUP2 DUP4 PUSH2 0x1A23 JUMP JUMPDEST PUSH2 0x1096 SWAP1 DUP4 PUSH2 0x1AED JUMP JUMPDEST PUSH1 0x0 SWAP1 JUMPDEST PUSH1 0x9 SLOAD DUP3 LT ISZERO PUSH2 0x1338 JUMPI PUSH2 0x10AD DUP3 PUSH2 0x1A45 JUMP JUMPDEST PUSH1 0x1 DUP1 PUSH1 0xA0 SHL SUB SWAP2 SLOAD SWAP1 PUSH1 0x3 SHL SHR AND PUSH1 0x0 MSTORE PUSH1 0xA PUSH1 0x20 MSTORE PUSH1 0xFF PUSH1 0x40 PUSH1 0x0 KECCAK256 SLOAD AND ISZERO PUSH2 0x132F JUMPI PUSH1 0x4 PUSH1 0x20 PUSH2 0x10DF DUP5 PUSH2 0x1A45 JUMP JUMPDEST SWAP1 SLOAD PUSH1 0x40 MLOAD PUSH3 0x787445 PUSH1 0xE2 SHL DUP2 MSTORE SWAP4 DUP5 SWAP3 SWAP1 SWAP2 DUP4 SWAP2 PUSH1 0x3 SHL SHR PUSH1 0x1 PUSH1 0x1 PUSH1 0xA0 SHL SUB AND GAS STATICCALL SWAP1 DUP2 ISZERO PUSH2 0x39A JUMPI PUSH1 0x0 SWAP2 PUSH2 0x12FE JUMPI JUMPDEST POP DUP1 ISZERO PUSH2 0x12F4 JUMPI PUSH2 0x117E SWAP2 SWAP1 DUP1 DUP3 LT ISZERO PUSH2 0x12EC JUMPI POP PUSH1 0x20 DUP2 JUMPDEST PUSH2 0x1134 DUP6 PUSH2 0x1A45 JUMP JUMPDEST SWAP1 SLOAD PUSH1 0x2 SLOAD PUSH1 0x40 MLOAD PUSH4 0xF3FEF3A3 PUSH1 0xE0 SHL DUP2 MSTORE PUSH1 0x1 PUSH1 0x1 PUSH1 0xA0 SHL SUB SWAP2 DUP3 AND PUSH1 0x4 DUP3 ADD MSTORE PUSH1 0x24 DUP2 ADD SWAP5 SWAP1 SWAP5 MSTORE SWAP3 SWAP6 DUP7 SWAP4 PUSH1 0x3 SWAP4 SWAP1 SWAP4 SHL SWAP2 SWAP1 SWAP2 SHR SWAP1 SWAP2 AND SWAP1 DUP3 SWAP1 PUSH1 0x0 SWAP1 DUP3 SWAP1 PUSH1 0x44 DUP3 ADD SWAP1 JUMP JUMPDEST SUB SWAP3 GAS CALL SWAP2 DUP3 ISZERO PUSH2 0x39A JUMPI PUSH1 0x0 SWAP3 PUSH2 0x12B9 JUMPI JUMPDEST POP PUSH2 0x119B DUP4 PUSH2 0x1A45 JUMP JUMPDEST PUSH1 0x1 DUP1 PUSH1 0xA0 SHL SUB SWAP2 SLOAD SWAP1 PUSH1 0x3 SHL SHR AND PUSH1 0x0 MSTORE PUSH1 0xB PUSH1 0x20 MSTORE PUSH1 0x40 PUSH1 0x0 KECCAK256 PUSH2 0x11C2 DUP4 DUP3 SLOAD PUSH2 0x1AED JUMP JUMPDEST SWAP1 SSTORE DUP1 DUP3 LT ISZERO PUSH2 0x11E1 JUMPI PUSH1 0x1 SWAP2 PUSH2 0x11D8 SWAP2 PUSH2 0x1AED JUMP JUMPDEST SWAP2 JUMPDEST ADD SWAP1 PUSH2 0x109A JUMP JUMPDEST POP POP POP SWAP1 JUMPDEST PUSH1 0x2 SLOAD PUSH1 0x40 MLOAD PUSH4 0x70A08231 PUSH1 0xE0 SHL DUP2 MSTORE ADDRESS PUSH1 0x4 DUP3 ADD MSTORE SWAP1 PUSH1 0x20 SWAP1 DUP3 SWAP1 PUSH1 0x24 SWAP1 DUP3 SWAP1 PUSH1 0x1 PUSH1 0x1 PUSH1 0xA0 SHL SUB AND GAS STATICCALL DUP1 ISZERO PUSH2 0x39A JUMPI DUP3 SWAP2 PUSH1 0x0 SWAP2 PUSH2 0x1284 JUMPI JUMPDEST POP LT PUSH2 0x122F JUMPI SWAP1 DUP3 PUSH2 0xFAA JUMP JUMPDEST PUSH1 0x40 MLOAD PUSH3 0x461BCD PUSH1 0xE5 SHL DUP2 MSTORE PUSH1 0x20 PUSH1 0x4 DUP3 ADD MSTORE PUSH1 0x27 PUSH1 0x24 DUP3 ADD MSTORE PUSH32 0x496E73756666696369656E74206C697175696469747920616674657220776974 PUSH1 0x44 DUP3 ADD MSTORE PUSH7 0x1A191C985DD85B PUSH1 0xCA SHL PUSH1 0x64 DUP3 ADD MSTORE PUSH1 0x84 SWAP1 REVERT JUMPDEST SWAP2 POP POP PUSH1 0x20 DUP2 RETURNDATASIZE PUSH1 0x20 GT PUSH2 0x12B1 JUMPI JUMPDEST DUP2 PUSH2 0x12A0 PUSH1 0x20 SWAP4 DUP4 PUSH2 0x1A23 JUMP JUMPDEST DUP2 ADD SUB SLT PUSH2 0x179 JUMPI DUP2 SWAP1 MLOAD DUP5 PUSH2 0x1222 JUMP JUMPDEST RETURNDATASIZE SWAP2 POP PUSH2 0x1293 JUMP JUMPDEST SWAP1 SWAP2 PUSH1 0x20 DUP3 RETURNDATASIZE DUP3 GT PUSH2 0x12E4 JUMPI JUMPDEST DUP2 PUSH2 0x12D3 PUSH1 0x20 SWAP4 DUP4 PUSH2 0x1A23 JUMP JUMPDEST DUP2 ADD SUB SLT PUSH2 0x705 JUMPI POP MLOAD SWAP1 DUP6 PUSH2 0x1191 JUMP JUMPDEST RETURNDATASIZE SWAP2 POP PUSH2 0x12C6 JUMP JUMPDEST PUSH1 0x20 SWAP1 PUSH2 0x112B JUMP JUMPDEST POP SWAP1 PUSH1 0x1 SWAP1 PUSH2 0x11DA JUMP JUMPDEST SWAP1 PUSH1 0x20 DUP3 RETURNDATASIZE DUP3 GT PUSH2 0x1327 JUMPI JUMPDEST DUP2 PUSH2 0x1317 PUSH1 0x20 SWAP4 DUP4 PUSH2 0x1A23 JUMP JUMPDEST DUP2 ADD SUB SLT PUSH2 0x705 JUMPI POP MLOAD DUP6 PUSH2 0x1112 JUMP JUMPDEST RETURNDATASIZE SWAP2 POP PUSH2 0x130A JUMP JUMPDEST SWAP1 PUSH1 0x1 SWAP1 PUSH2 0x11DA JUMP JUMPDEST POP POP SWAP1 PUSH2 0x11E6 JUMP JUMPDEST SWAP1 PUSH1 0x20 DUP3 RETURNDATASIZE PUSH1 0x20 GT PUSH2 0x136A JUMPI JUMPDEST DUP2 PUSH2 0x135A PUSH1 0x20 SWAP4 DUP4 PUSH2 0x1A23 JUMP JUMPDEST DUP2 ADD SUB SLT PUSH2 0x705 JUMPI POP MLOAD DUP4 PUSH2 0xFA1 JUMP JUMPDEST RETURNDATASIZE SWAP2 POP PUSH2 0x134D JUMP JUMPDEST PUSH1 0x40 MLOAD PUSH3 0x461BCD PUSH1 0xE5 SHL DUP2 MSTORE PUSH1 0x20 PUSH1 0x4 DUP3 ADD MSTORE PUSH1 0xB PUSH1 0x24 DUP3 ADD MSTORE PUSH11 0x5A65726F20617373657473 PUSH1 0xA8 SHL PUSH1 0x44 DUP3 ADD MSTORE PUSH1 0x64 SWAP1 REVERT JUMPDEST PUSH1 0x40 MLOAD PUSH3 0x461BCD PUSH1 0xE5 SHL DUP2 MSTORE PUSH1 0x20 PUSH1 0x4 DUP3 ADD MSTORE PUSH1 0x13 PUSH1 0x24 DUP3 ADD MSTORE PUSH19 0x496E73756666696369656E7420736861726573 PUSH1 0x68 SHL PUSH1 0x44 DUP3 ADD MSTORE PUSH1 0x64 SWAP1 REVERT JUMPDEST POP CALLER PUSH1 0x0 MSTORE PUSH1 0x7 PUSH1 0x20 MSTORE DUP1 PUSH1 0x40 PUSH1 0x0 KECCAK256 SLOAD LT ISZERO PUSH2 0xF42 JUMP JUMPDEST CALLVALUE PUSH2 0x179 JUMPI PUSH1 0x20 CALLDATASIZE PUSH1 0x3 NOT ADD SLT PUSH2 0x179 JUMPI PUSH1 0x1 PUSH1 0x1 PUSH1 0xA0 SHL SUB PUSH2 0x1419 PUSH2 0x1A0D JUMP JUMPDEST AND PUSH1 0x0 MSTORE PUSH1 0x7 PUSH1 0x20 MSTORE PUSH1 0x20 PUSH1 0x40 PUSH1 0x0 KECCAK256 SLOAD PUSH1 0x40 MLOAD SWAP1 DUP2 MSTORE RETURN JUMPDEST CALLVALUE PUSH2 0x179 JUMPI PUSH1 0x0 CALLDATASIZE PUSH1 0x3 NOT ADD SLT PUSH2 0x179 JUMPI PUSH1 0x20 PUSH2 0x7E8 PUSH2 0x1AFA JUMP JUMPDEST CALLVALUE PUSH2 0x179 JUMPI PUSH1 0x20 CALLDATASIZE PUSH1 0x3 NOT ADD SLT PUSH2 0x179 JUMPI PUSH2 0x1466 PUSH2 0x1A0D JUMP JUMPDEST PUSH2 0x147B PUSH1 0x1 DUP1 PUSH1 0xA0 SHL SUB PUSH1 0x0 SLOAD AND CALLER EQ PUSH2 0x1A76 JUMP JUMPDEST PUSH1 0x1 PUSH1 0x1 PUSH1 0xA0 SHL SUB DUP2 AND PUSH1 0x0 DUP2 DUP2 MSTORE PUSH1 0xA PUSH1 0x20 MSTORE PUSH1 0x40 SWAP1 KECCAK256 SLOAD SWAP1 SWAP2 SWAP1 PUSH1 0xFF AND PUSH2 0x1540 JUMPI DUP2 PUSH1 0x0 MSTORE PUSH1 0xA PUSH1 0x20 MSTORE PUSH1 0x40 PUSH1 0x0 KECCAK256 PUSH1 0x1 PUSH1 0xFF NOT DUP3 SLOAD AND OR SWAP1 SSTORE PUSH1 0x9 SLOAD SWAP1 PUSH9 0x10000000000000000 DUP3 LT ISZERO PUSH2 0x152A JUMPI PUSH2 0x14DF DUP3 PUSH1 0x1 PUSH2 0x1503 SWAP5 ADD PUSH1 0x9 SSTORE PUSH2 0x1A45 JUMP JUMPDEST DUP2 SLOAD PUSH1 0x1 PUSH1 0x1 PUSH1 0xA0 SHL SUB SWAP4 DUP5 AND PUSH1 0x3 SWAP3 SWAP1 SWAP3 SHL SWAP2 DUP3 SHL SWAP4 SWAP1 SWAP2 SHL NOT AND SWAP2 SWAP1 SWAP2 OR SWAP1 SSTORE JUMP JUMPDEST PUSH32 0x3F008FD510EAE7A9E7BEE13513D7B83BEF8003D488B5A3D0B0DA4DE71D6846F1 PUSH1 0x0 DUP1 LOG2 STOP JUMPDEST PUSH4 0x4E487B71 PUSH1 0xE0 SHL PUSH1 0x0 MSTORE PUSH1 0x41 PUSH1 0x4 MSTORE PUSH1 0x24 PUSH1 0x0 REVERT JUMPDEST PUSH1 0x40 MLOAD PUSH3 0x461BCD PUSH1 0xE5 SHL DUP2 MSTORE PUSH1 0x20 PUSH1 0x4 DUP3 ADD MSTORE PUSH1 0xD PUSH1 0x24 DUP3 ADD MSTORE PUSH13 0x105B1C9958591E481859191959 PUSH1 0x9A SHL PUSH1 0x44 DUP3 ADD MSTORE PUSH1 0x64 SWAP1 REVERT JUMPDEST CALLVALUE PUSH2 0x179 JUMPI PUSH1 0x0 CALLDATASIZE PUSH1 0x3 NOT ADD SLT PUSH2 0x179 JUMPI PUSH1 0x20 PUSH1 0x9 SLOAD PUSH1 0x40 MLOAD SWAP1 DUP2 MSTORE RETURN JUMPDEST CALLVALUE PUSH2 0x179 JUMPI PUSH1 0x20 CALLDATASIZE PUSH1 0x3 NOT ADD SLT PUSH2 0x179 JUMPI PUSH2 0x15AC PUSH2 0x1A0D JUMP JUMPDEST PUSH2 0x15C1 PUSH1 0x1 DUP1 PUSH1 0xA0 SHL SUB PUSH1 0x0 SLOAD AND CALLER EQ PUSH2 0x1A76 JUMP JUMPDEST PUSH1 0x1 PUSH1 0x1 PUSH1 0xA0 SHL SUB AND PUSH1 0x0 DUP2 DUP2 MSTORE PUSH1 0xA PUSH1 0x20 MSTORE PUSH1 0x40 SWAP1 KECCAK256 SLOAD PUSH1 0xFF AND ISZERO PUSH2 0x16E9 JUMPI PUSH1 0x0 DUP2 DUP2 MSTORE PUSH1 0xA PUSH1 0x20 MSTORE PUSH1 0x40 DUP2 KECCAK256 DUP1 SLOAD PUSH1 0xFF NOT AND SWAP1 SSTORE JUMPDEST PUSH1 0x9 SLOAD SWAP1 DUP2 DUP2 LT ISZERO PUSH2 0x16E2 JUMPI DUP3 PUSH2 0x160E DUP3 PUSH2 0x1A45 JUMP JUMPDEST SWAP1 SLOAD PUSH1 0x3 SWAP2 SWAP1 SWAP2 SHL SHR PUSH1 0x1 PUSH1 0x1 PUSH1 0xA0 SHL SUB AND EQ PUSH2 0x162F JUMPI PUSH1 0x1 SWAP2 POP ADD PUSH2 0x15F8 JUMP JUMPDEST PUSH1 0x0 NOT DUP3 ADD SWAP2 DUP3 GT PUSH2 0x16CC JUMPI PUSH2 0x14DF PUSH2 0x164A PUSH2 0x1662 SWAP4 PUSH2 0x1A45 JUMP JUMPDEST SWAP1 SLOAD PUSH1 0x3 SWAP2 SWAP1 SWAP2 SHL SHR PUSH1 0x1 PUSH1 0x1 PUSH1 0xA0 SHL SUB AND SWAP2 PUSH2 0x1A45 JUMP JUMPDEST PUSH1 0x9 SLOAD DUP1 ISZERO PUSH2 0x16B6 JUMPI PUSH1 0x0 NOT ADD PUSH2 0x1678 DUP2 PUSH2 0x1A45 JUMP JUMPDEST DUP2 SLOAD SWAP1 PUSH1 0x1 DUP1 PUSH1 0xA0 SHL SUB SWAP1 PUSH1 0x3 SHL SHL NOT AND SWAP1 SSTORE PUSH1 0x9 SSTORE JUMPDEST PUSH32 0x9A1DB4B80C32706328728508C941A6B954F31EB5AFFD32F236C1FD405F8FEA4 PUSH1 0x0 DUP1 LOG2 STOP JUMPDEST PUSH4 0x4E487B71 PUSH1 0xE0 SHL PUSH1 0x0 MSTORE PUSH1 0x31 PUSH1 0x4 MSTORE PUSH1 0x24 PUSH1 0x0 REVERT JUMPDEST PUSH4 0x4E487B71 PUSH1 0xE0 SHL PUSH1 0x0 MSTORE PUSH1 0x11 PUSH1 0x4 MSTORE PUSH1 0x24 PUSH1 0x0 REVERT JUMPDEST POP POP PUSH2 0x168F JUMP JUMPDEST PUSH1 0x40 MLOAD PUSH3 0x461BCD PUSH1 0xE5 SHL DUP2 MSTORE PUSH1 0x20 PUSH1 0x4 DUP3 ADD MSTORE PUSH1 0x9 PUSH1 0x24 DUP3 ADD MSTORE PUSH9 0x139BDD08199BDD5B99 PUSH1 0xBA SHL PUSH1 0x44 DUP3 ADD MSTORE PUSH1 0x64 SWAP1 REVERT JUMPDEST CALLVALUE PUSH2 0x179 JUMPI PUSH1 0x0 CALLDATASIZE PUSH1 0x3 NOT ADD SLT PUSH2 0x179 JUMPI PUSH1 0x40 MLOAD PUSH1 0x0 PUSH1 0x1 SLOAD SWAP1 DUP2 PUSH1 0x1 SHR SWAP2 PUSH1 0x1 DUP2 AND DUP1 ISZERO PUSH2 0x1852 JUMPI JUMPDEST PUSH1 0x20 DUP5 LT DUP2 EQ PUSH2 0x183E JUMPI DUP4 DUP6 MSTORE DUP5 SWAP3 SWAP2 DUP2 ISZERO PUSH2 0x181F JUMPI POP PUSH1 0x1 EQ PUSH2 0x17BE JUMPI JUMPDEST PUSH2 0x176F SWAP3 POP SUB DUP3 PUSH2 0x1A23 JUMP JUMPDEST PUSH1 0x40 MLOAD SWAP1 PUSH1 0x20 DUP3 MSTORE DUP2 DUP2 MLOAD SWAP2 DUP3 PUSH1 0x20 DUP4 ADD MSTORE PUSH1 0x0 JUMPDEST DUP4 DUP2 LT PUSH2 0x17A6 JUMPI POP POP DUP2 PUSH1 0x0 PUSH1 0x40 DUP1 SWAP5 DUP5 ADD ADD MSTORE PUSH1 0x1F DUP1 NOT SWAP2 ADD AND DUP2 ADD SUB ADD SWAP1 RETURN JUMPDEST PUSH1 0x20 DUP3 DUP3 ADD DUP2 ADD MLOAD PUSH1 0x40 DUP8 DUP5 ADD ADD MSTORE DUP6 SWAP4 POP ADD PUSH2 0x1784 JUMP JUMPDEST POP SWAP1 PUSH1 0x1 PUSH1 0x0 MSTORE PUSH32 0xB10E2D527612073B26EECDFD717E6A320CF44B4AFAC2B0732D9FCBE2B7FA0CF6 SWAP1 PUSH1 0x0 SWAP2 JUMPDEST DUP2 DUP4 LT PUSH2 0x1803 JUMPI POP POP SWAP1 PUSH1 0x20 PUSH2 0x176F SWAP3 DUP3 ADD ADD PUSH2 0x1763 JUMP JUMPDEST PUSH1 0x20 SWAP2 SWAP4 POP DUP1 PUSH1 0x1 SWAP2 SLOAD DUP4 DUP6 DUP9 ADD ADD MSTORE ADD SWAP2 ADD SWAP1 SWAP2 DUP4 SWAP3 PUSH2 0x17EB JUMP JUMPDEST PUSH1 0x20 SWAP3 POP PUSH2 0x176F SWAP5 SWAP2 POP PUSH1 0xFF NOT AND DUP3 DUP5 ADD MSTORE ISZERO ISZERO PUSH1 0x5 SHL DUP3 ADD ADD PUSH2 0x1763 JUMP JUMPDEST PUSH4 0x4E487B71 PUSH1 0xE0 SHL DUP4 MSTORE PUSH1 0x22 PUSH1 0x4 MSTORE PUSH1 0x24 DUP4 REVERT JUMPDEST SWAP3 PUSH1 0x7F AND SWAP3 PUSH2 0x1744 JUMP JUMPDEST CALLVALUE PUSH2 0x179 JUMPI PUSH1 0x40 CALLDATASIZE PUSH1 0x3 NOT ADD SLT PUSH2 0x179 JUMPI PUSH2 0x1875 PUSH2 0x1A0D JUMP JUMPDEST PUSH1 0x24 CALLDATALOAD SWAP1 PUSH2 0x188E PUSH1 0x1 DUP1 PUSH1 0xA0 SHL SUB PUSH1 0x0 SLOAD AND CALLER EQ PUSH2 0x1A76 JUMP JUMPDEST PUSH2 0x1896 PUSH2 0x1CF5 JUMP JUMPDEST POP PUSH1 0x1 DUP1 PUSH1 0xA0 SHL SUB AND SWAP1 DUP2 PUSH1 0x0 MSTORE PUSH1 0xA PUSH1 0x20 MSTORE PUSH2 0x18BA PUSH1 0xFF PUSH1 0x40 PUSH1 0x0 KECCAK256 SLOAD AND PUSH2 0x1AAE JUMP JUMPDEST PUSH1 0x40 MLOAD PUSH3 0x787445 PUSH1 0xE2 SHL DUP2 MSTORE PUSH1 0x20 DUP2 PUSH1 0x4 DUP2 DUP7 GAS STATICCALL SWAP1 DUP2 ISZERO PUSH2 0x39A JUMPI PUSH1 0x0 SWAP2 PUSH2 0x19DB JUMPI JUMPDEST POP DUP2 GT PUSH2 0x1996 JUMPI PUSH1 0x2 SLOAD PUSH1 0x40 MLOAD PUSH4 0xF3FEF3A3 PUSH1 0xE0 SHL DUP2 MSTORE PUSH1 0x1 PUSH1 0x1 PUSH1 0xA0 SHL SUB SWAP1 SWAP2 AND PUSH1 0x4 DUP3 ADD MSTORE PUSH1 0x24 DUP2 ADD SWAP2 SWAP1 SWAP2 MSTORE PUSH1 0x20 DUP2 PUSH1 0x44 DUP2 PUSH1 0x0 DUP7 GAS CALL SWAP1 DUP2 ISZERO PUSH2 0x39A JUMPI PUSH1 0x0 SWAP2 PUSH2 0x1963 JUMPI JUMPDEST PUSH1 0x0 PUSH32 0x1427D1942829759938581CE754FD0F7F116BFB7A4B77F80F0CB32CD62C2138C7 PUSH1 0x20 DUP5 DUP7 DUP5 MSTORE PUSH1 0xB DUP3 MSTORE PUSH1 0x40 DUP5 KECCAK256 PUSH2 0x67B DUP3 DUP3 SLOAD PUSH2 0x1AED JUMP JUMPDEST SWAP1 PUSH1 0x20 DUP3 RETURNDATASIZE PUSH1 0x20 GT PUSH2 0x198E JUMPI JUMPDEST DUP2 PUSH2 0x197D PUSH1 0x20 SWAP4 DUP4 PUSH2 0x1A23 JUMP JUMPDEST DUP2 ADD SUB SLT PUSH2 0x705 JUMPI POP MLOAD PUSH1 0x20 PUSH2 0x1927 JUMP JUMPDEST RETURNDATASIZE SWAP2 POP PUSH2 0x1970 JUMP JUMPDEST PUSH1 0x40 MLOAD PUSH3 0x461BCD PUSH1 0xE5 SHL DUP2 MSTORE PUSH1 0x20 PUSH1 0x4 DUP3 ADD MSTORE PUSH1 0x18 PUSH1 0x24 DUP3 ADD MSTORE PUSH32 0x496E73756666696369656E7420696E2073747261746567790000000000000000 PUSH1 0x44 DUP3 ADD MSTORE PUSH1 0x64 SWAP1 REVERT JUMPDEST SWAP1 POP PUSH1 0x20 DUP2 RETURNDATASIZE PUSH1 0x20 GT PUSH2 0x1A05 JUMPI JUMPDEST DUP2 PUSH2 0x19F6 PUSH1 0x20 SWAP4 DUP4 PUSH2 0x1A23 JUMP JUMPDEST DUP2 ADD SUB SLT PUSH2 0x179 JUMPI MLOAD DUP4 PUSH2 0x18DE JUMP JUMPDEST RETURNDATASIZE SWAP2 POP PUSH2 0x19E9 JUMP JUMPDEST PUSH1 0x4 CALLDATALOAD SWAP1 PUSH1 0x1 PUSH1 0x1 PUSH1 0xA0 SHL SUB DUP3 AND DUP3 SUB PUSH2 0x179 JUMPI JUMP JUMPDEST SWAP1 PUSH1 0x1F DUP1 NOT SWAP2 ADD AND DUP2 ADD SWAP1 DUP2 LT PUSH8 0xFFFFFFFFFFFFFFFF DUP3 GT OR PUSH2 0x152A JUMPI PUSH1 0x40 MSTORE JUMP JUMPDEST PUSH1 0x9 SLOAD DUP2 LT ISZERO PUSH2 0x1A60 JUMPI PUSH1 0x9 PUSH1 0x0 MSTORE PUSH1 0x20 PUSH1 0x0 KECCAK256 ADD SWAP1 PUSH1 0x0 SWAP1 JUMP JUMPDEST PUSH4 0x4E487B71 PUSH1 0xE0 SHL PUSH1 0x0 MSTORE PUSH1 0x32 PUSH1 0x4 MSTORE PUSH1 0x24 PUSH1 0x0 REVERT JUMPDEST ISZERO PUSH2 0x1A7D JUMPI JUMP JUMPDEST PUSH1 0x40 MLOAD PUSH3 0x461BCD PUSH1 0xE5 SHL DUP2 MSTORE PUSH1 0x20 PUSH1 0x4 DUP3 ADD MSTORE PUSH1 0x9 PUSH1 0x24 DUP3 ADD MSTORE PUSH9 0x2737BA1037BBB732B9 PUSH1 0xB9 SHL PUSH1 0x44 DUP3 ADD MSTORE PUSH1 0x64 SWAP1 REVERT JUMPDEST ISZERO PUSH2 0x1AB5 JUMPI JUMP JUMPDEST PUSH1 0x40 MLOAD PUSH3 0x461BCD PUSH1 0xE5 SHL DUP2 MSTORE PUSH1 0x20 PUSH1 0x4 DUP3 ADD MSTORE PUSH1 0x10 PUSH1 0x24 DUP3 ADD MSTORE PUSH16 0x496E76616C6964207374726174656779 PUSH1 0x80 SHL PUSH1 0x44 DUP3 ADD MSTORE PUSH1 0x64 SWAP1 REVERT JUMPDEST SWAP2 SWAP1 DUP3 SUB SWAP2 DUP3 GT PUSH2 0x16CC JUMPI JUMP JUMPDEST PUSH1 0x9 SLOAD DUP1 ISZERO PUSH2 0x1BD6 JUMPI PUSH1 0x0 NOT SWAP1 PUSH1 0x0 JUMPDEST DUP2 DUP2 LT PUSH2 0x1B16 JUMPI POP POP SWAP1 JUMP JUMPDEST PUSH2 0x1B1F DUP2 PUSH2 0x1A45 JUMP JUMPDEST PUSH1 0x1 DUP1 PUSH1 0xA0 SHL SUB SWAP2 SLOAD SWAP1 PUSH1 0x3 SHL SHR AND PUSH1 0x0 MSTORE PUSH1 0xA PUSH1 0x20 MSTORE PUSH1 0xFF PUSH1 0x40 PUSH1 0x0 KECCAK256 SLOAD AND PUSH2 0x1B4C JUMPI JUMPDEST PUSH1 0x1 ADD PUSH2 0x1B0A JUMP JUMPDEST PUSH1 0x4 PUSH1 0x20 PUSH2 0x1B59 DUP4 PUSH2 0x1A45 JUMP JUMPDEST SWAP1 SLOAD PUSH1 0x40 MLOAD PUSH4 0x22841F01 PUSH1 0xE0 SHL DUP2 MSTORE SWAP4 DUP5 SWAP3 SWAP1 SWAP2 DUP4 SWAP2 PUSH1 0x3 SHL SHR PUSH1 0x1 PUSH1 0x1 PUSH1 0xA0 SHL SUB AND GAS STATICCALL SWAP1 DUP2 ISZERO PUSH2 0x39A JUMPI PUSH1 0x0 SWAP2 PUSH2 0x1BA5 JUMPI JUMPDEST POP DUP4 DUP2 LT PUSH2 0x1B9C JUMPI JUMPDEST POP PUSH2 0x1B44 JUMP JUMPDEST SWAP3 POP PUSH1 0x1 PUSH2 0x1B96 JUMP JUMPDEST SWAP1 PUSH1 0x20 DUP3 RETURNDATASIZE DUP3 GT PUSH2 0x1BCE JUMPI JUMPDEST DUP2 PUSH2 0x1BBE PUSH1 0x20 SWAP4 DUP4 PUSH2 0x1A23 JUMP JUMPDEST DUP2 ADD SUB SLT PUSH2 0x705 JUMPI POP MLOAD CODESIZE PUSH2 0x1B8D JUMP JUMPDEST RETURNDATASIZE SWAP2 POP PUSH2 0x1BB1 JUMP JUMPDEST POP PUSH1 0x0 NOT SWAP1 JUMP JUMPDEST DUP2 DUP2 MUL SWAP3 SWAP2 DUP2 ISZERO SWAP2 DUP5 DIV EQ OR ISZERO PUSH2 0x16CC JUMPI JUMP JUMPDEST DUP2 ISZERO PUSH2 0x1BFA JUMPI DIV SWAP1 JUMP JUMPDEST PUSH4 0x4E487B71 PUSH1 0xE0 SHL PUSH1 0x0 MSTORE PUSH1 0x12 PUSH1 0x4 MSTORE PUSH1 0x24 PUSH1 0x0 REVERT JUMPDEST SWAP1 DUP2 PUSH1 0x20 SWAP2 SUB SLT PUSH2 0x179 JUMPI MLOAD DUP1 ISZERO ISZERO DUP2 SUB PUSH2 0x179 JUMPI SWAP1 JUMP JUMPDEST ISZERO PUSH2 0x1C2F JUMPI JUMP JUMPDEST PUSH1 0x40 MLOAD PUSH3 0x461BCD PUSH1 0xE5 SHL DUP2 MSTORE PUSH1 0x20 PUSH1 0x4 DUP3 ADD MSTORE PUSH1 0xF PUSH1 0x24 DUP3 ADD MSTORE PUSH15 0x151C985B9CD9995C8819985A5B1959 PUSH1 0x8A SHL PUSH1 0x44 DUP3 ADD MSTORE PUSH1 0x64 SWAP1 REVERT JUMPDEST SWAP2 SWAP1 DUP3 ADD DUP1 SWAP3 GT PUSH2 0x16CC JUMPI JUMP JUMPDEST PUSH1 0x3 SLOAD DUP1 ISZERO PUSH2 0x1CAA JUMPI PUSH2 0x1CA7 SWAP2 PUSH1 0x1 DUP1 PUSH1 0xA0 SHL SUB AND PUSH1 0x0 MSTORE PUSH1 0x7 PUSH1 0x20 MSTORE PUSH2 0x1CA2 PUSH1 0x40 PUSH1 0x0 KECCAK256 SLOAD PUSH1 0x4 SLOAD SWAP1 PUSH2 0x1BDD JUMP JUMPDEST PUSH2 0x1BF0 JUMP JUMPDEST SWAP1 JUMP JUMPDEST POP POP PUSH1 0x0 SWAP1 JUMP JUMPDEST PUSH1 0x3 SLOAD DUP1 ISZERO PUSH2 0x1CE8 JUMPI PUSH1 0x4 SLOAD SWAP1 PUSH8 0xDE0B6B3A7640000 DUP3 MUL SWAP2 DUP1 DUP4 DIV PUSH8 0xDE0B6B3A7640000 EQ SWAP1 ISZERO OR ISZERO PUSH2 0x16CC JUMPI PUSH2 0x1CA7 SWAP2 PUSH2 0x1BF0 JUMP JUMPDEST POP PUSH8 0xDE0B6B3A7640000 SWAP1 JUMP JUMPDEST PUSH1 0x0 SWAP1 PUSH1 0x0 JUMPDEST PUSH1 0x9 SLOAD DUP2 LT ISZERO PUSH2 0x1DD8 JUMPI PUSH2 0x1D0E DUP2 PUSH2 0x1A45 JUMP JUMPDEST PUSH1 0x1 DUP1 PUSH1 0xA0 SHL SUB SWAP2 SLOAD SWAP1 PUSH1 0x3 SHL SHR AND PUSH1 0x0 MSTORE PUSH1 0xA PUSH1 0x20 MSTORE PUSH1 0xFF PUSH1 0x40 PUSH1 0x0 KECCAK256 SLOAD AND PUSH2 0x1D3B JUMPI JUMPDEST PUSH1 0x1 ADD PUSH2 0x1CFB JUMP JUMPDEST PUSH1 0x0 SWAP3 PUSH1 0x20 PUSH2 0x1D49 DUP4 PUSH2 0x1A45 JUMP JUMPDEST SWAP1 SLOAD PUSH1 0x40 MLOAD PUSH4 0x4641257D PUSH1 0xE0 SHL DUP2 MSTORE SWAP7 DUP8 SWAP3 PUSH1 0x4 SWAP3 DUP5 SWAP3 SWAP2 PUSH1 0x3 SHL SHR PUSH1 0x1 PUSH1 0x1 PUSH1 0xA0 SHL SUB AND GAS CALL SWAP4 DUP5 ISZERO PUSH2 0x39A JUMPI PUSH1 0x0 SWAP5 PUSH2 0x1DA3 JUMPI JUMPDEST POP SWAP1 PUSH2 0x1D99 PUSH2 0x1D90 DUP6 PUSH1 0x1 SWAP5 PUSH2 0x1C66 JUMP JUMPDEST SWAP5 PUSH1 0x4 SLOAD PUSH2 0x1C66 JUMP JUMPDEST PUSH1 0x4 SSTORE SWAP1 POP PUSH2 0x1D33 JUMP JUMPDEST SWAP1 SWAP4 PUSH1 0x20 DUP3 RETURNDATASIZE DUP3 GT PUSH2 0x1DD0 JUMPI JUMPDEST DUP2 PUSH2 0x1DBD PUSH1 0x20 SWAP4 DUP4 PUSH2 0x1A23 JUMP JUMPDEST DUP2 ADD SUB SLT PUSH2 0x705 JUMPI POP MLOAD SWAP3 PUSH2 0x1D99 PUSH2 0x1D7F JUMP JUMPDEST RETURNDATASIZE SWAP2 POP PUSH2 0x1DB0 JUMP JUMPDEST POP DUP2 PUSH2 0x1DE0 JUMPI JUMP JUMPDEST PUSH32 0xFA07446FAD45314351EB89109A154880278451332BB87F1824D435FE58DA5939 PUSH1 0x40 PUSH2 0x2710 PUSH2 0x1E12 PUSH1 0x6 SLOAD DUP7 PUSH2 0x1BDD JUMP JUMPDEST DIV PUSH2 0x1E1F DUP2 PUSH1 0x5 SLOAD PUSH2 0x1C66 JUMP JUMPDEST PUSH1 0x5 SSTORE DUP2 MLOAD SWAP1 DUP6 DUP3 MSTORE PUSH1 0x20 DUP3 ADD MSTORE LOG1 JUMP INVALID LOG2 PUSH5 0x6970667358 0x22 SLT KECCAK256 COINBASE 0xA5 0xD3 0xEA CREATE2 EQ SWAP14 0x4D PUSH9 0x80FC689C244831AB84 PUSH31 0x9066B9C45E60F422E4C90CDA0164736F6C634300081C003360806040523461 SUB SWAP9 JUMPI PUSH2 0xBE1 PUSH1 0x20 DUP2 CODESIZE SUB SWAP2 DUP3 PUSH2 0x1C DUP2 PUSH2 0x39D JUMP JUMPDEST SWAP4 DUP5 SWAP3 DUP4 CODECOPY DUP2 ADD SUB SLT PUSH2 0x398 JUMPI MLOAD PUSH1 0x1 PUSH1 0x1 PUSH1 0xA0 SHL SUB DUP2 AND SWAP1 DUP2 SWAP1 SUB PUSH2 0x398 JUMPI PUSH2 0x46 PUSH1 0x40 PUSH2 0x39D JUMP JUMPDEST SWAP1 PUSH1 0xE DUP3 MSTORE PUSH14 0x4161766520563320537570706C79 PUSH1 0x90 SHL PUSH1 0x20 DUP4 ADD MSTORE PUSH2 0x6C PUSH1 0x40 PUSH2 0x39D JUMP JUMPDEST PUSH1 0x7 DUP2 MSTORE PUSH7 0x41617665205633 PUSH1 0xC8 SHL PUSH1 0x20 DUP3 ADD MSTORE DUP3 MLOAD SWAP1 SWAP2 SWAP1 PUSH1 0x1 PUSH1 0x1 PUSH1 0x40 SHL SUB DUP2 GT PUSH2 0x2A3 JUMPI PUSH1 0x0 SLOAD PUSH1 0x1 DUP2 DUP2 SHR SWAP2 AND DUP1 ISZERO PUSH2 0x38E JUMPI JUMPDEST PUSH1 0x20 DUP3 LT EQ PUSH2 0x283 JUMPI PUSH1 0x1F DUP2 GT PUSH2 0x32A JUMPI JUMPDEST POP PUSH1 0x20 PUSH1 0x1F DUP3 GT PUSH1 0x1 EQ PUSH2 0x2C4 JUMPI DUP2 SWAP3 SWAP4 SWAP5 PUSH1 0x0 SWAP3 PUSH2 0x2B9 JUMPI JUMPDEST POP POP DUP2 PUSH1 0x1 SHL SWAP2 PUSH1 0x0 NOT SWAP1 PUSH1 0x3 SHL SHR NOT AND OR PUSH1 0x0 SSTORE JUMPDEST DUP2 MLOAD PUSH1 0x1 PUSH1 0x1 PUSH1 0x40 SHL SUB DUP2 GT PUSH2 0x2A3 JUMPI PUSH1 0x1 SLOAD PUSH1 0x1 DUP2 DUP2 SHR SWAP2 AND DUP1 ISZERO PUSH2 0x299 JUMPI JUMPDEST PUSH1 0x20 DUP3 LT EQ PUSH2 0x283 JUMPI PUSH1 0x1F DUP2 GT PUSH2 0x21E JUMPI JUMPDEST POP PUSH1 0x20 SWAP3 PUSH1 0x1F DUP3 GT PUSH1 0x1 EQ PUSH2 0x1B9 JUMPI SWAP3 DUP2 SWAP3 SWAP4 PUSH1 0x0 SWAP3 PUSH2 0x1AE JUMPI JUMPDEST POP POP DUP2 PUSH1 0x1 SHL SWAP2 PUSH1 0x0 NOT SWAP1 PUSH1 0x3 SHL SHR NOT AND OR PUSH1 0x1 SSTORE JUMPDEST PUSH1 0x3 DUP1 SLOAD PUSH1 0x1 PUSH1 0x1 PUSH1 0xA0 SHL SUB NOT SWAP1 DUP2 AND SWAP3 SWAP1 SWAP3 OR SWAP1 SSTORE PUSH1 0x2 DUP1 SLOAD SWAP1 SWAP2 AND CALLER OR SWAP1 SSTORE PUSH8 0x22B1C8C1227A0000 PUSH1 0x6 SSTORE PUSH7 0xDC44ABE8130000 PUSH1 0x8 DUP2 SWAP1 SSTORE PUSH1 0x5 SSTORE PUSH8 0xB1A2BC2EC500000 PUSH1 0x9 SSTORE PUSH8 0x9B6E64A8EC60000 PUSH1 0xA SSTORE PUSH1 0x40 MLOAD PUSH2 0x81E SWAP1 DUP2 PUSH2 0x3C3 DUP3 CODECOPY RETURN JUMPDEST ADD MLOAD SWAP1 POP CODESIZE DUP1 PUSH2 0x134 JUMP JUMPDEST PUSH1 0x1F NOT DUP3 AND SWAP4 PUSH1 0x1 PUSH1 0x0 MSTORE DUP1 PUSH1 0x0 KECCAK256 SWAP2 PUSH1 0x0 JUMPDEST DUP7 DUP2 LT PUSH2 0x206 JUMPI POP DUP4 PUSH1 0x1 SWAP6 SWAP7 LT PUSH2 0x1ED JUMPI JUMPDEST POP POP POP DUP2 SHL ADD PUSH1 0x1 SSTORE PUSH2 0x14A JUMP JUMPDEST ADD MLOAD PUSH1 0x0 NOT PUSH1 0xF8 DUP5 PUSH1 0x3 SHL AND SHR NOT AND SWAP1 SSTORE CODESIZE DUP1 DUP1 PUSH2 0x1DF JUMP JUMPDEST SWAP2 SWAP3 PUSH1 0x20 PUSH1 0x1 DUP2 SWAP3 DUP7 DUP6 ADD MLOAD DUP2 SSTORE ADD SWAP5 ADD SWAP3 ADD PUSH2 0x1CC JUMP JUMPDEST PUSH1 0x1 PUSH1 0x0 MSTORE PUSH32 0xB10E2D527612073B26EECDFD717E6A320CF44B4AFAC2B0732D9FCBE2B7FA0CF6 PUSH1 0x1F DUP4 ADD PUSH1 0x5 SHR DUP2 ADD SWAP2 PUSH1 0x20 DUP5 LT PUSH2 0x279 JUMPI JUMPDEST PUSH1 0x1F ADD PUSH1 0x5 SHR ADD SWAP1 JUMPDEST DUP2 DUP2 LT PUSH2 0x26D JUMPI POP PUSH2 0x119 JUMP JUMPDEST PUSH1 0x0 DUP2 SSTORE PUSH1 0x1 ADD PUSH2 0x260 JUMP JUMPDEST SWAP1 SWAP2 POP DUP2 SWAP1 PUSH2 0x257 JUMP JUMPDEST PUSH4 0x4E487B71 PUSH1 0xE0 SHL PUSH1 0x0 MSTORE PUSH1 0x22 PUSH1 0x4 MSTORE PUSH1 0x24 PUSH1 0x0 REVERT JUMPDEST SWAP1 PUSH1 0x7F AND SWAP1 PUSH2 0x107 JUMP JUMPDEST PUSH4 0x4E487B71 PUSH1 0xE0 SHL PUSH1 0x0 MSTORE PUSH1 0x41 PUSH1 0x4 MSTORE PUSH1 0x24 PUSH1 0x0 REVERT JUMPDEST ADD MLOAD SWAP1 POP CODESIZE DUP1 PUSH2 0xD0 JUMP JUMPDEST PUSH1 0x1F NOT DUP3 AND SWAP1 PUSH1 0x0 DUP1 MSTORE DUP1 PUSH1 0x0 KECCAK256 SWAP2 PUSH1 0x0 JUMPDEST DUP2 DUP2 LT PUSH2 0x312 JUMPI POP SWAP6 DUP4 PUSH1 0x1 SWAP6 SWAP7 SWAP8 LT PUSH2 0x2F9 JUMPI JUMPDEST POP POP POP DUP2 SHL ADD PUSH1 0x0 SSTORE PUSH2 0xE6 JUMP JUMPDEST ADD MLOAD PUSH1 0x0 NOT PUSH1 0xF8 DUP5 PUSH1 0x3 SHL AND SHR NOT AND SWAP1 SSTORE CODESIZE DUP1 DUP1 PUSH2 0x2EB JUMP JUMPDEST SWAP2 SWAP3 PUSH1 0x20 PUSH1 0x1 DUP2 SWAP3 DUP7 DUP12 ADD MLOAD DUP2 SSTORE ADD SWAP5 ADD SWAP3 ADD PUSH2 0x2D6 JUMP JUMPDEST PUSH1 0x0 DUP1 MSTORE PUSH32 0x290DECD9548B62A8D60345A988386FC84BA6BC95484008F6362F93160EF3E563 PUSH1 0x1F DUP4 ADD PUSH1 0x5 SHR DUP2 ADD SWAP2 PUSH1 0x20 DUP5 LT PUSH2 0x384 JUMPI JUMPDEST PUSH1 0x1F ADD PUSH1 0x5 SHR ADD SWAP1 JUMPDEST DUP2 DUP2 LT PUSH2 0x378 JUMPI POP PUSH2 0xB6 JUMP JUMPDEST PUSH1 0x0 DUP2 SSTORE PUSH1 0x1 ADD PUSH2 0x36B JUMP JUMPDEST SWAP1 SWAP2 POP DUP2 SWAP1 PUSH2 0x362 JUMP JUMPDEST SWAP1 PUSH1 0x7F AND SWAP1 PUSH2 0xA4 JUMP JUMPDEST PUSH1 0x0 DUP1 REVERT JUMPDEST PUSH1 0x40 MLOAD SWAP2 SWAP1 PUSH1 0x1F ADD PUSH1 0x1F NOT AND DUP3 ADD PUSH1 0x1 PUSH1 0x1 PUSH1 0x40 SHL SUB DUP2 GT DUP4 DUP3 LT OR PUSH2 0x2A3 JUMPI PUSH1 0x40 MSTORE JUMP INVALID PUSH1 0x80 DUP1 PUSH1 0x40 MSTORE PUSH1 0x4 CALLDATASIZE LT ISZERO PUSH2 0x13 JUMPI PUSH1 0x0 DUP1 REVERT JUMPDEST PUSH1 0x0 CALLDATALOAD PUSH1 0xE0 SHR SWAP1 DUP2 PUSH4 0x1E1D114 EQ PUSH2 0x6D2 JUMPI POP DUP1 PUSH4 0x6FDDE03 EQ PUSH2 0x618 JUMPI DUP1 PUSH4 0xC191763 EQ PUSH2 0x5FA JUMPI DUP1 PUSH4 0x22841F01 EQ PUSH2 0x5DC JUMPI DUP1 PUSH4 0x23A4DEB5 EQ PUSH2 0x5B6 JUMPI DUP1 PUSH4 0x38D52E0F EQ PUSH2 0x58D JUMPI DUP1 PUSH4 0x3BCFC4B8 EQ PUSH2 0x23D JUMPI DUP1 PUSH4 0x4031234C EQ PUSH2 0x56F JUMPI DUP1 PUSH4 0x4641257D EQ PUSH2 0x4BB JUMPI DUP1 PUSH4 0x47E7EF24 EQ PUSH2 0x461 JUMPI DUP1 PUSH4 0x6817031B EQ PUSH2 0x404 JUMPI DUP1 PUSH4 0x6FB49D73 EQ PUSH2 0x3E6 JUMPI DUP1 PUSH4 0x8770CCC7 EQ PUSH2 0x3B8 JUMPI DUP1 PUSH4 0x8CE74426 EQ PUSH2 0x297 JUMPI DUP1 PUSH4 0xA218141B EQ PUSH2 0x279 JUMPI DUP1 PUSH4 0xAD2961A3 EQ PUSH2 0x25B JUMPI DUP1 PUSH4 0xB996DE67 EQ PUSH2 0x23D JUMPI DUP1 PUSH4 0xE4020804 EQ PUSH2 0x214 JUMPI DUP1 PUSH4 0xE9A37738 EQ PUSH2 0x1F6 JUMPI DUP1 PUSH4 0xF3FEF3A3 EQ PUSH2 0x158 JUMPI DUP1 PUSH4 0xFBFA77CF EQ PUSH2 0x12F JUMPI PUSH4 0xFF16EF39 EQ PUSH2 0x111 JUMPI PUSH1 0x0 DUP1 REVERT JUMPDEST CALLVALUE PUSH2 0x12A JUMPI PUSH1 0x20 CALLDATASIZE PUSH1 0x3 NOT ADD SLT PUSH2 0x12A JUMPI PUSH1 0x4 CALLDATALOAD PUSH1 0x5 SSTORE STOP JUMPDEST PUSH1 0x0 DUP1 REVERT JUMPDEST CALLVALUE PUSH2 0x12A JUMPI PUSH1 0x0 CALLDATASIZE PUSH1 0x3 NOT ADD SLT PUSH2 0x12A JUMPI PUSH1 0x2 SLOAD PUSH1 0x40 MLOAD PUSH1 0x1 PUSH1 0x1 PUSH1 0xA0 SHL SUB SWAP1 SWAP2 AND DUP2 MSTORE PUSH1 0x20 SWAP1 RETURN JUMPDEST CALLVALUE PUSH2 0x12A JUMPI PUSH1 0x40 CALLDATASIZE PUSH1 0x3 NOT ADD SLT PUSH2 0x12A JUMPI PUSH2 0x171 PUSH2 0x736 JUMP JUMPDEST POP PUSH1 0x24 CALLDATALOAD PUSH2 0x18A PUSH1 0x1 DUP1 PUSH1 0xA0 SHL SUB PUSH1 0x2 SLOAD AND CALLER EQ PUSH2 0x795 JUMP JUMPDEST PUSH1 0xB SLOAD SWAP1 DUP2 DUP2 GT PUSH2 0x1BB JUMPI PUSH2 0x1A1 DUP2 PUSH1 0x20 SWAP4 PUSH2 0x7CE JUMP JUMPDEST PUSH1 0xB SSTORE PUSH2 0x1B0 DUP2 PUSH1 0x4 SLOAD PUSH2 0x7CE JUMP JUMPDEST PUSH1 0x4 SSTORE PUSH1 0x40 MLOAD SWAP1 DUP2 MSTORE RETURN JUMPDEST PUSH1 0x40 MLOAD PUSH3 0x461BCD PUSH1 0xE5 SHL DUP2 MSTORE PUSH1 0x20 PUSH1 0x4 DUP3 ADD MSTORE PUSH1 0x13 PUSH1 0x24 DUP3 ADD MSTORE PUSH19 0x24B739BAB33334B1B4B2B73A1030AA37B5B2B7 PUSH1 0x69 SHL PUSH1 0x44 DUP3 ADD MSTORE PUSH1 0x64 SWAP1 REVERT JUMPDEST CALLVALUE PUSH2 0x12A JUMPI PUSH1 0x0 CALLDATASIZE PUSH1 0x3 NOT ADD SLT PUSH2 0x12A JUMPI PUSH1 0x20 PUSH1 0xB SLOAD PUSH1 0x40 MLOAD SWAP1 DUP2 MSTORE RETURN JUMPDEST CALLVALUE PUSH2 0x12A JUMPI PUSH1 0x0 CALLDATASIZE PUSH1 0x3 NOT ADD SLT PUSH2 0x12A JUMPI PUSH1 0x20 PUSH8 0x14D1120D7B160000 PUSH1 0x6 SLOAD LT ISZERO PUSH1 0x40 MLOAD SWAP1 DUP2 MSTORE RETURN JUMPDEST CALLVALUE PUSH2 0x12A JUMPI PUSH1 0x0 CALLDATASIZE PUSH1 0x3 NOT ADD SLT PUSH2 0x12A JUMPI PUSH1 0x20 PUSH1 0x5 SLOAD PUSH1 0x40 MLOAD SWAP1 DUP2 MSTORE RETURN JUMPDEST CALLVALUE PUSH2 0x12A JUMPI PUSH1 0x0 CALLDATASIZE PUSH1 0x3 NOT ADD SLT PUSH2 0x12A JUMPI PUSH1 0x20 PUSH1 0x8 SLOAD PUSH1 0x40 MLOAD SWAP1 DUP2 MSTORE RETURN JUMPDEST CALLVALUE PUSH2 0x12A JUMPI PUSH1 0x0 CALLDATASIZE PUSH1 0x3 NOT ADD SLT PUSH2 0x12A JUMPI PUSH1 0x20 PUSH1 0x7 SLOAD PUSH1 0x40 MLOAD SWAP1 DUP2 MSTORE RETURN JUMPDEST CALLVALUE PUSH2 0x12A JUMPI PUSH1 0x0 CALLDATASIZE PUSH1 0x3 NOT ADD SLT PUSH2 0x12A JUMPI PUSH1 0x0 PUSH1 0x40 MLOAD DUP2 PUSH1 0x1 SLOAD DUP1 PUSH1 0x1 SHR SWAP1 PUSH1 0x1 DUP2 AND DUP1 ISZERO PUSH2 0x3AE JUMPI JUMPDEST PUSH1 0x20 DUP4 LT DUP2 EQ PUSH2 0x39A JUMPI DUP3 DUP6 MSTORE SWAP1 DUP2 ISZERO PUSH2 0x37E JUMPI POP PUSH1 0x1 EQ PUSH2 0x32A JUMPI JUMPDEST POP DUP2 SWAP1 SUB PUSH1 0x1F ADD PUSH1 0x1F NOT AND DUP2 ADD PUSH8 0xFFFFFFFFFFFFFFFF DUP2 GT DUP3 DUP3 LT OR PUSH2 0x316 JUMPI PUSH2 0x312 SWAP3 POP PUSH1 0x40 MSTORE PUSH1 0x40 MLOAD SWAP2 DUP3 SWAP2 DUP3 PUSH2 0x6ED JUMP JUMPDEST SUB SWAP1 RETURN JUMPDEST PUSH4 0x4E487B71 PUSH1 0xE0 SHL DUP4 MSTORE PUSH1 0x41 PUSH1 0x4 MSTORE PUSH1 0x24 DUP4 REVERT JUMPDEST PUSH1 0x1 DUP5 MSTORE SWAP1 POP DUP3 PUSH32 0xB10E2D527612073B26EECDFD717E6A320CF44B4AFAC2B0732D9FCBE2B7FA0CF6 JUMPDEST DUP3 DUP3 LT PUSH2 0x368 JUMPI POP PUSH1 0x20 SWAP2 POP DUP3 ADD ADD DUP4 PUSH2 0x2DE JUMP JUMPDEST PUSH1 0x1 DUP2 PUSH1 0x20 SWAP3 SLOAD DUP4 DUP6 DUP9 ADD ADD MSTORE ADD SWAP2 ADD SWAP1 PUSH2 0x353 JUMP JUMPDEST SWAP1 POP PUSH1 0x20 SWAP3 POP PUSH1 0xFF NOT AND DUP3 DUP5 ADD MSTORE ISZERO ISZERO PUSH1 0x5 SHL DUP3 ADD ADD DUP4 PUSH2 0x2DE JUMP JUMPDEST PUSH4 0x4E487B71 PUSH1 0xE0 SHL DUP7 MSTORE PUSH1 0x22 PUSH1 0x4 MSTORE PUSH1 0x24 DUP7 REVERT JUMPDEST SWAP2 PUSH1 0x7F AND SWAP2 PUSH2 0x2C1 JUMP JUMPDEST CALLVALUE PUSH2 0x12A JUMPI PUSH1 0x20 CALLDATASIZE PUSH1 0x3 NOT ADD SLT PUSH2 0x12A JUMPI PUSH2 0x3DE PUSH1 0x1 DUP1 PUSH1 0xA0 SHL SUB PUSH1 0x2 SLOAD AND CALLER EQ PUSH2 0x795 JUMP JUMPDEST PUSH1 0x4 CALLDATALOAD PUSH1 0x6 SSTORE STOP JUMPDEST CALLVALUE PUSH2 0x12A JUMPI PUSH1 0x0 CALLDATASIZE PUSH1 0x3 NOT ADD SLT PUSH2 0x12A JUMPI PUSH1 0x20 PUSH1 0xA SLOAD PUSH1 0x40 MLOAD SWAP1 DUP2 MSTORE RETURN JUMPDEST CALLVALUE PUSH2 0x12A JUMPI PUSH1 0x20 CALLDATASIZE PUSH1 0x3 NOT ADD SLT PUSH2 0x12A JUMPI PUSH2 0x41D PUSH2 0x736 JUMP JUMPDEST PUSH1 0x2 SLOAD SWAP1 PUSH1 0x1 PUSH1 0x1 PUSH1 0xA0 SHL SUB DUP3 AND DUP1 ISZERO SWAP1 DUP2 ISZERO PUSH2 0x457 JUMPI JUMPDEST POP ISZERO PUSH2 0x12A JUMPI PUSH1 0x1 PUSH1 0x1 PUSH1 0xA0 SHL SUB AND PUSH1 0x1 PUSH1 0x1 PUSH1 0xA0 SHL SUB NOT SWAP2 SWAP1 SWAP2 AND OR PUSH1 0x2 SSTORE STOP JUMPDEST SWAP1 POP CALLER EQ DUP4 PUSH2 0x435 JUMP JUMPDEST CALLVALUE PUSH2 0x12A JUMPI PUSH1 0x40 CALLDATASIZE PUSH1 0x3 NOT ADD SLT PUSH2 0x12A JUMPI PUSH2 0x47A PUSH2 0x736 JUMP JUMPDEST POP PUSH1 0x20 PUSH1 0x24 CALLDATALOAD PUSH2 0x495 PUSH1 0x1 DUP1 PUSH1 0xA0 SHL SUB PUSH1 0x2 SLOAD AND CALLER EQ PUSH2 0x795 JUMP JUMPDEST PUSH2 0x4A1 DUP2 PUSH1 0x4 SLOAD PUSH2 0x7DB JUMP JUMPDEST PUSH1 0x4 SSTORE PUSH2 0x4B0 DUP2 PUSH1 0xB SLOAD PUSH2 0x7DB JUMP JUMPDEST PUSH1 0xB SSTORE PUSH1 0x40 MLOAD SWAP1 DUP2 MSTORE RETURN JUMPDEST CALLVALUE PUSH2 0x12A JUMPI PUSH1 0x0 CALLDATASIZE PUSH1 0x3 NOT ADD SLT PUSH2 0x12A JUMPI PUSH2 0x4E1 PUSH1 0x1 DUP1 PUSH1 0xA0 SHL SUB PUSH1 0x2 SLOAD AND CALLER EQ PUSH2 0x795 JUMP JUMPDEST PUSH1 0x20 PUSH1 0x0 PUSH2 0x4F1 PUSH1 0x7 SLOAD NUMBER PUSH2 0x7CE JUMP JUMPDEST DUP1 ISZERO ISZERO DUP1 PUSH2 0x564 JUMPI JUMPDEST PUSH2 0x50C JUMPI JUMPDEST POP NUMBER PUSH1 0x7 SSTORE PUSH1 0x40 MLOAD SWAP1 DUP2 MSTORE RETURN JUMPDEST PUSH11 0x12A201671C8C4641080000 PUSH2 0x530 PUSH1 0xB SLOAD SWAP3 PUSH2 0x52B PUSH1 0x8 SLOAD DUP6 PUSH2 0x74C JUMP JUMPDEST PUSH2 0x74C JUMP JUMPDEST DIV SWAP1 DUP2 PUSH2 0x53E JUMPI JUMPDEST POP PUSH2 0x4FF JUMP JUMPDEST DUP2 SWAP3 POP SWAP1 PUSH2 0x54B SWAP2 PUSH2 0x7DB JUMP JUMPDEST PUSH1 0xB SSTORE PUSH2 0x55A DUP2 PUSH1 0x4 SLOAD PUSH2 0x7DB JUMP JUMPDEST PUSH1 0x4 SSTORE DUP3 DUP1 PUSH2 0x538 JUMP JUMPDEST POP PUSH1 0xB SLOAD ISZERO ISZERO PUSH2 0x4FA JUMP JUMPDEST CALLVALUE PUSH2 0x12A JUMPI PUSH1 0x0 CALLDATASIZE PUSH1 0x3 NOT ADD SLT PUSH2 0x12A JUMPI PUSH1 0x20 PUSH1 0x9 SLOAD PUSH1 0x40 MLOAD SWAP1 DUP2 MSTORE RETURN JUMPDEST CALLVALUE PUSH2 0x12A JUMPI PUSH1 0x0 CALLDATASIZE PUSH1 0x3 NOT ADD SLT PUSH2 0x12A JUMPI PUSH1 0x3 SLOAD PUSH1 0x40 MLOAD PUSH1 0x1 PUSH1 0x1 PUSH1 0xA0 SHL SUB SWAP1 SWAP2 AND DUP2 MSTORE PUSH1 0x20 SWAP1 RETURN JUMPDEST CALLVALUE PUSH2 0x12A JUMPI PUSH1 0x20 CALLDATASIZE PUSH1 0x3 NOT ADD SLT PUSH2 0x12A JUMPI PUSH1 0x20 PUSH2 0x5D4 PUSH1 0x4 CALLDATALOAD PUSH2 0x775 JUMP JUMPDEST PUSH1 0x40 MLOAD SWAP1 DUP2 MSTORE RETURN JUMPDEST CALLVALUE PUSH2 0x12A JUMPI PUSH1 0x0 CALLDATASIZE PUSH1 0x3 NOT ADD SLT PUSH2 0x12A JUMPI PUSH1 0x20 PUSH1 0x6 SLOAD PUSH1 0x40 MLOAD SWAP1 DUP2 MSTORE RETURN JUMPDEST CALLVALUE PUSH2 0x12A JUMPI PUSH1 0x20 CALLDATASIZE PUSH1 0x3 NOT ADD SLT PUSH2 0x12A JUMPI PUSH1 0x4 CALLDATALOAD PUSH1 0x8 DUP2 SWAP1 SSTORE PUSH1 0x5 SSTORE STOP JUMPDEST CALLVALUE PUSH2 0x12A JUMPI PUSH1 0x0 CALLDATASIZE PUSH1 0x3 NOT ADD SLT PUSH2 0x12A JUMPI PUSH1 0x0 PUSH1 0x40 MLOAD DUP2 DUP3 SLOAD DUP1 PUSH1 0x1 SHR SWAP1 PUSH1 0x1 DUP2 AND DUP1 ISZERO PUSH2 0x6C8 JUMPI JUMPDEST PUSH1 0x20 DUP4 LT DUP2 EQ PUSH2 0x39A JUMPI DUP3 DUP6 MSTORE SWAP1 DUP2 ISZERO PUSH2 0x37E JUMPI POP PUSH1 0x1 EQ PUSH2 0x691 JUMPI POP DUP2 SWAP1 SUB PUSH1 0x1F ADD PUSH1 0x1F NOT AND DUP2 ADD PUSH8 0xFFFFFFFFFFFFFFFF DUP2 GT DUP3 DUP3 LT OR PUSH2 0x316 JUMPI PUSH2 0x312 SWAP3 POP PUSH1 0x40 MSTORE PUSH1 0x40 MLOAD SWAP2 DUP3 SWAP2 DUP3 PUSH2 0x6ED JUMP JUMPDEST SWAP1 POP DUP3 DUP1 MSTORE PUSH1 0x20 DUP4 KECCAK256 DUP4 SWAP1 JUMPDEST DUP3 DUP3 LT PUSH2 0x6B2 JUMPI POP PUSH1 0x20 SWAP2 POP DUP3 ADD ADD DUP4 PUSH2 0x2DE JUMP JUMPDEST PUSH1 0x1 DUP2 PUSH1 0x20 SWAP3 SLOAD DUP4 DUP6 DUP9 ADD ADD MSTORE ADD SWAP2 ADD SWAP1 PUSH2 0x69D JUMP JUMPDEST SWAP2 PUSH1 0x7F AND SWAP2 PUSH2 0x641 JUMP JUMPDEST CALLVALUE PUSH2 0x12A JUMPI PUSH1 0x0 CALLDATASIZE PUSH1 0x3 NOT ADD SLT PUSH2 0x12A JUMPI PUSH1 0x20 SWAP1 PUSH1 0x4 SLOAD DUP2 MSTORE RETURN JUMPDEST SWAP2 SWAP1 SWAP2 PUSH1 0x20 DUP2 MSTORE DUP3 MLOAD DUP1 PUSH1 0x20 DUP4 ADD MSTORE PUSH1 0x0 JUMPDEST DUP2 DUP2 LT PUSH2 0x720 JUMPI POP PUSH1 0x40 SWAP3 SWAP4 POP PUSH1 0x0 DUP4 DUP3 DUP5 ADD ADD MSTORE PUSH1 0x1F DUP1 NOT SWAP2 ADD AND ADD ADD SWAP1 JUMP JUMPDEST DUP1 PUSH1 0x20 DUP1 SWAP3 DUP8 ADD ADD MLOAD PUSH1 0x40 DUP3 DUP7 ADD ADD MSTORE ADD PUSH2 0x6FF JUMP JUMPDEST PUSH1 0x4 CALLDATALOAD SWAP1 PUSH1 0x1 PUSH1 0x1 PUSH1 0xA0 SHL SUB DUP3 AND DUP3 SUB PUSH2 0x12A JUMPI JUMP JUMPDEST DUP2 DUP2 MUL SWAP3 SWAP2 DUP2 ISZERO SWAP2 DUP5 DIV EQ OR ISZERO PUSH2 0x75F JUMPI JUMP JUMPDEST PUSH4 0x4E487B71 PUSH1 0xE0 SHL PUSH1 0x0 MSTORE PUSH1 0x11 PUSH1 0x4 MSTORE PUSH1 0x24 PUSH1 0x0 REVERT JUMPDEST DUP1 ISZERO PUSH2 0x78E JUMPI PUSH2 0x78A PUSH1 0xB SLOAD PUSH1 0x9 SLOAD SWAP1 PUSH2 0x74C JUMP JUMPDEST DIV SWAP1 JUMP JUMPDEST POP PUSH1 0x0 NOT SWAP1 JUMP JUMPDEST ISZERO PUSH2 0x79C JUMPI JUMP JUMPDEST PUSH1 0x40 MLOAD PUSH3 0x461BCD PUSH1 0xE5 SHL DUP2 MSTORE PUSH1 0x20 PUSH1 0x4 DUP3 ADD MSTORE PUSH1 0xA PUSH1 0x24 DUP3 ADD MSTORE PUSH10 0x13DB9B1E481D985D5B1D PUSH1 0xB2 SHL PUSH1 0x44 DUP3 ADD MSTORE PUSH1 0x64 SWAP1 REVERT JUMPDEST SWAP2 SWAP1 DUP3 SUB SWAP2 DUP3 GT PUSH2 0x75F JUMPI JUMP JUMPDEST SWAP2 SWAP1 DUP3 ADD DUP1 SWAP3 GT PUSH2 0x75F JUMPI JUMP INVALID LOG2 PUSH5 0x6970667358 0x22 SLT KECCAK256 0xA5 CALLCODE SWAP9 0xE SWAP7 DUP12 NUMBER CALLCODE CALLDATASIZE MCOPY 0xBC PUSH13 0x72D7D768C9D10B05BC080A629C DUP7 NOT SELFDESTRUCT 0x2D 0xC0 SWAP4 0xC PUSH5 0x736F6C6343 STOP ADDMOD SHR STOP CALLER PUSH1 0x80 PUSH1 0x40 MSTORE CALLVALUE PUSH2 0x390 JUMPI PUSH2 0xB58 PUSH1 0x20 DUP2 CODESIZE SUB SWAP2 DUP3 PUSH2 0x1C DUP2 PUSH2 0x395 JUMP JUMPDEST SWAP4 DUP5 SWAP3 DUP4 CODECOPY DUP2 ADD SUB SLT PUSH2 0x390 JUMPI MLOAD PUSH1 0x1 PUSH1 0x1 PUSH1 0xA0 SHL SUB DUP2 AND SWAP1 DUP2 SWAP1 SUB PUSH2 0x390 JUMPI PUSH2 0x46 PUSH1 0x40 PUSH2 0x395 JUMP JUMPDEST SWAP1 PUSH1 0x12 DUP3 MSTORE PUSH18 0x4D6F7270686F20426C756520537570706C79 PUSH1 0x70 SHL PUSH1 0x20 DUP4 ADD MSTORE PUSH2 0x70 PUSH1 0x40 PUSH2 0x395 JUMP JUMPDEST PUSH1 0x6 DUP2 MSTORE PUSH6 0x4D6F7270686F PUSH1 0xD0 SHL PUSH1 0x20 DUP3 ADD MSTORE DUP3 MLOAD SWAP1 SWAP2 SWAP1 PUSH1 0x1 PUSH1 0x1 PUSH1 0x40 SHL SUB DUP2 GT PUSH2 0x29B JUMPI PUSH1 0x0 SLOAD PUSH1 0x1 DUP2 DUP2 SHR SWAP2 AND DUP1 ISZERO PUSH2 0x386 JUMPI JUMPDEST PUSH1 0x20 DUP3 LT EQ PUSH2 0x27B JUMPI PUSH1 0x1F DUP2 GT PUSH2 0x322 JUMPI JUMPDEST POP PUSH1 0x20 PUSH1 0x1F DUP3 GT PUSH1 0x1 EQ PUSH2 0x2BC JUMPI DUP2 SWAP3 SWAP4 SWAP5 PUSH1 0x0 SWAP3 PUSH2 0x2B1 JUMPI JUMPDEST POP POP DUP2 PUSH1 0x1 SHL SWAP2 PUSH1 0x0 NOT SWAP1 PUSH1 0x3 SHL SHR NOT AND OR PUSH1 0x0 SSTORE JUMPDEST DUP2 MLOAD PUSH1 0x1 PUSH1 0x1 PUSH1 0x40 SHL SUB DUP2 GT PUSH2 0x29B JUMPI PUSH1 0x1 SLOAD PUSH1 0x1 DUP2 DUP2 SHR SWAP2 AND DUP1 ISZERO PUSH2 0x291 JUMPI JUMPDEST PUSH1 0x20 DUP3 LT EQ PUSH2 0x27B JUMPI PUSH1 0x1F DUP2 GT PUSH2 0x216 JUMPI JUMPDEST POP PUSH1 0x20 SWAP3 PUSH1 0x1F DUP3 GT PUSH1 0x1 EQ PUSH2 0x1B1 JUMPI SWAP3 DUP2 SWAP3 SWAP4 PUSH1 0x0 SWAP3 PUSH2 0x1A6 JUMPI JUMPDEST POP POP DUP2 PUSH1 0x1 SHL SWAP2 PUSH1 0x0 NOT SWAP1 PUSH1 0x3 SHL SHR NOT AND OR PUSH1 0x1 SSTORE JUMPDEST PUSH1 0x3 DUP1 SLOAD PUSH1 0x1 PUSH1 0x1 PUSH1 0xA0 SHL SUB NOT SWAP1 DUP2 AND SWAP3 SWAP1 SWAP3 OR SWAP1 SSTORE PUSH1 0x2 DUP1 SLOAD SWAP1 SWAP2 AND CALLER OR SWAP1 SSTORE PUSH8 0x22B1C8C1227A0000 PUSH1 0x6 SSTORE PUSH8 0x13C310749028000 PUSH1 0x8 DUP2 SWAP1 SSTORE PUSH1 0x5 SSTORE PUSH8 0xBCBCE7F1B150000 PUSH1 0x9 SSTORE PUSH1 0x40 MLOAD PUSH2 0x79D SWAP1 DUP2 PUSH2 0x3BB DUP3 CODECOPY RETURN JUMPDEST ADD MLOAD SWAP1 POP CODESIZE DUP1 PUSH2 0x137 JUMP JUMPDEST PUSH1 0x1F NOT DUP3 AND SWAP4 PUSH1 0x1 PUSH1 0x0 MSTORE DUP1 PUSH1 0x0 KECCAK256 SWAP2 PUSH1 0x0 JUMPDEST DUP7 DUP2 LT PUSH2 0x1FE JUMPI POP DUP4 PUSH1 0x1 SWAP6 SWAP7 LT PUSH2 0x1E5 JUMPI JUMPDEST POP POP POP DUP2 SHL ADD PUSH1 0x1 SSTORE PUSH2 0x14D JUMP JUMPDEST ADD MLOAD PUSH1 0x0 NOT PUSH1 0xF8 DUP5 PUSH1 0x3 SHL AND SHR NOT AND SWAP1 SSTORE CODESIZE DUP1 DUP1 PUSH2 0x1D7 JUMP JUMPDEST SWAP2 SWAP3 PUSH1 0x20 PUSH1 0x1 DUP2 SWAP3 DUP7 DUP6 ADD MLOAD DUP2 SSTORE ADD SWAP5 ADD SWAP3 ADD PUSH2 0x1C4 JUMP JUMPDEST PUSH1 0x1 PUSH1 0x0 MSTORE PUSH32 0xB10E2D527612073B26EECDFD717E6A320CF44B4AFAC2B0732D9FCBE2B7FA0CF6 PUSH1 0x1F DUP4 ADD PUSH1 0x5 SHR DUP2 ADD SWAP2 PUSH1 0x20 DUP5 LT PUSH2 0x271 JUMPI JUMPDEST PUSH1 0x1F ADD PUSH1 0x5 SHR ADD SWAP1 JUMPDEST DUP2 DUP2 LT PUSH2 0x265 JUMPI POP PUSH2 0x11C JUMP JUMPDEST PUSH1 0x0 DUP2 SSTORE PUSH1 0x1 ADD PUSH2 0x258 JUMP JUMPDEST SWAP1 SWAP2 POP DUP2 SWAP1 PUSH2 0x24F JUMP JUMPDEST PUSH4 0x4E487B71 PUSH1 0xE0 SHL PUSH1 0x0 MSTORE PUSH1 0x22 PUSH1 0x4 MSTORE PUSH1 0x24 PUSH1 0x0 REVERT JUMPDEST SWAP1 PUSH1 0x7F AND SWAP1 PUSH2 0x10A JUMP JUMPDEST PUSH4 0x4E487B71 PUSH1 0xE0 SHL PUSH1 0x0 MSTORE PUSH1 0x41 PUSH1 0x4 MSTORE PUSH1 0x24 PUSH1 0x0 REVERT JUMPDEST ADD MLOAD SWAP1 POP CODESIZE DUP1 PUSH2 0xD3 JUMP JUMPDEST PUSH1 0x1F NOT DUP3 AND SWAP1 PUSH1 0x0 DUP1 MSTORE DUP1 PUSH1 0x0 KECCAK256 SWAP2 PUSH1 0x0 JUMPDEST DUP2 DUP2 LT PUSH2 0x30A JUMPI POP SWAP6 DUP4 PUSH1 0x1 SWAP6 SWAP7 SWAP8 LT PUSH2 0x2F1 JUMPI JUMPDEST POP POP POP DUP2 SHL ADD PUSH1 0x0 SSTORE PUSH2 0xE9 JUMP JUMPDEST ADD MLOAD PUSH1 0x0 NOT PUSH1 0xF8 DUP5 PUSH1 0x3 SHL AND SHR NOT AND SWAP1 SSTORE CODESIZE DUP1 DUP1 PUSH2 0x2E3 JUMP JUMPDEST SWAP2 SWAP3 PUSH1 0x20 PUSH1 0x1 DUP2 SWAP3 DUP7 DUP12 ADD MLOAD DUP2 SSTORE ADD SWAP5 ADD SWAP3 ADD PUSH2 0x2CE JUMP JUMPDEST PUSH1 0x0 DUP1 MSTORE PUSH32 0x290DECD9548B62A8D60345A988386FC84BA6BC95484008F6362F93160EF3E563 PUSH1 0x1F DUP4 ADD PUSH1 0x5 SHR DUP2 ADD SWAP2 PUSH1 0x20 DUP5 LT PUSH2 0x37C JUMPI JUMPDEST PUSH1 0x1F ADD PUSH1 0x5 SHR ADD SWAP1 JUMPDEST DUP2 DUP2 LT PUSH2 0x370 JUMPI POP PUSH2 0xB9 JUMP JUMPDEST PUSH1 0x0 DUP2 SSTORE PUSH1 0x1 ADD PUSH2 0x363 JUMP JUMPDEST SWAP1 SWAP2 POP DUP2 SWAP1 PUSH2 0x35A JUMP JUMPDEST SWAP1 PUSH1 0x7F AND SWAP1 PUSH2 0xA7 JUMP JUMPDEST PUSH1 0x0 DUP1 REVERT JUMPDEST PUSH1 0x40 MLOAD SWAP2 SWAP1 PUSH1 0x1F ADD PUSH1 0x1F NOT AND DUP3 ADD PUSH1 0x1 PUSH1 0x1 PUSH1 0x40 SHL SUB DUP2 GT DUP4 DUP3 LT OR PUSH2 0x29B JUMPI PUSH1 0x40 MSTORE JUMP INVALID PUSH1 0x80 DUP1 PUSH1 0x40 MSTORE PUSH1 0x4 CALLDATASIZE LT ISZERO PUSH2 0x13 JUMPI PUSH1 0x0 DUP1 REVERT JUMPDEST PUSH1 0x0 CALLDATALOAD PUSH1 0xE0 SHR SWAP1 DUP2 PUSH4 0x1E1D114 EQ PUSH2 0x671 JUMPI POP DUP1 PUSH4 0x6FDDE03 EQ PUSH2 0x5B7 JUMPI DUP1 PUSH4 0xC191763 EQ PUSH2 0x599 JUMPI DUP1 PUSH4 0x22841F01 EQ PUSH2 0x57B JUMPI DUP1 PUSH4 0x38D52E0F EQ PUSH2 0x552 JUMPI DUP1 PUSH4 0x3BCFC4B8 EQ PUSH2 0x202 JUMPI DUP1 PUSH4 0x4641257D EQ PUSH2 0x49E JUMPI DUP1 PUSH4 0x47E7EF24 EQ PUSH2 0x444 JUMPI DUP1 PUSH4 0x630FD0AC EQ PUSH2 0x426 JUMPI DUP1 PUSH4 0x6817031B EQ PUSH2 0x3C9 JUMPI DUP1 PUSH4 0x8770CCC7 EQ PUSH2 0x39B JUMPI DUP1 PUSH4 0x8CE74426 EQ PUSH2 0x27A JUMPI DUP1 PUSH4 0xA218141B EQ PUSH2 0x25C JUMPI DUP1 PUSH4 0xAAC3522A EQ PUSH2 0x23E JUMPI DUP1 PUSH4 0xAD2961A3 EQ PUSH2 0x220 JUMPI DUP1 PUSH4 0xB996DE67 EQ PUSH2 0x202 JUMPI DUP1 PUSH4 0xE4020804 EQ PUSH2 0x1D9 JUMPI DUP1 PUSH4 0xF3FEF3A3 EQ PUSH2 0x142 JUMPI DUP1 PUSH4 0xFBFA77CF EQ PUSH2 0x119 JUMPI PUSH4 0xFF16EF39 EQ PUSH2 0xFB JUMPI PUSH1 0x0 DUP1 REVERT JUMPDEST CALLVALUE PUSH2 0x114 JUMPI PUSH1 0x20 CALLDATASIZE PUSH1 0x3 NOT ADD SLT PUSH2 0x114 JUMPI PUSH1 0x4 CALLDATALOAD PUSH1 0x5 SSTORE STOP JUMPDEST PUSH1 0x0 DUP1 REVERT JUMPDEST CALLVALUE PUSH2 0x114 JUMPI PUSH1 0x0 CALLDATASIZE PUSH1 0x3 NOT ADD SLT PUSH2 0x114 JUMPI PUSH1 0x2 SLOAD PUSH1 0x40 MLOAD PUSH1 0x1 PUSH1 0x1 PUSH1 0xA0 SHL SUB SWAP1 SWAP2 AND DUP2 MSTORE PUSH1 0x20 SWAP1 RETURN JUMPDEST CALLVALUE PUSH2 0x114 JUMPI PUSH1 0x40 CALLDATASIZE PUSH1 0x3 NOT ADD SLT PUSH2 0x114 JUMPI PUSH2 0x15B PUSH2 0x6D5 JUMP JUMPDEST POP PUSH1 0x24 CALLDATALOAD PUSH2 0x174 PUSH1 0x1 DUP1 PUSH1 0xA0 SHL SUB PUSH1 0x2 SLOAD AND CALLER EQ PUSH2 0x6EB JUMP JUMPDEST PUSH1 0xA SLOAD SWAP1 DUP2 DUP2 GT PUSH2 0x1A5 JUMPI PUSH2 0x18B DUP2 PUSH1 0x20 SWAP4 PUSH2 0x724 JUMP JUMPDEST PUSH1 0xA SSTORE PUSH2 0x19A DUP2 PUSH1 0x4 SLOAD PUSH2 0x724 JUMP JUMPDEST PUSH1 0x4 SSTORE PUSH1 0x40 MLOAD SWAP1 DUP2 MSTORE RETURN JUMPDEST PUSH1 0x40 MLOAD PUSH3 0x461BCD PUSH1 0xE5 SHL DUP2 MSTORE PUSH1 0x20 PUSH1 0x4 DUP3 ADD MSTORE PUSH1 0xC PUSH1 0x24 DUP3 ADD MSTORE PUSH12 0x125B9CDD59999A58DA595B9D PUSH1 0xA2 SHL PUSH1 0x44 DUP3 ADD MSTORE PUSH1 0x64 SWAP1 REVERT JUMPDEST CALLVALUE PUSH2 0x114 JUMPI PUSH1 0x0 CALLDATASIZE PUSH1 0x3 NOT ADD SLT PUSH2 0x114 JUMPI PUSH1 0x20 PUSH8 0x14D1120D7B160000 PUSH1 0x6 SLOAD LT ISZERO PUSH1 0x40 MLOAD SWAP1 DUP2 MSTORE RETURN JUMPDEST CALLVALUE PUSH2 0x114 JUMPI PUSH1 0x0 CALLDATASIZE PUSH1 0x3 NOT ADD SLT PUSH2 0x114 JUMPI PUSH1 0x20 PUSH1 0x5 SLOAD PUSH1 0x40 MLOAD SWAP1 DUP2 MSTORE RETURN JUMPDEST CALLVALUE PUSH2 0x114 JUMPI PUSH1 0x0 CALLDATASIZE PUSH1 0x3 NOT ADD SLT PUSH2 0x114 JUMPI PUSH1 0x20 PUSH1 0x8 SLOAD PUSH1 0x40 MLOAD SWAP1 DUP2 MSTORE RETURN JUMPDEST CALLVALUE PUSH2 0x114 JUMPI PUSH1 0x0 CALLDATASIZE PUSH1 0x3 NOT ADD SLT PUSH2 0x114 JUMPI PUSH1 0x20 PUSH1 0x9 SLOAD PUSH1 0x40 MLOAD SWAP1 DUP2 MSTORE RETURN JUMPDEST CALLVALUE PUSH2 0x114 JUMPI PUSH1 0x0 CALLDATASIZE PUSH1 0x3 NOT ADD SLT PUSH2 0x114 JUMPI PUSH1 0x20 PUSH1 0x7 SLOAD PUSH1 0x40 MLOAD SWAP1 DUP2 MSTORE RETURN JUMPDEST CALLVALUE PUSH2 0x114 JUMPI PUSH1 0x0 CALLDATASIZE PUSH1 0x3 NOT ADD SLT PUSH2 0x114 JUMPI PUSH1 0x0 PUSH1 0x40 MLOAD DUP2 PUSH1 0x1 SLOAD DUP1 PUSH1 0x1 SHR SWAP1 PUSH1 0x1 DUP2 AND DUP1 ISZERO PUSH2 0x391 JUMPI JUMPDEST PUSH1 0x20 DUP4 LT DUP2 EQ PUSH2 0x37D JUMPI DUP3 DUP6 MSTORE SWAP1 DUP2 ISZERO PUSH2 0x361 JUMPI POP PUSH1 0x1 EQ PUSH2 0x30D JUMPI JUMPDEST POP DUP2 SWAP1 SUB PUSH1 0x1F ADD PUSH1 0x1F NOT AND DUP2 ADD PUSH8 0xFFFFFFFFFFFFFFFF DUP2 GT DUP3 DUP3 LT OR PUSH2 0x2F9 JUMPI PUSH2 0x2F5 SWAP3 POP PUSH1 0x40 MSTORE PUSH1 0x40 MLOAD SWAP2 DUP3 SWAP2 DUP3 PUSH2 0x68C JUMP JUMPDEST SUB SWAP1 RETURN JUMPDEST PUSH4 0x4E487B71 PUSH1 0xE0 SHL DUP4 MSTORE PUSH1 0x41 PUSH1 0x4 MSTORE PUSH1 0x24 DUP4 REVERT JUMPDEST PUSH1 0x1 DUP5 MSTORE SWAP1 POP DUP3 PUSH32 0xB10E2D527612073B26EECDFD717E6A320CF44B4AFAC2B0732D9FCBE2B7FA0CF6 JUMPDEST DUP3 DUP3 LT PUSH2 0x34B JUMPI POP PUSH1 0x20 SWAP2 POP DUP3 ADD ADD DUP4 PUSH2 0x2C1 JUMP JUMPDEST PUSH1 0x1 DUP2 PUSH1 0x20 SWAP3 SLOAD DUP4 DUP6 DUP9 ADD ADD MSTORE ADD SWAP2 ADD SWAP1 PUSH2 0x336 JUMP JUMPDEST SWAP1 POP PUSH1 0x20 SWAP3 POP PUSH1 0xFF NOT AND DUP3 DUP5 ADD MSTORE ISZERO ISZERO PUSH1 0x5 SHL DUP3 ADD ADD DUP4 PUSH2 0x2C1 JUMP JUMPDEST PUSH4 0x4E487B71 PUSH1 0xE0 SHL DUP7 MSTORE PUSH1 0x22 PUSH1 0x4 MSTORE PUSH1 0x24 DUP7 REVERT JUMPDEST SWAP2 PUSH1 0x7F AND SWAP2 PUSH2 0x2A4 JUMP JUMPDEST CALLVALUE PUSH2 0x114 JUMPI PUSH1 0x20 CALLDATASIZE PUSH1 0x3 NOT ADD SLT PUSH2 0x114 JUMPI PUSH2 0x3C1 PUSH1 0x1 DUP1 PUSH1 0xA0 SHL SUB PUSH1 0x2 SLOAD AND CALLER EQ PUSH2 0x6EB JUMP JUMPDEST PUSH1 0x4 CALLDATALOAD PUSH1 0x6 SSTORE STOP JUMPDEST CALLVALUE PUSH2 0x114 JUMPI PUSH1 0x20 CALLDATASIZE PUSH1 0x3 NOT ADD SLT PUSH2 0x114 JUMPI PUSH2 0x3E2 PUSH2 0x6D5 JUMP JUMPDEST PUSH1 0x2 SLOAD SWAP1 PUSH1 0x1 PUSH1 0x1 PUSH1 0xA0 SHL SUB DUP3 AND DUP1 ISZERO SWAP1 DUP2 ISZERO PUSH2 0x41C JUMPI JUMPDEST POP ISZERO PUSH2 0x114 JUMPI PUSH1 0x1 PUSH1 0x1 PUSH1 0xA0 SHL SUB AND PUSH1 0x1 PUSH1 0x1 PUSH1 0xA0 SHL SUB NOT SWAP2 SWAP1 SWAP2 AND OR PUSH1 0x2 SSTORE STOP JUMPDEST SWAP1 POP CALLER EQ DUP4 PUSH2 0x3FA JUMP JUMPDEST CALLVALUE PUSH2 0x114 JUMPI PUSH1 0x0 CALLDATASIZE PUSH1 0x3 NOT ADD SLT PUSH2 0x114 JUMPI PUSH1 0x20 PUSH1 0xA SLOAD PUSH1 0x40 MLOAD SWAP1 DUP2 MSTORE RETURN JUMPDEST CALLVALUE PUSH2 0x114 JUMPI PUSH1 0x40 CALLDATASIZE PUSH1 0x3 NOT ADD SLT PUSH2 0x114 JUMPI PUSH2 0x45D PUSH2 0x6D5 JUMP JUMPDEST POP PUSH1 0x20 PUSH1 0x24 CALLDATALOAD PUSH2 0x478 PUSH1 0x1 DUP1 PUSH1 0xA0 SHL SUB PUSH1 0x2 SLOAD AND CALLER EQ PUSH2 0x6EB JUMP JUMPDEST PUSH2 0x484 DUP2 PUSH1 0x4 SLOAD PUSH2 0x75A JUMP JUMPDEST PUSH1 0x4 SSTORE PUSH2 0x493 DUP2 PUSH1 0xA SLOAD PUSH2 0x75A JUMP JUMPDEST PUSH1 0xA SSTORE PUSH1 0x40 MLOAD SWAP1 DUP2 MSTORE RETURN JUMPDEST CALLVALUE PUSH2 0x114 JUMPI PUSH1 0x0 CALLDATASIZE PUSH1 0x3 NOT ADD SLT PUSH2 0x114 JUMPI PUSH2 0x4C4 PUSH1 0x1 DUP1 PUSH1 0xA0 SHL SUB PUSH1 0x2 SLOAD AND CALLER EQ PUSH2 0x6EB JUMP JUMPDEST PUSH1 0x20 PUSH1 0x0 PUSH2 0x4D4 PUSH1 0x7 SLOAD NUMBER PUSH2 0x724 JUMP JUMPDEST DUP1 ISZERO ISZERO DUP1 PUSH2 0x547 JUMPI JUMPDEST PUSH2 0x4EF JUMPI JUMPDEST POP NUMBER PUSH1 0x7 SSTORE PUSH1 0x40 MLOAD SWAP1 DUP2 MSTORE RETURN JUMPDEST PUSH11 0x12A201671C8C4641080000 PUSH2 0x513 PUSH1 0xA SLOAD SWAP3 PUSH2 0x50E PUSH1 0x8 SLOAD DUP6 PUSH2 0x747 JUMP JUMPDEST PUSH2 0x747 JUMP JUMPDEST DIV SWAP1 DUP2 PUSH2 0x521 JUMPI JUMPDEST POP PUSH2 0x4E2 JUMP JUMPDEST DUP2 SWAP3 POP SWAP1 PUSH2 0x52E SWAP2 PUSH2 0x75A JUMP JUMPDEST PUSH1 0xA SSTORE PUSH2 0x53D DUP2 PUSH1 0x4 SLOAD PUSH2 0x75A JUMP JUMPDEST PUSH1 0x4 SSTORE DUP3 DUP1 PUSH2 0x51B JUMP JUMPDEST POP PUSH1 0xA SLOAD ISZERO ISZERO PUSH2 0x4DD JUMP JUMPDEST CALLVALUE PUSH2 0x114 JUMPI PUSH1 0x0 CALLDATASIZE PUSH1 0x3 NOT ADD SLT PUSH2 0x114 JUMPI PUSH1 0x3 SLOAD PUSH1 0x40 MLOAD PUSH1 0x1 PUSH1 0x1 PUSH1 0xA0 SHL SUB SWAP1 SWAP2 AND DUP2 MSTORE PUSH1 0x20 SWAP1 RETURN JUMPDEST CALLVALUE PUSH2 0x114 JUMPI PUSH1 0x0 CALLDATASIZE PUSH1 0x3 NOT ADD SLT PUSH2 0x114 JUMPI PUSH1 0x20 PUSH1 0x6 SLOAD PUSH1 0x40 MLOAD SWAP1 DUP2 MSTORE RETURN JUMPDEST CALLVALUE PUSH2 0x114 JUMPI PUSH1 0x20 CALLDATASIZE PUSH1 0x3 NOT ADD SLT PUSH2 0x114 JUMPI PUSH1 0x4 CALLDATALOAD PUSH1 0x8 DUP2 SWAP1 SSTORE PUSH1 0x5 SSTORE STOP JUMPDEST CALLVALUE PUSH2 0x114 JUMPI PUSH1 0x0 CALLDATASIZE PUSH1 0x3 NOT ADD SLT PUSH2 0x114 JUMPI PUSH1 0x0 PUSH1 0x40 MLOAD DUP2 DUP3 SLOAD DUP1 PUSH1 0x1 SHR SWAP1 PUSH1 0x1 DUP2 AND DUP1 ISZERO PUSH2 0x667 JUMPI JUMPDEST PUSH1 0x20 DUP4 LT DUP2 EQ PUSH2 0x37D JUMPI DUP3 DUP6 MSTORE SWAP1 DUP2 ISZERO PUSH2 0x361 JUMPI POP PUSH1 0x1 EQ PUSH2 0x630 JUMPI POP DUP2 SWAP1 SUB PUSH1 0x1F ADD PUSH1 0x1F NOT AND DUP2 ADD PUSH8 0xFFFFFFFFFFFFFFFF DUP2 GT DUP3 DUP3 LT OR PUSH2 0x2F9 JUMPI PUSH2 0x2F5 SWAP3 POP PUSH1 0x40 MSTORE PUSH1 0x40 MLOAD SWAP2 DUP3 SWAP2 DUP3 PUSH2 0x68C JUMP JUMPDEST SWAP1 POP DUP3 DUP1 MSTORE PUSH1 0x20 DUP4 KECCAK256 DUP4 SWAP1 JUMPDEST DUP3 DUP3 LT PUSH2 0x651 JUMPI POP PUSH1 0x20 SWAP2 POP DUP3 ADD ADD DUP4 PUSH2 0x2C1 JUMP JUMPDEST PUSH1 0x1 DUP2 PUSH1 0x20 SWAP3 SLOAD DUP4 DUP6 DUP9 ADD ADD MSTORE ADD SWAP2 ADD SWAP1 PUSH2 0x63C JUMP JUMPDEST SWAP2 PUSH1 0x7F AND SWAP2 PUSH2 0x5E0 JUMP JUMPDEST CALLVALUE PUSH2 0x114 JUMPI PUSH1 0x0 CALLDATASIZE PUSH1 0x3 NOT ADD SLT PUSH2 0x114 JUMPI PUSH1 0x20 SWAP1 PUSH1 0x4 SLOAD DUP2 MSTORE RETURN JUMPDEST SWAP2 SWAP1 SWAP2 PUSH1 0x20 DUP2 MSTORE DUP3 MLOAD DUP1 PUSH1 0x20 DUP4 ADD MSTORE PUSH1 0x0 JUMPDEST DUP2 DUP2 LT PUSH2 0x6BF JUMPI POP PUSH1 0x40 SWAP3 SWAP4 POP PUSH1 0x0 DUP4 DUP3 DUP5 ADD ADD MSTORE PUSH1 0x1F DUP1 NOT SWAP2 ADD AND ADD ADD SWAP1 JUMP JUMPDEST DUP1 PUSH1 0x20 DUP1 SWAP3 DUP8 ADD ADD MLOAD PUSH1 0x40 DUP3 DUP7 ADD ADD MSTORE ADD PUSH2 0x69E JUMP JUMPDEST PUSH1 0x4 CALLDATALOAD SWAP1 PUSH1 0x1 PUSH1 0x1 PUSH1 0xA0 SHL SUB DUP3 AND DUP3 SUB PUSH2 0x114 JUMPI JUMP JUMPDEST ISZERO PUSH2 0x6F2 JUMPI JUMP JUMPDEST PUSH1 0x40 MLOAD PUSH3 0x461BCD PUSH1 0xE5 SHL DUP2 MSTORE PUSH1 0x20 PUSH1 0x4 DUP3 ADD MSTORE PUSH1 0xA PUSH1 0x24 DUP3 ADD MSTORE PUSH10 0x13DB9B1E481D985D5B1D PUSH1 0xB2 SHL PUSH1 0x44 DUP3 ADD MSTORE PUSH1 0x64 SWAP1 REVERT JUMPDEST SWAP2 SWAP1 DUP3 SUB SWAP2 DUP3 GT PUSH2 0x731 JUMPI JUMP JUMPDEST PUSH4 0x4E487B71 PUSH1 0xE0 SHL PUSH1 0x0 MSTORE PUSH1 0x11 PUSH1 0x4 MSTORE PUSH1 0x24 PUSH1 0x0 REVERT JUMPDEST DUP2 DUP2 MUL SWAP3 SWAP2 DUP2 ISZERO SWAP2 DUP5 DIV EQ OR ISZERO PUSH2 0x731 JUMPI JUMP JUMPDEST SWAP2 SWAP1 DUP3 ADD DUP1 SWAP3 GT PUSH2 0x731 JUMPI JUMP INVALID LOG2 PUSH5 0x6970667358 0x22 SLT KECCAK256 0xD2 SLT 0x2B SHL 0xE8 MLOAD 0xD8 PC PUSH28 0x80ACA87F4170DED2B1E1095520FBE9E682E554321C275664736F6C63 NUMBER STOP ADDMOD SHR STOP CALLER LOG2 PUSH5 0x6970667358 0x22 SLT KECCAK256 0xB7 CODECOPY 0x4E 0xDC SWAP7 PUSH9 0x16933F3EB337B7A0DF PUSH25 0x4BE006D5FBABDC1F0DD9560BDDEC709564736F6C634300081C STOP CALLER "},"methodIdentifiers":{"deployVault(string,address,uint256)":"147b868e","getVaultCount()":"74d4e491","getVaults()":"44d00f82","isVaultFromFactory(address)":"2f6071c7","owner()":"8da5cb5b","vaultCount()":"a7c6a100","vaults(uint256)":"8c64ea4a"}}}}}