{"contracts/AaveStrategy.sol":{"AaveStrategy":{"abi":[{"inputs":[{"internalType":"address","name":"_asset","type":"address"}],"stateMutability":"nonpayable","type":"constructor"},{"inputs":[],"name":"aTokenBalance","outputs":[{"internalType":"uint256","name":"","type":"uint256"}],"stateMutability":"view","type":"function"},{"inputs":[],"name":"apy","outputs":[{"internalType":"uint256","name":"","type":"uint256"}],"stateMutability":"view","type":"function"},{"inputs":[],"name":"asset","outputs":[{"internalType":"address","name":"","type":"address"}],"stateMutability":"view","type":"function"},{"inputs":[{"internalType":"uint256","name":"_debt","type":"uint256"}],"name":"calculateHealthFactor","outputs":[{"internalType":"uint256","name":"","type":"uint256"}],"stateMutability":"view","type":"function"},{"inputs":[],"name":"currentApy","outputs":[{"internalType":"uint256","name":"","type":"uint256"}],"stateMutability":"view","type":"function"},{"inputs":[{"internalType":"address","name":"","type":"address"},{"internalType":"uint256","name":"amount","type":"uint256"}],"name":"deposit","outputs":[{"internalType":"uint256","name":"","type":"uint256"}],"stateMutability":"nonpayable","type":"function"},{"inputs":[],"name":"harvest","outputs":[{"internalType":"uint256","name":"yield_","type":"uint256"}],"stateMutability":"nonpayable","type":"function"},{"inputs":[],"name":"healthFactor","outputs":[{"internalType":"uint256","name":"","type":"uint256"}],"stateMutability":"view","type":"function"},{"inputs":[],"name":"isHealthy","outputs":[{"internalType":"bool","name":"","type":"bool"}],"stateMutability":"view","type":"function"},{"inputs":[],"name":"lastUpdateBlock","outputs":[{"internalType":"uint256","name":"","type":"uint256"}],"stateMutability":"view","type":"function"},{"inputs":[],"name":"liquidationThreshold","outputs":[{"internalType":"uint256","name":"","type":"uint256"}],"stateMutability":"view","type":"function"},{"inputs":[],"name":"ltv","outputs":[{"internalType":"uint256","name":"","type":"uint256"}],"stateMutability":"view","type":"function"},{"inputs":[],"name":"name","outputs":[{"internalType":"string","name":"","type":"string"}],"stateMutability":"view","type":"function"},{"inputs":[],"name":"protocol","outputs":[{"internalType":"string","name":"","type":"string"}],"stateMutability":"view","type":"function"},{"inputs":[{"internalType":"address","name":"_vault","type":"address"}],"name":"setVault","outputs":[],"stateMutability":"nonpayable","type":"function"},{"inputs":[],"name":"supplyRate","outputs":[{"internalType":"uint256","name":"","type":"uint256"}],"stateMutability":"view","type":"function"},{"inputs":[],"name":"totalAssets","outputs":[{"internalType":"uint256","name":"","type":"uint256"}],"stateMutability":"view","type":"function"},{"inputs":[{"internalType":"uint256","name":"_newApy","type":"uint256"}],"name":"updateApy","outputs":[],"stateMutability":"nonpayable","type":"function"},{"inputs":[{"internalType":"uint256","name":"_hf","type":"uint256"}],"name":"updateHealthFactor","outputs":[],"stateMutability":"nonpayable","type":"function"},{"inputs":[{"internalType":"uint256","name":"_newRate","type":"uint256"}],"name":"updateSupplyRate","outputs":[],"stateMutability":"nonpayable","type":"function"},{"inputs":[],"name":"vault","outputs":[{"internalType":"address","name":"","type":"address"}],"stateMutability":"view","type":"function"},{"inputs":[{"internalType":"address","name":"","type":"address"},{"internalType":"uint256","name":"amount","type":"uint256"}],"name":"withdraw","outputs":[{"internalType":"uint256","name":"","type":"uint256"}],"stateMutability":"nonpayable","type":"function"}],"evm":{"bytecode":{"linkReferences":{},"object":"60806040523461039857610be16020813803918261001c8161039d565b93849283398101031261039857516001600160a01b0381169081900361039857610046604061039d565b90600e82526d4161766520563320537570706c7960901b602083015261006c604061039d565b60078152664161766520563360c81b602082015282519091906001600160401b0381116102a357600054600181811c9116801561038e575b602082101461028357601f811161032a575b506020601f82116001146102c457819293946000926102b9575b50508160011b916000199060031b1c1916176000555b81516001600160401b0381116102a357600154600181811c91168015610299575b602082101461028357601f811161021e575b50602092601f82116001146101b957928192936000926101ae575b50508160011b916000199060031b1c1916176001555b600380546001600160a01b031990811692909217905560028054909116331790556722b1c8c1227a000060065566dc44abe81300006008819055600555670b1a2bc2ec5000006009556709b6e64a8ec60000600a5560405161081e90816103c38239f35b015190503880610134565b601f198216936001600052806000209160005b86811061020657508360019596106101ed575b505050811b0160015561014a565b015160001960f88460031b161c191690553880806101df565b919260206001819286850151815501940192016101cc565b60016000527fb10e2d527612073b26eecdfd717e6a320cf44b4afac2b0732d9fcbe2b7fa0cf6601f830160051c81019160208410610279575b601f0160051c01905b81811061026d5750610119565b60008155600101610260565b9091508190610257565b634e487b7160e01b600052602260045260246000fd5b90607f1690610107565b634e487b7160e01b600052604160045260246000fd5b0151905038806100d0565b601f1982169060008052806000209160005b818110610312575095836001959697106102f9575b505050811b016000556100e6565b015160001960f88460031b161c191690553880806102eb565b9192602060018192868b0151815501940192016102d6565b600080527f290decd9548b62a8d60345a988386fc84ba6bc95484008f6362f93160ef3e563601f830160051c81019160208410610384575b601f0160051c01905b81811061037857506100b6565b6000815560010161036b565b9091508190610362565b90607f16906100a4565b600080fd5b6040519190601f01601f191682016001600160401b038111838210176102a35760405256fe608080604052600436101561001357600080fd5b60003560e01c90816301e1d114146106d25750806306fdde03146106185780630c191763146105fa57806322841f01146105dc57806323a4deb5146105b657806338d52e0f1461058d5780633bcfc4b81461023d5780634031234c1461056f5780634641257d146104bb57806347e7ef24146104615780636817031b146104045780636fb49d73146103e65780638770ccc7146103b85780638ce7442614610297578063a218141b14610279578063ad2961a31461025b578063b996de671461023d578063e402080414610214578063e9a37738146101f6578063f3fef3a314610158578063fbfa77cf1461012f5763ff16ef391461011157600080fd5b3461012a57602036600319011261012a57600435600555005b600080fd5b3461012a57600036600319011261012a576002546040516001600160a01b039091168152602090f35b3461012a57604036600319011261012a57610171610736565b5060243561018a60018060a01b03600254163314610795565b600b54908181116101bb576101a1816020936107ce565b600b556101b0816004546107ce565b600455604051908152f35b60405162461bcd60e51b815260206004820152601360248201527224b739bab33334b1b4b2b73a1030aa37b5b2b760691b6044820152606490fd5b3461012a57600036600319011261012a576020600b54604051908152f35b3461012a57600036600319011261012a5760206714d1120d7b1600006006541015604051908152f35b3461012a57600036600319011261012a576020600554604051908152f35b3461012a57600036600319011261012a576020600854604051908152f35b3461012a57600036600319011261012a576020600754604051908152f35b3461012a57600036600319011261012a576000604051816001548060011c906001811680156103ae575b60208310811461039a5782855290811561037e575060011461032a575b50819003601f01601f1916810167ffffffffffffffff811182821017610316576103129250604052604051918291826106ed565b0390f35b634e487b7160e01b83526041600452602483fd5b600184529050827fb10e2d527612073b26eecdfd717e6a320cf44b4afac2b0732d9fcbe2b7fa0cf65b828210610368575060209150820101836102de565b6001816020925483858801015201910190610353565b90506020925060ff191682840152151560051b820101836102de565b634e487b7160e01b86526022600452602486fd5b91607f16916102c1565b3461012a57602036600319011261012a576103de60018060a01b03600254163314610795565b600435600655005b3461012a57600036600319011261012a576020600a54604051908152f35b3461012a57602036600319011261012a5761041d610736565b600254906001600160a01b0382168015908115610457575b501561012a576001600160a01b03166001600160a01b03199190911617600255005b9050331483610435565b3461012a57604036600319011261012a5761047a610736565b50602060243561049560018060a01b03600254163314610795565b6104a1816004546107db565b6004556104b081600b546107db565b600b55604051908152f35b3461012a57600036600319011261012a576104e160018060a01b03600254163314610795565b602060006104f1600754436107ce565b80151580610564575b61050c575b5043600755604051908152f35b6a12a201671c8c4641080000610530600b549261052b6008548561074c565b61074c565b04908161053e575b506104ff565b8192509061054b916107db565b600b5561055a816004546107db565b6004558280610538565b50600b5415156104fa565b3461012a57600036600319011261012a576020600954604051908152f35b3461012a57600036600319011261012a576003546040516001600160a01b039091168152602090f35b3461012a57602036600319011261012a5760206105d4600435610775565b604051908152f35b3461012a57600036600319011261012a576020600654604051908152f35b3461012a57602036600319011261012a576004356008819055600555005b3461012a57600036600319011261012a5760006040518182548060011c906001811680156106c8575b60208310811461039a5782855290811561037e57506001146106915750819003601f01601f1916810167ffffffffffffffff811182821017610316576103129250604052604051918291826106ed565b90508280526020832083905b8282106106b2575060209150820101836102de565b600181602092548385880101520191019061069d565b91607f1691610641565b3461012a57600036600319011261012a576020906004548152f35b91909160208152825180602083015260005b818110610720575060409293506000838284010152601f8019910116010190565b80602080928701015160408286010152016106ff565b600435906001600160a01b038216820361012a57565b8181029291811591840414171561075f57565b634e487b7160e01b600052601160045260246000fd5b801561078e5761078a600b546009549061074c565b0490565b5060001990565b1561079c57565b60405162461bcd60e51b815260206004820152600a60248201526913db9b1e481d985d5b1d60b21b6044820152606490fd5b9190820391821161075f57565b9190820180921161075f5756fea2646970667358221220a5f2980e968b43f2365ebc6c72d7d768c9d10b05bc080a629c8619ff2dc0930c64736f6c634300081c0033","opcodes":"PUSH1 0x80 PUSH1 0x40 MSTORE CALLVALUE PUSH2 0x398 JUMPI PUSH2 0xBE1 PUSH1 0x20 DUP2 CODESIZE SUB SWAP2 DUP3 PUSH2 0x1C DUP2 PUSH2 0x39D JUMP JUMPDEST SWAP4 DUP5 SWAP3 DUP4 CODECOPY DUP2 ADD SUB SLT PUSH2 0x398 JUMPI MLOAD PUSH1 0x1 PUSH1 0x1 PUSH1 0xA0 SHL SUB DUP2 AND SWAP1 DUP2 SWAP1 SUB PUSH2 0x398 JUMPI PUSH2 0x46 PUSH1 0x40 PUSH2 0x39D JUMP JUMPDEST SWAP1 PUSH1 0xE DUP3 MSTORE PUSH14 0x4161766520563320537570706C79 PUSH1 0x90 SHL PUSH1 0x20 DUP4 ADD MSTORE PUSH2 0x6C PUSH1 0x40 PUSH2 0x39D JUMP JUMPDEST PUSH1 0x7 DUP2 MSTORE PUSH7 0x41617665205633 PUSH1 0xC8 SHL PUSH1 0x20 DUP3 ADD MSTORE DUP3 MLOAD SWAP1 SWAP2 SWAP1 PUSH1 0x1 PUSH1 0x1 PUSH1 0x40 SHL SUB DUP2 GT PUSH2 0x2A3 JUMPI PUSH1 0x0 SLOAD PUSH1 0x1 DUP2 DUP2 SHR SWAP2 AND DUP1 ISZERO PUSH2 0x38E JUMPI JUMPDEST PUSH1 0x20 DUP3 LT EQ PUSH2 0x283 JUMPI PUSH1 0x1F DUP2 GT PUSH2 0x32A JUMPI JUMPDEST POP PUSH1 0x20 PUSH1 0x1F DUP3 GT PUSH1 0x1 EQ PUSH2 0x2C4 JUMPI DUP2 SWAP3 SWAP4 SWAP5 PUSH1 0x0 SWAP3 PUSH2 0x2B9 JUMPI JUMPDEST POP POP DUP2 PUSH1 0x1 SHL SWAP2 PUSH1 0x0 NOT SWAP1 PUSH1 0x3 SHL SHR NOT AND OR PUSH1 0x0 SSTORE JUMPDEST DUP2 MLOAD PUSH1 0x1 PUSH1 0x1 PUSH1 0x40 SHL SUB DUP2 GT PUSH2 0x2A3 JUMPI PUSH1 0x1 SLOAD PUSH1 0x1 DUP2 DUP2 SHR SWAP2 AND DUP1 ISZERO PUSH2 0x299 JUMPI JUMPDEST PUSH1 0x20 DUP3 LT EQ PUSH2 0x283 JUMPI PUSH1 0x1F DUP2 GT PUSH2 0x21E JUMPI JUMPDEST POP PUSH1 0x20 SWAP3 PUSH1 0x1F DUP3 GT PUSH1 0x1 EQ PUSH2 0x1B9 JUMPI SWAP3 DUP2 SWAP3 SWAP4 PUSH1 0x0 SWAP3 PUSH2 0x1AE JUMPI JUMPDEST POP POP DUP2 PUSH1 0x1 SHL SWAP2 PUSH1 0x0 NOT SWAP1 PUSH1 0x3 SHL SHR NOT AND OR PUSH1 0x1 SSTORE JUMPDEST PUSH1 0x3 DUP1 SLOAD PUSH1 0x1 PUSH1 0x1 PUSH1 0xA0 SHL SUB NOT SWAP1 DUP2 AND SWAP3 SWAP1 SWAP3 OR SWAP1 SSTORE PUSH1 0x2 DUP1 SLOAD SWAP1 SWAP2 AND CALLER OR SWAP1 SSTORE PUSH8 0x22B1C8C1227A0000 PUSH1 0x6 SSTORE PUSH7 0xDC44ABE8130000 PUSH1 0x8 DUP2 SWAP1 SSTORE PUSH1 0x5 SSTORE PUSH8 0xB1A2BC2EC500000 PUSH1 0x9 SSTORE PUSH8 0x9B6E64A8EC60000 PUSH1 0xA SSTORE PUSH1 0x40 MLOAD PUSH2 0x81E SWAP1 DUP2 PUSH2 0x3C3 DUP3 CODECOPY RETURN JUMPDEST ADD MLOAD SWAP1 POP CODESIZE DUP1 PUSH2 0x134 JUMP JUMPDEST PUSH1 0x1F NOT DUP3 AND SWAP4 PUSH1 0x1 PUSH1 0x0 MSTORE DUP1 PUSH1 0x0 KECCAK256 SWAP2 PUSH1 0x0 JUMPDEST DUP7 DUP2 LT PUSH2 0x206 JUMPI POP DUP4 PUSH1 0x1 SWAP6 SWAP7 LT PUSH2 0x1ED JUMPI JUMPDEST POP POP POP DUP2 SHL ADD PUSH1 0x1 SSTORE PUSH2 0x14A JUMP JUMPDEST ADD MLOAD PUSH1 0x0 NOT PUSH1 0xF8 DUP5 PUSH1 0x3 SHL AND SHR NOT AND SWAP1 SSTORE CODESIZE DUP1 DUP1 PUSH2 0x1DF JUMP JUMPDEST SWAP2 SWAP3 PUSH1 0x20 PUSH1 0x1 DUP2 SWAP3 DUP7 DUP6 ADD MLOAD DUP2 SSTORE ADD SWAP5 ADD SWAP3 ADD PUSH2 0x1CC JUMP JUMPDEST PUSH1 0x1 PUSH1 0x0 MSTORE PUSH32 0xB10E2D527612073B26EECDFD717E6A320CF44B4AFAC2B0732D9FCBE2B7FA0CF6 PUSH1 0x1F DUP4 ADD PUSH1 0x5 SHR DUP2 ADD SWAP2 PUSH1 0x20 DUP5 LT PUSH2 0x279 JUMPI JUMPDEST PUSH1 0x1F ADD PUSH1 0x5 SHR ADD SWAP1 JUMPDEST DUP2 DUP2 LT PUSH2 0x26D JUMPI POP PUSH2 0x119 JUMP JUMPDEST PUSH1 0x0 DUP2 SSTORE PUSH1 0x1 ADD PUSH2 0x260 JUMP JUMPDEST SWAP1 SWAP2 POP DUP2 SWAP1 PUSH2 0x257 JUMP JUMPDEST PUSH4 0x4E487B71 PUSH1 0xE0 SHL PUSH1 0x0 MSTORE PUSH1 0x22 PUSH1 0x4 MSTORE PUSH1 0x24 PUSH1 0x0 REVERT JUMPDEST SWAP1 PUSH1 0x7F AND SWAP1 PUSH2 0x107 JUMP JUMPDEST PUSH4 0x4E487B71 PUSH1 0xE0 SHL PUSH1 0x0 MSTORE PUSH1 0x41 PUSH1 0x4 MSTORE PUSH1 0x24 PUSH1 0x0 REVERT JUMPDEST ADD MLOAD SWAP1 POP CODESIZE DUP1 PUSH2 0xD0 JUMP JUMPDEST PUSH1 0x1F NOT DUP3 AND SWAP1 PUSH1 0x0 DUP1 MSTORE DUP1 PUSH1 0x0 KECCAK256 SWAP2 PUSH1 0x0 JUMPDEST DUP2 DUP2 LT PUSH2 0x312 JUMPI POP SWAP6 DUP4 PUSH1 0x1 SWAP6 SWAP7 SWAP8 LT PUSH2 0x2F9 JUMPI JUMPDEST POP POP POP DUP2 SHL ADD PUSH1 0x0 SSTORE PUSH2 0xE6 JUMP JUMPDEST ADD MLOAD PUSH1 0x0 NOT PUSH1 0xF8 DUP5 PUSH1 0x3 SHL AND SHR NOT AND SWAP1 SSTORE CODESIZE DUP1 DUP1 PUSH2 0x2EB JUMP JUMPDEST SWAP2 SWAP3 PUSH1 0x20 PUSH1 0x1 DUP2 SWAP3 DUP7 DUP12 ADD MLOAD DUP2 SSTORE ADD SWAP5 ADD SWAP3 ADD PUSH2 0x2D6 JUMP JUMPDEST PUSH1 0x0 DUP1 MSTORE PUSH32 0x290DECD9548B62A8D60345A988386FC84BA6BC95484008F6362F93160EF3E563 PUSH1 0x1F DUP4 ADD PUSH1 0x5 SHR DUP2 ADD SWAP2 PUSH1 0x20 DUP5 LT PUSH2 0x384 JUMPI JUMPDEST PUSH1 0x1F ADD PUSH1 0x5 SHR ADD SWAP1 JUMPDEST DUP2 DUP2 LT PUSH2 0x378 JUMPI POP PUSH2 0xB6 JUMP JUMPDEST PUSH1 0x0 DUP2 SSTORE PUSH1 0x1 ADD PUSH2 0x36B JUMP JUMPDEST SWAP1 SWAP2 POP DUP2 SWAP1 PUSH2 0x362 JUMP JUMPDEST SWAP1 PUSH1 0x7F AND SWAP1 PUSH2 0xA4 JUMP JUMPDEST PUSH1 0x0 DUP1 REVERT JUMPDEST PUSH1 0x40 MLOAD SWAP2 SWAP1 PUSH1 0x1F ADD PUSH1 0x1F NOT AND DUP3 ADD PUSH1 0x1 PUSH1 0x1 PUSH1 0x40 SHL SUB DUP2 GT DUP4 DUP3 LT OR PUSH2 0x2A3 JUMPI PUSH1 0x40 MSTORE JUMP INVALID PUSH1 0x80 DUP1 PUSH1 0x40 MSTORE PUSH1 0x4 CALLDATASIZE LT ISZERO PUSH2 0x13 JUMPI PUSH1 0x0 DUP1 REVERT JUMPDEST PUSH1 0x0 CALLDATALOAD PUSH1 0xE0 SHR SWAP1 DUP2 PUSH4 0x1E1D114 EQ PUSH2 0x6D2 JUMPI POP DUP1 PUSH4 0x6FDDE03 EQ PUSH2 0x618 JUMPI DUP1 PUSH4 0xC191763 EQ PUSH2 0x5FA JUMPI DUP1 PUSH4 0x22841F01 EQ PUSH2 0x5DC JUMPI DUP1 PUSH4 0x23A4DEB5 EQ PUSH2 0x5B6 JUMPI DUP1 PUSH4 0x38D52E0F EQ PUSH2 0x58D JUMPI DUP1 PUSH4 0x3BCFC4B8 EQ PUSH2 0x23D JUMPI DUP1 PUSH4 0x4031234C EQ PUSH2 0x56F JUMPI DUP1 PUSH4 0x4641257D EQ PUSH2 0x4BB JUMPI DUP1 PUSH4 0x47E7EF24 EQ PUSH2 0x461 JUMPI DUP1 PUSH4 0x6817031B EQ PUSH2 0x404 JUMPI DUP1 PUSH4 0x6FB49D73 EQ PUSH2 0x3E6 JUMPI DUP1 PUSH4 0x8770CCC7 EQ PUSH2 0x3B8 JUMPI DUP1 PUSH4 0x8CE74426 EQ PUSH2 0x297 JUMPI DUP1 PUSH4 0xA218141B EQ PUSH2 0x279 JUMPI DUP1 PUSH4 0xAD2961A3 EQ PUSH2 0x25B JUMPI DUP1 PUSH4 0xB996DE67 EQ PUSH2 0x23D JUMPI DUP1 PUSH4 0xE4020804 EQ PUSH2 0x214 JUMPI DUP1 PUSH4 0xE9A37738 EQ PUSH2 0x1F6 JUMPI DUP1 PUSH4 0xF3FEF3A3 EQ PUSH2 0x158 JUMPI DUP1 PUSH4 0xFBFA77CF EQ PUSH2 0x12F JUMPI PUSH4 0xFF16EF39 EQ PUSH2 0x111 JUMPI PUSH1 0x0 DUP1 REVERT JUMPDEST CALLVALUE PUSH2 0x12A JUMPI PUSH1 0x20 CALLDATASIZE PUSH1 0x3 NOT ADD SLT PUSH2 0x12A JUMPI PUSH1 0x4 CALLDATALOAD PUSH1 0x5 SSTORE STOP JUMPDEST PUSH1 0x0 DUP1 REVERT JUMPDEST CALLVALUE PUSH2 0x12A JUMPI PUSH1 0x0 CALLDATASIZE PUSH1 0x3 NOT ADD SLT PUSH2 0x12A JUMPI PUSH1 0x2 SLOAD PUSH1 0x40 MLOAD PUSH1 0x1 PUSH1 0x1 PUSH1 0xA0 SHL SUB SWAP1 SWAP2 AND DUP2 MSTORE PUSH1 0x20 SWAP1 RETURN JUMPDEST CALLVALUE PUSH2 0x12A JUMPI PUSH1 0x40 CALLDATASIZE PUSH1 0x3 NOT ADD SLT PUSH2 0x12A JUMPI PUSH2 0x171 PUSH2 0x736 JUMP JUMPDEST POP PUSH1 0x24 CALLDATALOAD PUSH2 0x18A PUSH1 0x1 DUP1 PUSH1 0xA0 SHL SUB PUSH1 0x2 SLOAD AND CALLER EQ PUSH2 0x795 JUMP JUMPDEST PUSH1 0xB SLOAD SWAP1 DUP2 DUP2 GT PUSH2 0x1BB JUMPI PUSH2 0x1A1 DUP2 PUSH1 0x20 SWAP4 PUSH2 0x7CE JUMP JUMPDEST PUSH1 0xB SSTORE PUSH2 0x1B0 DUP2 PUSH1 0x4 SLOAD PUSH2 0x7CE JUMP JUMPDEST PUSH1 0x4 SSTORE PUSH1 0x40 MLOAD SWAP1 DUP2 MSTORE RETURN JUMPDEST PUSH1 0x40 MLOAD PUSH3 0x461BCD PUSH1 0xE5 SHL DUP2 MSTORE PUSH1 0x20 PUSH1 0x4 DUP3 ADD MSTORE PUSH1 0x13 PUSH1 0x24 DUP3 ADD MSTORE PUSH19 0x24B739BAB33334B1B4B2B73A1030AA37B5B2B7 PUSH1 0x69 SHL PUSH1 0x44 DUP3 ADD MSTORE PUSH1 0x64 SWAP1 REVERT JUMPDEST CALLVALUE PUSH2 0x12A JUMPI PUSH1 0x0 CALLDATASIZE PUSH1 0x3 NOT ADD SLT PUSH2 0x12A JUMPI PUSH1 0x20 PUSH1 0xB SLOAD PUSH1 0x40 MLOAD SWAP1 DUP2 MSTORE RETURN JUMPDEST CALLVALUE PUSH2 0x12A JUMPI PUSH1 0x0 CALLDATASIZE PUSH1 0x3 NOT ADD SLT PUSH2 0x12A JUMPI PUSH1 0x20 PUSH8 0x14D1120D7B160000 PUSH1 0x6 SLOAD LT ISZERO PUSH1 0x40 MLOAD SWAP1 DUP2 MSTORE RETURN JUMPDEST CALLVALUE PUSH2 0x12A JUMPI PUSH1 0x0 CALLDATASIZE PUSH1 0x3 NOT ADD SLT PUSH2 0x12A JUMPI PUSH1 0x20 PUSH1 0x5 SLOAD PUSH1 0x40 MLOAD SWAP1 DUP2 MSTORE RETURN JUMPDEST CALLVALUE PUSH2 0x12A JUMPI PUSH1 0x0 CALLDATASIZE PUSH1 0x3 NOT ADD SLT PUSH2 0x12A JUMPI PUSH1 0x20 PUSH1 0x8 SLOAD PUSH1 0x40 MLOAD SWAP1 DUP2 MSTORE RETURN JUMPDEST CALLVALUE PUSH2 0x12A JUMPI PUSH1 0x0 CALLDATASIZE PUSH1 0x3 NOT ADD SLT PUSH2 0x12A JUMPI PUSH1 0x20 PUSH1 0x7 SLOAD PUSH1 0x40 MLOAD SWAP1 DUP2 MSTORE RETURN JUMPDEST CALLVALUE PUSH2 0x12A JUMPI PUSH1 0x0 CALLDATASIZE PUSH1 0x3 NOT ADD SLT PUSH2 0x12A JUMPI PUSH1 0x0 PUSH1 0x40 MLOAD DUP2 PUSH1 0x1 SLOAD DUP1 PUSH1 0x1 SHR SWAP1 PUSH1 0x1 DUP2 AND DUP1 ISZERO PUSH2 0x3AE JUMPI JUMPDEST PUSH1 0x20 DUP4 LT DUP2 EQ PUSH2 0x39A JUMPI DUP3 DUP6 MSTORE SWAP1 DUP2 ISZERO PUSH2 0x37E JUMPI POP PUSH1 0x1 EQ PUSH2 0x32A JUMPI JUMPDEST POP DUP2 SWAP1 SUB PUSH1 0x1F ADD PUSH1 0x1F NOT AND DUP2 ADD PUSH8 0xFFFFFFFFFFFFFFFF DUP2 GT DUP3 DUP3 LT OR PUSH2 0x316 JUMPI PUSH2 0x312 SWAP3 POP PUSH1 0x40 MSTORE PUSH1 0x40 MLOAD SWAP2 DUP3 SWAP2 DUP3 PUSH2 0x6ED JUMP JUMPDEST SUB SWAP1 RETURN JUMPDEST PUSH4 0x4E487B71 PUSH1 0xE0 SHL DUP4 MSTORE PUSH1 0x41 PUSH1 0x4 MSTORE PUSH1 0x24 DUP4 REVERT JUMPDEST PUSH1 0x1 DUP5 MSTORE SWAP1 POP DUP3 PUSH32 0xB10E2D527612073B26EECDFD717E6A320CF44B4AFAC2B0732D9FCBE2B7FA0CF6 JUMPDEST DUP3 DUP3 LT PUSH2 0x368 JUMPI POP PUSH1 0x20 SWAP2 POP DUP3 ADD ADD DUP4 PUSH2 0x2DE JUMP JUMPDEST PUSH1 0x1 DUP2 PUSH1 0x20 SWAP3 SLOAD DUP4 DUP6 DUP9 ADD ADD MSTORE ADD SWAP2 ADD SWAP1 PUSH2 0x353 JUMP JUMPDEST SWAP1 POP PUSH1 0x20 SWAP3 POP PUSH1 0xFF NOT AND DUP3 DUP5 ADD MSTORE ISZERO ISZERO PUSH1 0x5 SHL DUP3 ADD ADD DUP4 PUSH2 0x2DE JUMP JUMPDEST PUSH4 0x4E487B71 PUSH1 0xE0 SHL DUP7 MSTORE PUSH1 0x22 PUSH1 0x4 MSTORE PUSH1 0x24 DUP7 REVERT JUMPDEST SWAP2 PUSH1 0x7F AND SWAP2 PUSH2 0x2C1 JUMP JUMPDEST CALLVALUE PUSH2 0x12A JUMPI PUSH1 0x20 CALLDATASIZE PUSH1 0x3 NOT ADD SLT PUSH2 0x12A JUMPI PUSH2 0x3DE PUSH1 0x1 DUP1 PUSH1 0xA0 SHL SUB PUSH1 0x2 SLOAD AND CALLER EQ PUSH2 0x795 JUMP JUMPDEST PUSH1 0x4 CALLDATALOAD PUSH1 0x6 SSTORE STOP JUMPDEST CALLVALUE PUSH2 0x12A JUMPI PUSH1 0x0 CALLDATASIZE PUSH1 0x3 NOT ADD SLT PUSH2 0x12A JUMPI PUSH1 0x20 PUSH1 0xA SLOAD PUSH1 0x40 MLOAD SWAP1 DUP2 MSTORE RETURN JUMPDEST CALLVALUE PUSH2 0x12A JUMPI PUSH1 0x20 CALLDATASIZE PUSH1 0x3 NOT ADD SLT PUSH2 0x12A JUMPI PUSH2 0x41D PUSH2 0x736 JUMP JUMPDEST PUSH1 0x2 SLOAD SWAP1 PUSH1 0x1 PUSH1 0x1 PUSH1 0xA0 SHL SUB DUP3 AND DUP1 ISZERO SWAP1 DUP2 ISZERO PUSH2 0x457 JUMPI JUMPDEST POP ISZERO PUSH2 0x12A JUMPI PUSH1 0x1 PUSH1 0x1 PUSH1 0xA0 SHL SUB AND PUSH1 0x1 PUSH1 0x1 PUSH1 0xA0 SHL SUB NOT SWAP2 SWAP1 SWAP2 AND OR PUSH1 0x2 SSTORE STOP JUMPDEST SWAP1 POP CALLER EQ DUP4 PUSH2 0x435 JUMP JUMPDEST CALLVALUE PUSH2 0x12A JUMPI PUSH1 0x40 CALLDATASIZE PUSH1 0x3 NOT ADD SLT PUSH2 0x12A JUMPI PUSH2 0x47A PUSH2 0x736 JUMP JUMPDEST POP PUSH1 0x20 PUSH1 0x24 CALLDATALOAD PUSH2 0x495 PUSH1 0x1 DUP1 PUSH1 0xA0 SHL SUB PUSH1 0x2 SLOAD AND CALLER EQ PUSH2 0x795 JUMP JUMPDEST PUSH2 0x4A1 DUP2 PUSH1 0x4 SLOAD PUSH2 0x7DB JUMP JUMPDEST PUSH1 0x4 SSTORE PUSH2 0x4B0 DUP2 PUSH1 0xB SLOAD PUSH2 0x7DB JUMP JUMPDEST PUSH1 0xB SSTORE PUSH1 0x40 MLOAD SWAP1 DUP2 MSTORE RETURN JUMPDEST CALLVALUE PUSH2 0x12A JUMPI PUSH1 0x0 CALLDATASIZE PUSH1 0x3 NOT ADD SLT PUSH2 0x12A JUMPI PUSH2 0x4E1 PUSH1 0x1 DUP1 PUSH1 0xA0 SHL SUB PUSH1 0x2 SLOAD AND CALLER EQ PUSH2 0x795 JUMP JUMPDEST PUSH1 0x20 PUSH1 0x0 PUSH2 0x4F1 PUSH1 0x7 SLOAD NUMBER PUSH2 0x7CE JUMP JUMPDEST DUP1 ISZERO ISZERO DUP1 PUSH2 0x564 JUMPI JUMPDEST PUSH2 0x50C JUMPI JUMPDEST POP NUMBER PUSH1 0x7 SSTORE PUSH1 0x40 MLOAD SWAP1 DUP2 MSTORE RETURN JUMPDEST PUSH11 0x12A201671C8C4641080000 PUSH2 0x530 PUSH1 0xB SLOAD SWAP3 PUSH2 0x52B PUSH1 0x8 SLOAD DUP6 PUSH2 0x74C JUMP JUMPDEST PUSH2 0x74C JUMP JUMPDEST DIV SWAP1 DUP2 PUSH2 0x53E JUMPI JUMPDEST POP PUSH2 0x4FF JUMP JUMPDEST DUP2 SWAP3 POP SWAP1 PUSH2 0x54B SWAP2 PUSH2 0x7DB JUMP JUMPDEST PUSH1 0xB SSTORE PUSH2 0x55A DUP2 PUSH1 0x4 SLOAD PUSH2 0x7DB JUMP JUMPDEST PUSH1 0x4 SSTORE DUP3 DUP1 PUSH2 0x538 JUMP JUMPDEST POP PUSH1 0xB SLOAD ISZERO ISZERO PUSH2 0x4FA JUMP JUMPDEST CALLVALUE PUSH2 0x12A JUMPI PUSH1 0x0 CALLDATASIZE PUSH1 0x3 NOT ADD SLT PUSH2 0x12A JUMPI PUSH1 0x20 PUSH1 0x9 SLOAD PUSH1 0x40 MLOAD SWAP1 DUP2 MSTORE RETURN JUMPDEST CALLVALUE PUSH2 0x12A JUMPI PUSH1 0x0 CALLDATASIZE PUSH1 0x3 NOT ADD SLT PUSH2 0x12A JUMPI PUSH1 0x3 SLOAD PUSH1 0x40 MLOAD PUSH1 0x1 PUSH1 0x1 PUSH1 0xA0 SHL SUB SWAP1 SWAP2 AND DUP2 MSTORE PUSH1 0x20 SWAP1 RETURN JUMPDEST CALLVALUE PUSH2 0x12A JUMPI PUSH1 0x20 CALLDATASIZE PUSH1 0x3 NOT ADD SLT PUSH2 0x12A JUMPI PUSH1 0x20 PUSH2 0x5D4 PUSH1 0x4 CALLDATALOAD PUSH2 0x775 JUMP JUMPDEST PUSH1 0x40 MLOAD SWAP1 DUP2 MSTORE RETURN JUMPDEST CALLVALUE PUSH2 0x12A JUMPI PUSH1 0x0 CALLDATASIZE PUSH1 0x3 NOT ADD SLT PUSH2 0x12A JUMPI PUSH1 0x20 PUSH1 0x6 SLOAD PUSH1 0x40 MLOAD SWAP1 DUP2 MSTORE RETURN JUMPDEST CALLVALUE PUSH2 0x12A JUMPI PUSH1 0x20 CALLDATASIZE PUSH1 0x3 NOT ADD SLT PUSH2 0x12A JUMPI PUSH1 0x4 CALLDATALOAD PUSH1 0x8 DUP2 SWAP1 SSTORE PUSH1 0x5 SSTORE STOP JUMPDEST CALLVALUE PUSH2 0x12A JUMPI PUSH1 0x0 CALLDATASIZE PUSH1 0x3 NOT ADD SLT PUSH2 0x12A JUMPI PUSH1 0x0 PUSH1 0x40 MLOAD DUP2 DUP3 SLOAD DUP1 PUSH1 0x1 SHR SWAP1 PUSH1 0x1 DUP2 AND DUP1 ISZERO PUSH2 0x6C8 JUMPI JUMPDEST PUSH1 0x20 DUP4 LT DUP2 EQ PUSH2 0x39A JUMPI DUP3 DUP6 MSTORE SWAP1 DUP2 ISZERO PUSH2 0x37E JUMPI POP PUSH1 0x1 EQ PUSH2 0x691 JUMPI POP DUP2 SWAP1 SUB PUSH1 0x1F ADD PUSH1 0x1F NOT AND DUP2 ADD PUSH8 0xFFFFFFFFFFFFFFFF DUP2 GT DUP3 DUP3 LT OR PUSH2 0x316 JUMPI PUSH2 0x312 SWAP3 POP PUSH1 0x40 MSTORE PUSH1 0x40 MLOAD SWAP2 DUP3 SWAP2 DUP3 PUSH2 0x6ED JUMP JUMPDEST SWAP1 POP DUP3 DUP1 MSTORE PUSH1 0x20 DUP4 KECCAK256 DUP4 SWAP1 JUMPDEST DUP3 DUP3 LT PUSH2 0x6B2 JUMPI POP PUSH1 0x20 SWAP2 POP DUP3 ADD ADD DUP4 PUSH2 0x2DE JUMP JUMPDEST PUSH1 0x1 DUP2 PUSH1 0x20 SWAP3 SLOAD DUP4 DUP6 DUP9 ADD ADD MSTORE ADD SWAP2 ADD SWAP1 PUSH2 0x69D JUMP JUMPDEST SWAP2 PUSH1 0x7F AND SWAP2 PUSH2 0x641 JUMP JUMPDEST CALLVALUE PUSH2 0x12A JUMPI PUSH1 0x0 CALLDATASIZE PUSH1 0x3 NOT ADD SLT PUSH2 0x12A JUMPI PUSH1 0x20 SWAP1 PUSH1 0x4 SLOAD DUP2 MSTORE RETURN JUMPDEST SWAP2 SWAP1 SWAP2 PUSH1 0x20 DUP2 MSTORE DUP3 MLOAD DUP1 PUSH1 0x20 DUP4 ADD MSTORE PUSH1 0x0 JUMPDEST DUP2 DUP2 LT PUSH2 0x720 JUMPI POP PUSH1 0x40 SWAP3 SWAP4 POP PUSH1 0x0 DUP4 DUP3 DUP5 ADD ADD MSTORE PUSH1 0x1F DUP1 NOT SWAP2 ADD AND ADD ADD SWAP1 JUMP JUMPDEST DUP1 PUSH1 0x20 DUP1 SWAP3 DUP8 ADD ADD MLOAD PUSH1 0x40 DUP3 DUP7 ADD ADD MSTORE ADD PUSH2 0x6FF JUMP JUMPDEST PUSH1 0x4 CALLDATALOAD SWAP1 PUSH1 0x1 PUSH1 0x1 PUSH1 0xA0 SHL SUB DUP3 AND DUP3 SUB PUSH2 0x12A JUMPI JUMP JUMPDEST DUP2 DUP2 MUL SWAP3 SWAP2 DUP2 ISZERO SWAP2 DUP5 DIV EQ OR ISZERO PUSH2 0x75F JUMPI JUMP JUMPDEST PUSH4 0x4E487B71 PUSH1 0xE0 SHL PUSH1 0x0 MSTORE PUSH1 0x11 PUSH1 0x4 MSTORE PUSH1 0x24 PUSH1 0x0 REVERT JUMPDEST DUP1 ISZERO PUSH2 0x78E JUMPI PUSH2 0x78A PUSH1 0xB SLOAD PUSH1 0x9 SLOAD SWAP1 PUSH2 0x74C JUMP JUMPDEST DIV SWAP1 JUMP JUMPDEST POP PUSH1 0x0 NOT SWAP1 JUMP JUMPDEST ISZERO PUSH2 0x79C JUMPI JUMP JUMPDEST PUSH1 0x40 MLOAD PUSH3 0x461BCD PUSH1 0xE5 SHL DUP2 MSTORE PUSH1 0x20 PUSH1 0x4 DUP3 ADD MSTORE PUSH1 0xA PUSH1 0x24 DUP3 ADD MSTORE PUSH10 0x13DB9B1E481D985D5B1D PUSH1 0xB2 SHL PUSH1 0x44 DUP3 ADD MSTORE PUSH1 0x64 SWAP1 REVERT JUMPDEST SWAP2 SWAP1 DUP3 SUB SWAP2 DUP3 GT PUSH2 0x75F JUMPI JUMP JUMPDEST SWAP2 SWAP1 DUP3 ADD DUP1 SWAP3 GT PUSH2 0x75F JUMPI JUMP INVALID LOG2 PUSH5 0x6970667358 0x22 SLT KECCAK256 0xA5 CALLCODE SWAP9 0xE SWAP7 DUP12 NUMBER CALLCODE CALLDATASIZE MCOPY 0xBC PUSH13 0x72D7D768C9D10B05BC080A629C DUP7 NOT SELFDESTRUCT 0x2D 0xC0 SWAP4 0xC PUSH5 0x736F6C6343 STOP ADDMOD SHR STOP CALLER "},"methodIdentifiers":{"aTokenBalance()":"e9a37738","apy()":"3bcfc4b8","asset()":"38d52e0f","calculateHealthFactor(uint256)":"23a4deb5","currentApy()":"b996de67","deposit(address,uint256)":"47e7ef24","harvest()":"4641257d","healthFactor()":"22841f01","isHealthy()":"e4020804","lastUpdateBlock()":"a218141b","liquidationThreshold()":"4031234c","ltv()":"6fb49d73","name()":"06fdde03","protocol()":"8ce74426","setVault(address)":"6817031b","supplyRate()":"ad2961a3","totalAssets()":"01e1d114","updateApy(uint256)":"ff16ef39","updateHealthFactor(uint256)":"8770ccc7","updateSupplyRate(uint256)":"0c191763","vault()":"fbfa77cf","withdraw(address,uint256)":"f3fef3a3"}}}}}