{
  "_format": "hh-sol-artifact-1",
  "contractName": "MorphoStrategy",
  "sourceName": "contracts/MorphoStrategy.sol",
  "abi": [
    {
      "inputs": [
        {
          "internalType": "address",
          "name": "_asset",
          "type": "address"
        }
      ],
      "stateMutability": "nonpayable",
      "type": "constructor"
    },
    {
      "inputs": [],
      "name": "apy",
      "outputs": [
        {
          "internalType": "uint256",
          "name": "",
          "type": "uint256"
        }
      ],
      "stateMutability": "view",
      "type": "function"
    },
    {
      "inputs": [],
      "name": "asset",
      "outputs": [
        {
          "internalType": "address",
          "name": "",
          "type": "address"
        }
      ],
      "stateMutability": "view",
      "type": "function"
    },
    {
      "inputs": [],
      "name": "currentApy",
      "outputs": [
        {
          "internalType": "uint256",
          "name": "",
          "type": "uint256"
        }
      ],
      "stateMutability": "view",
      "type": "function"
    },
    {
      "inputs": [
        {
          "internalType": "address",
          "name": "",
          "type": "address"
        },
        {
          "internalType": "uint256",
          "name": "amount",
          "type": "uint256"
        }
      ],
      "name": "deposit",
      "outputs": [
        {
          "internalType": "uint256",
          "name": "",
          "type": "uint256"
        }
      ],
      "stateMutability": "nonpayable",
      "type": "function"
    },
    {
      "inputs": [],
      "name": "harvest",
      "outputs": [
        {
          "internalType": "uint256",
          "name": "yield_",
          "type": "uint256"
        }
      ],
      "stateMutability": "nonpayable",
      "type": "function"
    },
    {
      "inputs": [],
      "name": "healthFactor",
      "outputs": [
        {
          "internalType": "uint256",
          "name": "",
          "type": "uint256"
        }
      ],
      "stateMutability": "view",
      "type": "function"
    },
    {
      "inputs": [],
      "name": "isHealthy",
      "outputs": [
        {
          "internalType": "bool",
          "name": "",
          "type": "bool"
        }
      ],
      "stateMutability": "view",
      "type": "function"
    },
    {
      "inputs": [],
      "name": "lastUpdateBlock",
      "outputs": [
        {
          "internalType": "uint256",
          "name": "",
          "type": "uint256"
        }
      ],
      "stateMutability": "view",
      "type": "function"
    },
    {
      "inputs": [],
      "name": "matchingRatio",
      "outputs": [
        {
          "internalType": "uint256",
          "name": "",
          "type": "uint256"
        }
      ],
      "stateMutability": "view",
      "type": "function"
    },
    {
      "inputs": [],
      "name": "name",
      "outputs": [
        {
          "internalType": "string",
          "name": "",
          "type": "string"
        }
      ],
      "stateMutability": "view",
      "type": "function"
    },
    {
      "inputs": [],
      "name": "protocol",
      "outputs": [
        {
          "internalType": "string",
          "name": "",
          "type": "string"
        }
      ],
      "stateMutability": "view",
      "type": "function"
    },
    {
      "inputs": [
        {
          "internalType": "address",
          "name": "_vault",
          "type": "address"
        }
      ],
      "name": "setVault",
      "outputs": [],
      "stateMutability": "nonpayable",
      "type": "function"
    },
    {
      "inputs": [],
      "name": "supplyRate",
      "outputs": [
        {
          "internalType": "uint256",
          "name": "",
          "type": "uint256"
        }
      ],
      "stateMutability": "view",
      "type": "function"
    },
    {
      "inputs": [],
      "name": "totalAssets",
      "outputs": [
        {
          "internalType": "uint256",
          "name": "",
          "type": "uint256"
        }
      ],
      "stateMutability": "view",
      "type": "function"
    },
    {
      "inputs": [],
      "name": "totalSupplied",
      "outputs": [
        {
          "internalType": "uint256",
          "name": "",
          "type": "uint256"
        }
      ],
      "stateMutability": "view",
      "type": "function"
    },
    {
      "inputs": [
        {
          "internalType": "uint256",
          "name": "_newApy",
          "type": "uint256"
        }
      ],
      "name": "updateApy",
      "outputs": [],
      "stateMutability": "nonpayable",
      "type": "function"
    },
    {
      "inputs": [
        {
          "internalType": "uint256",
          "name": "_hf",
          "type": "uint256"
        }
      ],
      "name": "updateHealthFactor",
      "outputs": [],
      "stateMutability": "nonpayable",
      "type": "function"
    },
    {
      "inputs": [
        {
          "internalType": "uint256",
          "name": "_newRate",
          "type": "uint256"
        }
      ],
      "name": "updateSupplyRate",
      "outputs": [],
      "stateMutability": "nonpayable",
      "type": "function"
    },
    {
      "inputs": [],
      "name": "vault",
      "outputs": [
        {
          "internalType": "address",
          "name": "",
          "type": "address"
        }
      ],
      "stateMutability": "view",
      "type": "function"
    },
    {
      "inputs": [
        {
          "internalType": "address",
          "name": "",
          "type": "address"
        },
        {
          "internalType": "uint256",
          "name": "amount",
          "type": "uint256"
        }
      ],
      "name": "withdraw",
      "outputs": [
        {
          "internalType": "uint256",
          "name": "",
          "type": "uint256"
        }
      ],
      "stateMutability": "nonpayable",
      "type": "function"
    }
  ],
  "bytecode": "0x60806040523461039057610b586020813803918261001c81610395565b93849283398101031261039057516001600160a01b03811690819003610390576100466040610395565b9060128252714d6f7270686f20426c756520537570706c7960701b60208301526100706040610395565b60068152654d6f7270686f60d01b602082015282519091906001600160401b03811161029b57600054600181811c91168015610386575b602082101461027b57601f8111610322575b506020601f82116001146102bc57819293946000926102b1575b50508160011b916000199060031b1c1916176000555b81516001600160401b03811161029b57600154600181811c91168015610291575b602082101461027b57601f8111610216575b50602092601f82116001146101b157928192936000926101a6575b50508160011b916000199060031b1c1916176001555b600380546001600160a01b031990811692909217905560028054909116331790556722b1c8c1227a000060065567013c3107490280006008819055600555670bcbce7f1b15000060095560405161079d90816103bb8239f35b015190503880610137565b601f198216936001600052806000209160005b8681106101fe57508360019596106101e5575b505050811b0160015561014d565b015160001960f88460031b161c191690553880806101d7565b919260206001819286850151815501940192016101c4565b60016000527fb10e2d527612073b26eecdfd717e6a320cf44b4afac2b0732d9fcbe2b7fa0cf6601f830160051c81019160208410610271575b601f0160051c01905b818110610265575061011c565b60008155600101610258565b909150819061024f565b634e487b7160e01b600052602260045260246000fd5b90607f169061010a565b634e487b7160e01b600052604160045260246000fd5b0151905038806100d3565b601f1982169060008052806000209160005b81811061030a575095836001959697106102f1575b505050811b016000556100e9565b015160001960f88460031b161c191690553880806102e3565b9192602060018192868b0151815501940192016102ce565b600080527f290decd9548b62a8d60345a988386fc84ba6bc95484008f6362f93160ef3e563601f830160051c8101916020841061037c575b601f0160051c01905b81811061037057506100b9565b60008155600101610363565b909150819061035a565b90607f16906100a7565b600080fd5b6040519190601f01601f191682016001600160401b0381118382101761029b5760405256fe608080604052600436101561001357600080fd5b60003560e01c90816301e1d114146106715750806306fdde03146105b75780630c1917631461059957806322841f011461057b57806338d52e0f146105525780633bcfc4b8146102025780634641257d1461049e57806347e7ef2414610444578063630fd0ac146104265780636817031b146103c95780638770ccc71461039b5780638ce744261461027a578063a218141b1461025c578063aac3522a1461023e578063ad2961a314610220578063b996de6714610202578063e4020804146101d9578063f3fef3a314610142578063fbfa77cf146101195763ff16ef39146100fb57600080fd5b3461011457602036600319011261011457600435600555005b600080fd5b34610114576000366003190112610114576002546040516001600160a01b039091168152602090f35b346101145760403660031901126101145761015b6106d5565b5060243561017460018060a01b036002541633146106eb565b600a54908181116101a55761018b81602093610724565b600a5561019a81600454610724565b600455604051908152f35b60405162461bcd60e51b815260206004820152600c60248201526b125b9cdd59999a58da595b9d60a21b6044820152606490fd5b346101145760003660031901126101145760206714d1120d7b1600006006541015604051908152f35b34610114576000366003190112610114576020600554604051908152f35b34610114576000366003190112610114576020600854604051908152f35b34610114576000366003190112610114576020600954604051908152f35b34610114576000366003190112610114576020600754604051908152f35b34610114576000366003190112610114576000604051816001548060011c90600181168015610391575b60208310811461037d57828552908115610361575060011461030d575b50819003601f01601f1916810167ffffffffffffffff8111828210176102f9576102f592506040526040519182918261068c565b0390f35b634e487b7160e01b83526041600452602483fd5b600184529050827fb10e2d527612073b26eecdfd717e6a320cf44b4afac2b0732d9fcbe2b7fa0cf65b82821061034b575060209150820101836102c1565b6001816020925483858801015201910190610336565b90506020925060ff191682840152151560051b820101836102c1565b634e487b7160e01b86526022600452602486fd5b91607f16916102a4565b34610114576020366003190112610114576103c160018060a01b036002541633146106eb565b600435600655005b34610114576020366003190112610114576103e26106d5565b600254906001600160a01b038216801590811561041c575b5015610114576001600160a01b03166001600160a01b03199190911617600255005b90503314836103fa565b34610114576000366003190112610114576020600a54604051908152f35b346101145760403660031901126101145761045d6106d5565b50602060243561047860018060a01b036002541633146106eb565b6104848160045461075a565b60045561049381600a5461075a565b600a55604051908152f35b34610114576000366003190112610114576104c460018060a01b036002541633146106eb565b602060006104d460075443610724565b80151580610547575b6104ef575b5043600755604051908152f35b6a12a201671c8c4641080000610513600a549261050e60085485610747565b610747565b049081610521575b506104e2565b8192509061052e9161075a565b600a5561053d8160045461075a565b600455828061051b565b50600a5415156104dd565b34610114576000366003190112610114576003546040516001600160a01b039091168152602090f35b34610114576000366003190112610114576020600654604051908152f35b34610114576020366003190112610114576004356008819055600555005b346101145760003660031901126101145760006040518182548060011c90600181168015610667575b60208310811461037d5782855290811561036157506001146106305750819003601f01601f1916810167ffffffffffffffff8111828210176102f9576102f592506040526040519182918261068c565b90508280526020832083905b828210610651575060209150820101836102c1565b600181602092548385880101520191019061063c565b91607f16916105e0565b34610114576000366003190112610114576020906004548152f35b91909160208152825180602083015260005b8181106106bf575060409293506000838284010152601f8019910116010190565b806020809287010151604082860101520161069e565b600435906001600160a01b038216820361011457565b156106f257565b60405162461bcd60e51b815260206004820152600a60248201526913db9b1e481d985d5b1d60b21b6044820152606490fd5b9190820391821161073157565b634e487b7160e01b600052601160045260246000fd5b8181029291811591840414171561073157565b919082018092116107315756fea2646970667358221220d2122b1be851d8587b80aca87f4170ded2b1e1095520fbe9e682e554321c275664736f6c634300081c0033",
  "linkReferences": {},
  "deployedLinkReferences": {}
}