{
  "_format": "hh-sol-artifact-1",
  "contractName": "YieldGuardFactory",
  "sourceName": "contracts/YieldGuardFactory.sol",
  "abi": [
    {
      "inputs": [],
      "stateMutability": "nonpayable",
      "type": "constructor"
    },
    {
      "anonymous": false,
      "inputs": [
        {
          "indexed": true,
          "internalType": "address",
          "name": "vault",
          "type": "address"
        },
        {
          "indexed": false,
          "internalType": "string",
          "name": "name",
          "type": "string"
        },
        {
          "indexed": false,
          "internalType": "address",
          "name": "asset",
          "type": "address"
        },
        {
          "indexed": false,
          "internalType": "address",
          "name": "aaveStrategy",
          "type": "address"
        },
        {
          "indexed": false,
          "internalType": "address",
          "name": "morphoStrategy",
          "type": "address"
        },
        {
          "indexed": false,
          "internalType": "uint256",
          "name": "timestamp",
          "type": "uint256"
        }
      ],
      "name": "VaultDeployed",
      "type": "event"
    },
    {
      "inputs": [
        {
          "internalType": "string",
          "name": "_name",
          "type": "string"
        },
        {
          "internalType": "address",
          "name": "_asset",
          "type": "address"
        },
        {
          "internalType": "uint256",
          "name": "_performanceFee",
          "type": "uint256"
        }
      ],
      "name": "deployVault",
      "outputs": [
        {
          "internalType": "address",
          "name": "",
          "type": "address"
        }
      ],
      "stateMutability": "nonpayable",
      "type": "function"
    },
    {
      "inputs": [],
      "name": "getVaultCount",
      "outputs": [
        {
          "internalType": "uint256",
          "name": "",
          "type": "uint256"
        }
      ],
      "stateMutability": "view",
      "type": "function"
    },
    {
      "inputs": [],
      "name": "getVaults",
      "outputs": [
        {
          "internalType": "address[]",
          "name": "",
          "type": "address[]"
        }
      ],
      "stateMutability": "view",
      "type": "function"
    },
    {
      "inputs": [
        {
          "internalType": "address",
          "name": "",
          "type": "address"
        }
      ],
      "name": "isVaultFromFactory",
      "outputs": [
        {
          "internalType": "bool",
          "name": "",
          "type": "bool"
        }
      ],
      "stateMutability": "view",
      "type": "function"
    },
    {
      "inputs": [],
      "name": "owner",
      "outputs": [
        {
          "internalType": "address",
          "name": "",
          "type": "address"
        }
      ],
      "stateMutability": "view",
      "type": "function"
    },
    {
      "inputs": [],
      "name": "vaultCount",
      "outputs": [
        {
          "internalType": "uint256",
          "name": "",
          "type": "uint256"
        }
      ],
      "stateMutability": "view",
      "type": "function"
    },
    {
      "inputs": [
        {
          "internalType": "uint256",
          "name": "",
          "type": "uint256"
        }
      ],
      "name": "vaults",
      "outputs": [
        {
          "internalType": "address",
          "name": "",
          "type": "address"
        }
      ],
      "stateMutability": "view",
      "type": "function"
    }
  ],
  "bytecode": "0x60808060405234602757600080546001600160a01b03191633179055613f62908161002d8239f35b600080fdfe608080604052600436101561001357600080fd5b600090813560e01c908163147b868e14610225575080632f6071c7146101df57806344d00f821461011757806374d4e491146100f95780638c64ea4a146100b55780638da5cb5b1461008e5763a7c6a1001461006e57600080fd5b3461008b578060031936011261008b576020600154604051908152f35b80fd5b503461008b578060031936011261008b57546040516001600160a01b039091168152602090f35b503461008b57602036600319011261008b576004359060025482101561008b5760206100e083610688565b905460405160039290921b1c6001600160a01b03168152f35b503461008b578060031936011261008b576020600154604051908152f35b503461008b578060031936011261008b5760405180602060025491828152018091600285527f405787fa12a823e0f2b7631cc41b3ba8828b3321ca811111fa75cd3aa3bb5ace90855b8181106101c05750505082610176910383610650565b604051928392602084019060208552518091526040840192915b81811061019e575050500390f35b82516001600160a01b0316845285945060209384019390920191600101610190565b82546001600160a01b0316845260209093019260019283019201610160565b503461008b57602036600319011261008b576004356001600160a01b038116908190036102215760408260ff9260209452600384522054166040519015158152f35b5080fd5b823461008b57606036600319011261008b5760043567ffffffffffffffff811161022157366023820112156102215780600401359067ffffffffffffffff821161063c5761027d601f8301601f191660200185610650565b81845236602483830101116105f75781839260246020930183870137840101526024356001600160a01b03811690819003610221576040516120f98082019082821067ffffffffffffffff8311176105fb579082916106fb8339606081526102e860608201876106b9565b908460208201526040604435910152039083f091821561063057604051610be18082019082821067ffffffffffffffff83111761061c5760209183916127f4833985815203019082f092831561060f57604051610b588082019082821067ffffffffffffffff8311176105fb5760209183916133d5833986815203019083f093841561058e576001600160a01b0391821694911690813b156105f757604051636817031b60e01b815260048101869052838160248183875af180156105ec576105d8575b506001600160a01b031691823b1561008b57604051636817031b60e01b815260048101869052818160248183885af1801561058e579082916105c3575b5050843b1561008b5760405163223e547960e01b8152600481018390528181602481838a5af1801561058e579082916105ae575b5050843b1561008b5760405163223e547960e01b8152600481018490528181602481838a5af1801561058e57908291610599575b5050843b1561008b5760405163f2fde38b60e01b81523360048201528181602481838a5af1801561058e57908291610579575b505060025468010000000000000000811015610565578060016104aa9201600255610688565b8154600391821b88811b6001600160a01b0390911b199091161790915585825260205260408120805460ff191660019081179091555490600019821461055157509484937f251794e28ac8bd0808109c2f23fb1637ebdde918c6ee5d8d77d7973f4bb4a97a936105319360016020990160015560405194859460a0865260a08601906106b9565b9289850152604084015260608301524260808301520390a2604051908152f35b634e487b7160e01b81526011600452602490fd5b634e487b7160e01b82526041600452602482fd5b8161058391610650565b61008b578087610484565b6040513d84823e3d90fd5b816105a391610650565b61008b578087610451565b816105b891610650565b61008b57808761041d565b816105cd91610650565b61008b5780876103e9565b836105e591949294610650565b91866103ac565b6040513d86823e3d90fd5b8280fd5b634e487b7160e01b85526041600452602485fd5b50604051903d90823e3d90fd5b634e487b7160e01b84526041600452602484fd5b604051903d90823e3d90fd5b634e487b7160e01b83526041600452602483fd5b90601f8019910116810190811067ffffffffffffffff82111761067257604052565b634e487b7160e01b600052604160045260246000fd5b6002548110156106a357600260005260206000200190600090565b634e487b7160e01b600052603260045260246000fd5b919082519283825260005b8481106106e5575050826000602080949584010152601f8019910116010190565b806020809284010151828286010152016106c456fe608060405234610253576120f9803803806100198161026d565b9283398101906060818303126102535780516001600160401b03811161025357810182601f82011215610253578051906001600160401b03821161023d5761006a601f8301601f191660200161026d565b93828552602083830101116102535760005b82811061025857505060206000918401015260208101519060018060a01b0382168092036102535760400151600080546001600160a01b0319163317905582519091906001600160401b03811161023d57600154600181811c91168015610233575b602082101461021d57601f81116101b8575b506020601f82116001146101515781929394600092610146575b50508160011b916000199060031b1c1916176001555b600280546001600160a01b031916919091179055600655604051611e6690816102938239f35b01519050388061010a565b601f198216906001600052806000209160005b8181106101a057509583600195969710610187575b505050811b01600155610120565b015160001960f88460031b161c19169055388080610179565b9192602060018192868b015181550194019201610164565b60016000527fb10e2d527612073b26eecdfd717e6a320cf44b4afac2b0732d9fcbe2b7fa0cf6601f830160051c81019160208410610213575b601f0160051c01905b81811061020757506100f0565b600081556001016101fa565b90915081906101f1565b634e487b7160e01b600052602260045260246000fd5b90607f16906100de565b634e487b7160e01b600052604160045260246000fd5b600080fd5b8060208092840101518282880101520161007c565b6040519190601f01601f191682016001600160401b0381118382101761023d5760405256fe6080604052600436101561001257600080fd5b60003560e01c80630598da511461185c5780630ace9ca01461171a578063175188e81461159357806322068b4414611575578063223e54791461144d57806322841f011461143257806327e235e3146113f85780632e1a7d4d14610f255780632e8ebaae14610ee657806338d52e0f14610ebd5780633a98ef3914610e9f578063476343ee14610db6578063486b9f8814610d7c5780634ef2a64f14610d42578063587f5ed714610d245780635915e15d14610a955780636e973f361461087557806370a0823114610852578063872697291461083757806387788782146108195780638da5cb5b146107f05780638ed955b9146107cd578063b3f865f7146104a6578063b49a60bb146103da578063b6b55f2514610262578063d574ea3d14610220578063d73792a914610203578063f2fde38b1461017e5763f88c6b831461015b57600080fd5b34610179576000366003190112610179576020600454604051908152f35b600080fd5b3461017957602036600319011261017957610197611a0d565b600054906101af336001600160a01b03841614611a76565b6001600160a01b03169081156101cf576001600160a01b03191617600055005b60405162461bcd60e51b815260206004820152600c60248201526b5a65726f206164647265737360a01b6044820152606490fd5b346101795760003660031901126101795760206040516127108152f35b346101795760203660031901126101795760043560095481101561017957610249602091611a45565b905460405160039290921b1c6001600160a01b03168152f35b346101795760203660031901126101795760043580156103a6576002546040516323b872dd60e01b8152336004820152306024820152604481018390529190602090839060649082906000906001600160a01b03165af191821561039a576020926102d59160009161036d575b50611c28565b600354806103515750805b336000526007835260406000206102f8838254611c66565b905561030682600354611c66565b60035561031581600454611c66565b60045560405190815281838201527f73a19dd210f1a7f902193214c0ee91dd35ee5b4d920cba8d519eca65a7b488ca60403392a2604051908152f35b61035e6103679183611bdd565b60045490611bf0565b906102e0565b61038d9150843d8611610393575b6103858183611a23565b810190611c10565b846102cf565b503d61037b565b6040513d6000823e3d90fd5b60405162461bcd60e51b815260206004820152600c60248201526b16995c9bc819195c1bdcda5d60a21b6044820152606490fd5b34610179576000366003190112610179576040518060206009549283815201809260096000527f6e1540171b6c0c960b71a7020d9f60077f6af931a8bbf590da0223dacf75c7af9060005b818110610487575050508161043b910382611a23565b6040519182916020830190602084525180915260408301919060005b818110610465575050500390f35b82516001600160a01b0316845285945060209384019390920191600101610457565b82546001600160a01b0316845260209093019260019283019201610425565b34610179576060366003190112610179576104bf611a0d565b6024356001600160a01b0381169182820361017957604435906104ed60018060a01b03600054163314611a76565b6104f5611cf5565b506001600160a01b03166000818152600a602052604090205490929060ff16806107b5575b61052390611aae565b838314610780576040516278744560e21b8152602081600481875afa90811561039a5760009161074e575b5082116107105760025460405163f3fef3a360e01b81526001600160a01b03909116600482015260248101929092526020826044816000875af191821561039a576000926106d8575b5060025460405163a9059cbb60e01b81526001600160a01b039283166004820152602481018490529160209183916044918391600091165af1801561039a576105e7916000916106b95750611c28565b6002546040516311f9fbc960e21b81526001600160a01b039091166004820152602481018290526020816044816000885af1801561039a57610686575b506020907f1427d1942829759938581ce754fd0f7f116bfb7a4b77f80f0cb32cd62c2138c792600052600b82526040600020610661828254611aed565b905583600052600b8252604060002061067b828254611c66565b9055604051908152a2005b906020823d6020116106b1575b816106a060209383611a23565b810103126101795790506020610624565b3d9150610693565b6106d2915060203d602011610393576103858183611a23565b856102cf565b90916020823d602011610708575b816106f360209383611a23565b81010312610705575051906020610597565b80fd5b3d91506106e6565b60405162461bcd60e51b8152602060048201526016602482015275496e73756666696369656e7420696e20736f7572636560501b6044820152606490fd5b90506020813d602011610778575b8161076960209383611a23565b8101031261017957518561054e565b3d915061075c565b60405162461bcd60e51b815260206004820152600d60248201526c53616d6520737472617465677960981b6044820152606490fd5b506000848152600a602052604090205460ff1661051a565b346101795760003660031901126101795760206107e8611cf5565b604051908152f35b34610179576000366003190112610179576000546040516001600160a01b039091168152602090f35b34610179576000366003190112610179576020600654604051908152f35b346101795760003660031901126101795760206107e8611cb1565b346101795760203660031901126101795760206107e8610870611a0d565b611c73565b34610179576020366003190112610179576001600160a01b03610896611a0d565b1680600052600a6020526108b160ff60406000205416611aae565b6040516322841f0160e01b8152602081600481855afa801561039a57600090610a5b575b670de0b6b3a764000091501015610a26576040516278744560e21b8152602081600481855afa90811561039a576000916109f4575b5080156109c35760025460405163f3fef3a360e01b81526001600160a01b03909116600482015260248101919091526020816044816000865af190811561039a57600091610990575b5060207fdd42ff4f19dcdbfff4cefe836b953fce452bce2e1d4b6af171036824ed3d67d89183600052600b8252604060002061067b828254611aed565b906020823d6020116109bb575b816109aa60209383611a23565b810103126107055750516020610953565b3d915061099d565b60405162461bcd60e51b81526020600482015260096024820152684e6f2061737365747360b81b6044820152606490fd5b906020823d602011610a1e575b81610a0e60209383611a23565b810103126107055750518261090a565b3d9150610a01565b60405162461bcd60e51b815260206004820152600d60248201526c4846207374696c6c207361666560981b6044820152606490fd5b506020813d602011610a8d575b81610a7560209383611a23565b8101031261017957670de0b6b3a764000090516108d5565b3d9150610a68565b3461017957604036600319011261017957610aae611a0d565b602435610ac660018060a01b03600054163314611a76565b610ace611cf5565b5060018060a01b0382169182600052600a602052610af360ff60406000205416611aae565b6002546040516370a0823160e01b815230600482015290602090829060249082906001600160a01b03165afa90811561039a57600091610cf2575b508211610cad57602082610b949285600052600b83526040600020610b54838254611c66565b905560025460405163a9059cbb60e01b81526001600160a01b03928316600482015260248101939093529193849290911690829060009082906044820190565b03925af190811561039a57600091610c8e575b5015610c49576002546040516311f9fbc960e21b81526001600160a01b039091166004820152602481018290526020816044816000875af1801561039a57610c18575b5060207f1427d1942829759938581ce754fd0f7f116bfb7a4b77f80f0cb32cd62c2138c791604051908152a2005b6020813d602011610c41575b81610c3160209383611a23565b8101031261017957506020610bea565b3d9150610c24565b60405162461bcd60e51b815260206004820152601b60248201527f5472616e7366657220746f207374726174656779206661696c656400000000006044820152606490fd5b610ca7915060203d602011610393576103858183611a23565b83610ba7565b60405162461bcd60e51b815260206004820152601860248201527f496e73756666696369656e742069646c652061737365747300000000000000006044820152606490fd5b90506020813d602011610d1c575b81610d0d60209383611a23565b81010312610179575184610b2e565b3d9150610d00565b34610179576000366003190112610179576020600554604051908152f35b34610179576020366003190112610179576001600160a01b03610d63611a0d565b16600052600b6020526020604060002054604051908152f35b34610179576020366003190112610179576001600160a01b03610d9d611a0d565b1660005260086020526020604060002054604051908152f35b3461017957600036600319011261017957600054610e2a906020906001600160a01b0316610de5338214611a76565b6005805460009182905560025460405163a9059cbb60e01b81526001600160a01b03948516600482015260248101929092529094859390911691839182906044820190565b03925af190811561039a57600091610e80575b5015610e4557005b60405162461bcd60e51b8152602060048201526013602482015272119959481d1c985b9cd9995c8819985a5b1959606a1b6044820152606490fd5b610e99915060203d602011610393576103858183611a23565b81610e3d565b34610179576000366003190112610179576020600354604051908152f35b34610179576000366003190112610179576002546040516001600160a01b039091168152602090f35b34610179576020366003190112610179576001600160a01b03610f07611a0d565b16600052600a602052602060ff604060002054166040519015158152f35b3461017957602036600319011261017957600435801515806113e0575b156113a557610f5f610f5660045483611bdd565b60035490611bf0565b908115611372576002546040516370a0823160e01b815230600482015290602090829060249082906001600160a01b03165afa90811561039a57600091611340575b5082811061108c575b50903360005260076020526040600020610fc5838254611aed565b9055610fd382600354611aed565b600355610fe281600454611aed565b600490815560025460405163a9059cbb60e01b8152339281019290925260248201839052909290602090849060449082906000906001600160a01b03165af192831561039a5760209361103c916000916110755750611c28565b60405190828252838201527f92ccf450a286a957af52509bc1c9939d1a6a481783e142e41e2499f0bb66ebc660403392a2604051908152f35b6106d29150853d8711610393576103858183611a23565b6110969083611aed565b6000905b600954821015611338576110ad82611a45565b60018060a01b0391549060031b1c16600052600a60205260ff604060002054161561132f57600460206110df84611a45565b90546040516278744560e21b81529384929091839160031b1c6001600160a01b03165afa90811561039a576000916112fe575b5080156112f45761117e9190808210156112ec57506020815b61113485611a45565b905460025460405163f3fef3a360e01b81526001600160a01b03918216600482015260248101949094529295869360039390931b9190911c90911690829060009082906044820190565b03925af191821561039a576000926112b9575b5061119b83611a45565b60018060a01b0391549060031b1c16600052600b60205260406000206111c2838254611aed565b9055808210156111e1576001916111d891611aed565b915b019061109a565b505050905b6002546040516370a0823160e01b815230600482015290602090829060249082906001600160a01b03165afa801561039a578291600091611284575b501061122f579082610faa565b60405162461bcd60e51b815260206004820152602760248201527f496e73756666696369656e74206c6971756964697479206166746572207769746044820152661a191c985dd85b60ca1b6064820152608490fd5b9150506020813d6020116112b1575b816112a060209383611a23565b810103126101795781905184611222565b3d9150611293565b90916020823d82116112e4575b816112d360209383611a23565b810103126107055750519085611191565b3d91506112c6565b60209061112b565b50906001906111da565b906020823d8211611327575b8161131760209383611a23565b8101031261070557505185611112565b3d915061130a565b906001906111da565b5050906111e6565b906020823d60201161136a575b8161135a60209383611a23565b8101031261070557505183610fa1565b3d915061134d565b60405162461bcd60e51b815260206004820152600b60248201526a5a65726f2061737365747360a81b6044820152606490fd5b60405162461bcd60e51b8152602060048201526013602482015272496e73756666696369656e742073686172657360681b6044820152606490fd5b50336000526007602052806040600020541015610f42565b34610179576020366003190112610179576001600160a01b03611419611a0d565b1660005260076020526020604060002054604051908152f35b346101795760003660031901126101795760206107e8611afa565b3461017957602036600319011261017957611466611a0d565b61147b60018060a01b03600054163314611a76565b6001600160a01b0381166000818152600a602052604090205490919060ff166115405781600052600a6020526040600020600160ff19825416179055600954906801000000000000000082101561152a576114df8260016115039401600955611a45565b81546001600160a01b0393841660039290921b91821b9390911b1916919091179055565b7f3f008fd510eae7a9e7bee13513d7b83bef8003d488b5a3d0b0da4de71d6846f1600080a2005b634e487b7160e01b600052604160045260246000fd5b60405162461bcd60e51b815260206004820152600d60248201526c105b1c9958591e481859191959609a1b6044820152606490fd5b34610179576000366003190112610179576020600954604051908152f35b34610179576020366003190112610179576115ac611a0d565b6115c160018060a01b03600054163314611a76565b6001600160a01b03166000818152600a602052604090205460ff16156116e9576000818152600a60205260408120805460ff191690555b60095490818110156116e2578261160e82611a45565b905460039190911b1c6001600160a01b03161461162f5760019150016115f8565b60001982019182116116cc576114df61164a61166293611a45565b905460039190911b1c6001600160a01b031691611a45565b60095480156116b6576000190161167881611a45565b81549060018060a01b039060031b1b191690556009555b7f09a1db4b80c32706328728508c941a6b954f31eb5affd32f236c1fd405f8fea4600080a2005b634e487b7160e01b600052603160045260246000fd5b634e487b7160e01b600052601160045260246000fd5b505061168f565b60405162461bcd60e51b8152602060048201526009602482015268139bdd08199bdd5b9960ba1b6044820152606490fd5b34610179576000366003190112610179576040516000600154908160011c91600181168015611852575b60208410811461183e57838552849291811561181f57506001146117be575b61176f92500382611a23565b60405190602082528181519182602083015260005b8381106117a65750508160006040809484010152601f80199101168101030190f35b60208282018101516040878401015285935001611784565b509060016000527fb10e2d527612073b26eecdfd717e6a320cf44b4afac2b0732d9fcbe2b7fa0cf6906000915b81831061180357505090602061176f92820101611763565b60209193508060019154838588010152019101909183926117eb565b6020925061176f94915060ff191682840152151560051b820101611763565b634e487b7160e01b83526022600452602483fd5b92607f1692611744565b3461017957604036600319011261017957611875611a0d565b6024359061188e60018060a01b03600054163314611a76565b611896611cf5565b5060018060a01b03169081600052600a6020526118ba60ff60406000205416611aae565b6040516278744560e21b8152602081600481865afa90811561039a576000916119db575b5081116119965760025460405163f3fef3a360e01b81526001600160a01b03909116600482015260248101919091526020816044816000865af190811561039a57600091611963575b60007f1427d1942829759938581ce754fd0f7f116bfb7a4b77f80f0cb32cd62c2138c7602084868452600b82526040842061067b828254611aed565b906020823d60201161198e575b8161197d60209383611a23565b810103126107055750516020611927565b3d9150611970565b60405162461bcd60e51b815260206004820152601860248201527f496e73756666696369656e7420696e20737472617465677900000000000000006044820152606490fd5b90506020813d602011611a05575b816119f660209383611a23565b810103126101795751836118de565b3d91506119e9565b600435906001600160a01b038216820361017957565b90601f8019910116810190811067ffffffffffffffff82111761152a57604052565b600954811015611a6057600960005260206000200190600090565b634e487b7160e01b600052603260045260246000fd5b15611a7d57565b60405162461bcd60e51b81526020600482015260096024820152682737ba1037bbb732b960b91b6044820152606490fd5b15611ab557565b60405162461bcd60e51b815260206004820152601060248201526f496e76616c696420737472617465677960801b6044820152606490fd5b919082039182116116cc57565b6009548015611bd6576000199060005b818110611b1657505090565b611b1f81611a45565b60018060a01b0391549060031b1c16600052600a60205260ff60406000205416611b4c575b600101611b0a565b60046020611b5983611a45565b90546040516322841f0160e01b81529384929091839160031b1c6001600160a01b03165afa90811561039a57600091611ba5575b50838110611b9c575b50611b44565b92506001611b96565b906020823d8211611bce575b81611bbe60209383611a23565b8101031261070557505138611b8d565b3d9150611bb1565b5060001990565b818102929181159184041417156116cc57565b8115611bfa570490565b634e487b7160e01b600052601260045260246000fd5b90816020910312610179575180151581036101795790565b15611c2f57565b60405162461bcd60e51b815260206004820152600f60248201526e151c985b9cd9995c8819985a5b1959608a1b6044820152606490fd5b919082018092116116cc57565b6003548015611caa57611ca79160018060a01b03166000526007602052611ca260406000205460045490611bdd565b611bf0565b90565b5050600090565b6003548015611ce85760045490670de0b6b3a7640000820291808304670de0b6b3a764000014901517156116cc57611ca791611bf0565b50670de0b6b3a764000090565b60009060005b600954811015611dd857611d0e81611a45565b60018060a01b0391549060031b1c16600052600a60205260ff60406000205416611d3b575b600101611cfb565b6000926020611d4983611a45565b9054604051634641257d60e01b815296879260049284929160031b1c6001600160a01b03165af193841561039a57600094611da3575b5090611d99611d9085600194611c66565b94600454611c66565b6004559050611d33565b90936020823d8211611dd0575b81611dbd60209383611a23565b8101031261070557505192611d99611d7f565b3d9150611db0565b5081611de057565b7ffa07446fad45314351eb89109a154880278451332bb87f1824d435fe58da59396040612710611e1260065486611bdd565b04611e1f81600554611c66565b6005558151908582526020820152a156fea264697066735822122041a5d3eaf5149d4d6880fc689c244831ab847e9066b9c45e60f422e4c90cda0164736f6c634300081c003360806040523461039857610be16020813803918261001c8161039d565b93849283398101031261039857516001600160a01b0381169081900361039857610046604061039d565b90600e82526d4161766520563320537570706c7960901b602083015261006c604061039d565b60078152664161766520563360c81b602082015282519091906001600160401b0381116102a357600054600181811c9116801561038e575b602082101461028357601f811161032a575b506020601f82116001146102c457819293946000926102b9575b50508160011b916000199060031b1c1916176000555b81516001600160401b0381116102a357600154600181811c91168015610299575b602082101461028357601f811161021e575b50602092601f82116001146101b957928192936000926101ae575b50508160011b916000199060031b1c1916176001555b600380546001600160a01b031990811692909217905560028054909116331790556722b1c8c1227a000060065566dc44abe81300006008819055600555670b1a2bc2ec5000006009556709b6e64a8ec60000600a5560405161081e90816103c38239f35b015190503880610134565b601f198216936001600052806000209160005b86811061020657508360019596106101ed575b505050811b0160015561014a565b015160001960f88460031b161c191690553880806101df565b919260206001819286850151815501940192016101cc565b60016000527fb10e2d527612073b26eecdfd717e6a320cf44b4afac2b0732d9fcbe2b7fa0cf6601f830160051c81019160208410610279575b601f0160051c01905b81811061026d5750610119565b60008155600101610260565b9091508190610257565b634e487b7160e01b600052602260045260246000fd5b90607f1690610107565b634e487b7160e01b600052604160045260246000fd5b0151905038806100d0565b601f1982169060008052806000209160005b818110610312575095836001959697106102f9575b505050811b016000556100e6565b015160001960f88460031b161c191690553880806102eb565b9192602060018192868b0151815501940192016102d6565b600080527f290decd9548b62a8d60345a988386fc84ba6bc95484008f6362f93160ef3e563601f830160051c81019160208410610384575b601f0160051c01905b81811061037857506100b6565b6000815560010161036b565b9091508190610362565b90607f16906100a4565b600080fd5b6040519190601f01601f191682016001600160401b038111838210176102a35760405256fe608080604052600436101561001357600080fd5b60003560e01c90816301e1d114146106d25750806306fdde03146106185780630c191763146105fa57806322841f01146105dc57806323a4deb5146105b657806338d52e0f1461058d5780633bcfc4b81461023d5780634031234c1461056f5780634641257d146104bb57806347e7ef24146104615780636817031b146104045780636fb49d73146103e65780638770ccc7146103b85780638ce7442614610297578063a218141b14610279578063ad2961a31461025b578063b996de671461023d578063e402080414610214578063e9a37738146101f6578063f3fef3a314610158578063fbfa77cf1461012f5763ff16ef391461011157600080fd5b3461012a57602036600319011261012a57600435600555005b600080fd5b3461012a57600036600319011261012a576002546040516001600160a01b039091168152602090f35b3461012a57604036600319011261012a57610171610736565b5060243561018a60018060a01b03600254163314610795565b600b54908181116101bb576101a1816020936107ce565b600b556101b0816004546107ce565b600455604051908152f35b60405162461bcd60e51b815260206004820152601360248201527224b739bab33334b1b4b2b73a1030aa37b5b2b760691b6044820152606490fd5b3461012a57600036600319011261012a576020600b54604051908152f35b3461012a57600036600319011261012a5760206714d1120d7b1600006006541015604051908152f35b3461012a57600036600319011261012a576020600554604051908152f35b3461012a57600036600319011261012a576020600854604051908152f35b3461012a57600036600319011261012a576020600754604051908152f35b3461012a57600036600319011261012a576000604051816001548060011c906001811680156103ae575b60208310811461039a5782855290811561037e575060011461032a575b50819003601f01601f1916810167ffffffffffffffff811182821017610316576103129250604052604051918291826106ed565b0390f35b634e487b7160e01b83526041600452602483fd5b600184529050827fb10e2d527612073b26eecdfd717e6a320cf44b4afac2b0732d9fcbe2b7fa0cf65b828210610368575060209150820101836102de565b6001816020925483858801015201910190610353565b90506020925060ff191682840152151560051b820101836102de565b634e487b7160e01b86526022600452602486fd5b91607f16916102c1565b3461012a57602036600319011261012a576103de60018060a01b03600254163314610795565b600435600655005b3461012a57600036600319011261012a576020600a54604051908152f35b3461012a57602036600319011261012a5761041d610736565b600254906001600160a01b0382168015908115610457575b501561012a576001600160a01b03166001600160a01b03199190911617600255005b9050331483610435565b3461012a57604036600319011261012a5761047a610736565b50602060243561049560018060a01b03600254163314610795565b6104a1816004546107db565b6004556104b081600b546107db565b600b55604051908152f35b3461012a57600036600319011261012a576104e160018060a01b03600254163314610795565b602060006104f1600754436107ce565b80151580610564575b61050c575b5043600755604051908152f35b6a12a201671c8c4641080000610530600b549261052b6008548561074c565b61074c565b04908161053e575b506104ff565b8192509061054b916107db565b600b5561055a816004546107db565b6004558280610538565b50600b5415156104fa565b3461012a57600036600319011261012a576020600954604051908152f35b3461012a57600036600319011261012a576003546040516001600160a01b039091168152602090f35b3461012a57602036600319011261012a5760206105d4600435610775565b604051908152f35b3461012a57600036600319011261012a576020600654604051908152f35b3461012a57602036600319011261012a576004356008819055600555005b3461012a57600036600319011261012a5760006040518182548060011c906001811680156106c8575b60208310811461039a5782855290811561037e57506001146106915750819003601f01601f1916810167ffffffffffffffff811182821017610316576103129250604052604051918291826106ed565b90508280526020832083905b8282106106b2575060209150820101836102de565b600181602092548385880101520191019061069d565b91607f1691610641565b3461012a57600036600319011261012a576020906004548152f35b91909160208152825180602083015260005b818110610720575060409293506000838284010152601f8019910116010190565b80602080928701015160408286010152016106ff565b600435906001600160a01b038216820361012a57565b8181029291811591840414171561075f57565b634e487b7160e01b600052601160045260246000fd5b801561078e5761078a600b546009549061074c565b0490565b5060001990565b1561079c57565b60405162461bcd60e51b815260206004820152600a60248201526913db9b1e481d985d5b1d60b21b6044820152606490fd5b9190820391821161075f57565b9190820180921161075f5756fea2646970667358221220a5f2980e968b43f2365ebc6c72d7d768c9d10b05bc080a629c8619ff2dc0930c64736f6c634300081c003360806040523461039057610b586020813803918261001c81610395565b93849283398101031261039057516001600160a01b03811690819003610390576100466040610395565b9060128252714d6f7270686f20426c756520537570706c7960701b60208301526100706040610395565b60068152654d6f7270686f60d01b602082015282519091906001600160401b03811161029b57600054600181811c91168015610386575b602082101461027b57601f8111610322575b506020601f82116001146102bc57819293946000926102b1575b50508160011b916000199060031b1c1916176000555b81516001600160401b03811161029b57600154600181811c91168015610291575b602082101461027b57601f8111610216575b50602092601f82116001146101b157928192936000926101a6575b50508160011b916000199060031b1c1916176001555b600380546001600160a01b031990811692909217905560028054909116331790556722b1c8c1227a000060065567013c3107490280006008819055600555670bcbce7f1b15000060095560405161079d90816103bb8239f35b015190503880610137565b601f198216936001600052806000209160005b8681106101fe57508360019596106101e5575b505050811b0160015561014d565b015160001960f88460031b161c191690553880806101d7565b919260206001819286850151815501940192016101c4565b60016000527fb10e2d527612073b26eecdfd717e6a320cf44b4afac2b0732d9fcbe2b7fa0cf6601f830160051c81019160208410610271575b601f0160051c01905b818110610265575061011c565b60008155600101610258565b909150819061024f565b634e487b7160e01b600052602260045260246000fd5b90607f169061010a565b634e487b7160e01b600052604160045260246000fd5b0151905038806100d3565b601f1982169060008052806000209160005b81811061030a575095836001959697106102f1575b505050811b016000556100e9565b015160001960f88460031b161c191690553880806102e3565b9192602060018192868b0151815501940192016102ce565b600080527f290decd9548b62a8d60345a988386fc84ba6bc95484008f6362f93160ef3e563601f830160051c8101916020841061037c575b601f0160051c01905b81811061037057506100b9565b60008155600101610363565b909150819061035a565b90607f16906100a7565b600080fd5b6040519190601f01601f191682016001600160401b0381118382101761029b5760405256fe608080604052600436101561001357600080fd5b60003560e01c90816301e1d114146106715750806306fdde03146105b75780630c1917631461059957806322841f011461057b57806338d52e0f146105525780633bcfc4b8146102025780634641257d1461049e57806347e7ef2414610444578063630fd0ac146104265780636817031b146103c95780638770ccc71461039b5780638ce744261461027a578063a218141b1461025c578063aac3522a1461023e578063ad2961a314610220578063b996de6714610202578063e4020804146101d9578063f3fef3a314610142578063fbfa77cf146101195763ff16ef39146100fb57600080fd5b3461011457602036600319011261011457600435600555005b600080fd5b34610114576000366003190112610114576002546040516001600160a01b039091168152602090f35b346101145760403660031901126101145761015b6106d5565b5060243561017460018060a01b036002541633146106eb565b600a54908181116101a55761018b81602093610724565b600a5561019a81600454610724565b600455604051908152f35b60405162461bcd60e51b815260206004820152600c60248201526b125b9cdd59999a58da595b9d60a21b6044820152606490fd5b346101145760003660031901126101145760206714d1120d7b1600006006541015604051908152f35b34610114576000366003190112610114576020600554604051908152f35b34610114576000366003190112610114576020600854604051908152f35b34610114576000366003190112610114576020600954604051908152f35b34610114576000366003190112610114576020600754604051908152f35b34610114576000366003190112610114576000604051816001548060011c90600181168015610391575b60208310811461037d57828552908115610361575060011461030d575b50819003601f01601f1916810167ffffffffffffffff8111828210176102f9576102f592506040526040519182918261068c565b0390f35b634e487b7160e01b83526041600452602483fd5b600184529050827fb10e2d527612073b26eecdfd717e6a320cf44b4afac2b0732d9fcbe2b7fa0cf65b82821061034b575060209150820101836102c1565b6001816020925483858801015201910190610336565b90506020925060ff191682840152151560051b820101836102c1565b634e487b7160e01b86526022600452602486fd5b91607f16916102a4565b34610114576020366003190112610114576103c160018060a01b036002541633146106eb565b600435600655005b34610114576020366003190112610114576103e26106d5565b600254906001600160a01b038216801590811561041c575b5015610114576001600160a01b03166001600160a01b03199190911617600255005b90503314836103fa565b34610114576000366003190112610114576020600a54604051908152f35b346101145760403660031901126101145761045d6106d5565b50602060243561047860018060a01b036002541633146106eb565b6104848160045461075a565b60045561049381600a5461075a565b600a55604051908152f35b34610114576000366003190112610114576104c460018060a01b036002541633146106eb565b602060006104d460075443610724565b80151580610547575b6104ef575b5043600755604051908152f35b6a12a201671c8c4641080000610513600a549261050e60085485610747565b610747565b049081610521575b506104e2565b8192509061052e9161075a565b600a5561053d8160045461075a565b600455828061051b565b50600a5415156104dd565b34610114576000366003190112610114576003546040516001600160a01b039091168152602090f35b34610114576000366003190112610114576020600654604051908152f35b34610114576020366003190112610114576004356008819055600555005b346101145760003660031901126101145760006040518182548060011c90600181168015610667575b60208310811461037d5782855290811561036157506001146106305750819003601f01601f1916810167ffffffffffffffff8111828210176102f9576102f592506040526040519182918261068c565b90508280526020832083905b828210610651575060209150820101836102c1565b600181602092548385880101520191019061063c565b91607f16916105e0565b34610114576000366003190112610114576020906004548152f35b91909160208152825180602083015260005b8181106106bf575060409293506000838284010152601f8019910116010190565b806020809287010151604082860101520161069e565b600435906001600160a01b038216820361011457565b156106f257565b60405162461bcd60e51b815260206004820152600a60248201526913db9b1e481d985d5b1d60b21b6044820152606490fd5b9190820391821161073157565b634e487b7160e01b600052601160045260246000fd5b8181029291811591840414171561073157565b919082018092116107315756fea2646970667358221220d2122b1be851d8587b80aca87f4170ded2b1e1095520fbe9e682e554321c275664736f6c634300081c0033a2646970667358221220b7394edc966816933f3eb337b7a0df784be006d5fbabdc1f0dd9560bddec709564736f6c634300081c0033",
  "linkReferences": {},
  "deployedLinkReferences": {}
}